{"project/contracts/Anderson.sol":{"Anderson":{"abi":[{"inputs":[{"internalType":"address","name":"initialOwner","type":"address"}],"stateMutability":"nonpayable","type":"constructor"},{"inputs":[],"name":"CheckpointUnorderedInsertion","type":"error"},{"inputs":[],"name":"ECDSAInvalidSignature","type":"error"},{"inputs":[{"internalType":"uint256","name":"length","type":"uint256"}],"name":"ECDSAInvalidSignatureLength","type":"error"},{"inputs":[{"internalType":"bytes32","name":"s","type":"bytes32"}],"name":"ECDSAInvalidSignatureS","type":"error"},{"inputs":[{"internalType":"address","name":"spender","type":"address"},{"internalType":"uint256","name":"value","type":"uint256"}],"name":"ERC1363ApproveFailed","type":"error"},{"inputs":[{"internalType":"address","name":"receiver","type":"address"}],"name":"ERC1363InvalidReceiver","type":"error"},{"inputs":[{"internalType":"address","name":"spender","type":"address"}],"name":"ERC1363InvalidSpender","type":"error"},{"inputs":[{"internalType":"address","name":"receiver","type":"address"},{"internalType":"uint256","name":"value","type":"uint256"}],"name":"ERC1363TransferFailed","type":"error"},{"inputs":[{"internalType":"address","name":"sender","type":"address"},{"internalType":"address","name":"receiver","type":"address"},{"internalType":"uint256","name":"value","type":"uint256"}],"name":"ERC1363TransferFromFailed","type":"error"},{"inputs":[{"internalType":"uint256","name":"increasedSupply","type":"uint256"},{"internalType":"uint256","name":"cap","type":"uint256"}],"name":"ERC20ExceededSafeSupply","type":"error"},{"inputs":[{"internalType":"address","name":"spender","type":"address"},{"internalType":"uint256","name":"allowance","type":"uint256"},{"internalType":"uint256","name":"needed","type":"uint256"}],"name":"ERC20InsufficientAllowance","type":"error"},{"inputs":[{"internalType":"address","name":"sender","type":"address"},{"internalType":"uint256","name":"balance","type":"uint256"},{"internalType":"uint256","name":"needed","type":"uint256"}],"name":"ERC20InsufficientBalance","type":"error"},{"inputs":[{"internalType":"address","name":"approver","type":"address"}],"name":"ERC20InvalidApprover","type":"error"},{"inputs":[{"internalType":"address","name":"receiver","type":"address"}],"name":"ERC20InvalidReceiver","type":"error"},{"inputs":[{"internalType":"address","name":"sender","type":"address"}],"name":"ERC20InvalidSender","type":"error"},{"inputs":[{"internalType":"address","name":"spender","type":"address"}],"name":"ERC20InvalidSpender","type":"error"},{"inputs":[{"internalType":"uint256","name":"deadline","type":"uint256"}],"name":"ERC2612ExpiredSignature","type":"error"},{"inputs":[{"internalType":"address","name":"signer","type":"address"},{"internalType":"address","name":"owner","type":"address"}],"name":"ERC2612InvalidSigner","type":"error"},{"inputs":[{"internalType":"uint256","name":"maxLoan","type":"uint256"}],"name":"ERC3156ExceededMaxLoan","type":"error"},{"inputs":[{"internalType":"address","name":"receiver","type":"address"}],"name":"ERC3156InvalidReceiver","type":"error"},{"inputs":[{"internalType":"address","name":"token","type":"address"}],"name":"ERC3156UnsupportedToken","type":"error"},{"inputs":[{"internalType":"uint256","name":"timepoint","type":"uint256"},{"internalType":"uint48","name":"clock","type":"uint48"}],"name":"ERC5805FutureLookup","type":"error"},{"inputs":[],"name":"ERC6372InconsistentClock","type":"error"},{"inputs":[],"name":"EnforcedPause","type":"error"},{"inputs":[],"name":"ExpectedPause","type":"error"},{"inputs":[{"internalType":"address","name":"account","type":"address"},{"internalType":"uint256","name":"currentNonce","type":"uint256"}],"name":"InvalidAccountNonce","type":"error"},{"inputs":[],"name":"InvalidShortString","type":"error"},{"inputs":[{"internalType":"address","name":"owner","type":"address"}],"name":"OwnableInvalidOwner","type":"error"},{"inputs":[{"internalType":"address","name":"account","type":"address"}],"name":"OwnableUnauthorizedAccount","type":"error"},{"inputs":[{"internalType":"uint8","name":"bits","type":"uint8"},{"internalType":"uint256","name":"value","type":"uint256"}],"name":"SafeCastOverflowedUintDowncast","type":"error"},{"inputs":[{"internalType":"string","name":"str","type":"string"}],"name":"StringTooLong","type":"error"},{"inputs":[{"internalType":"uint256","name":"expiry","type":"uint256"}],"name":"VotesExpiredSignature","type":"error"},{"anonymous":false,"inputs":[{"indexed":true,"internalType":"address","name":"owner","type":"address"},{"indexed":true,"internalType":"address","name":"spender","type":"address"},{"indexed":false,"internalType":"uint256","name":"value","type":"uint256"}],"name":"Approval","type":"event"},{"anonymous":false,"inputs":[{"indexed":true,"internalType":"address","name":"delegator","type":"address"},{"indexed":true,"internalType":"address","name":"fromDelegate","type":"address"},{"indexed":true,"internalType":"address","name":"toDelegate","type":"address"}],"name":"DelegateChanged","type":"event"},{"anonymous":false,"inputs":[{"indexed":true,"internalType":"address","name":"delegate","type":"address"},{"indexed":false,"internalType":"uint256","name":"previousVotes","type":"uint256"},{"indexed":false,"internalType":"uint256","name":"newVotes","type":"uint256"}],"name":"DelegateVotesChanged","type":"event"},{"anonymous":false,"inputs":[],"name":"EIP712DomainChanged","type":"event"},{"anonymous":false,"inputs":[{"indexed":true,"internalType":"address","name":"previousOwner","type":"address"},{"indexed":true,"internalType":"address","name":"newOwner","type":"address"}],"name":"OwnershipTransferred","type":"event"},{"anonymous":false,"inputs":[{"indexed":false,"internalType":"address","name":"account","type":"address"}],"name":"Paused","type":"event"},{"anonymous":false,"inputs":[{"indexed":true,"internalType":"address","name":"from","type":"address"},{"indexed":true,"internalType":"address","name":"to","type":"address"},{"indexed":false,"internalType":"uint256","name":"value","type":"uint256"}],"name":"Transfer","type":"event"},{"anonymous":false,"inputs":[{"indexed":false,"internalType":"address","name":"account","type":"address"}],"name":"Unpaused","type":"event"},{"inputs":[],"name":"CLOCK_MODE","outputs":[{"internalType":"string","name":"","type":"string"}],"stateMutability":"view","type":"function"},{"inputs":[],"name":"DOMAIN_SEPARATOR","outputs":[{"internalType":"bytes32","name":"","type":"bytes32"}],"stateMutability":"view","type":"function"},{"inputs":[{"internalType":"address","name":"owner","type":"address"},{"internalType":"address","name":"spender","type":"address"}],"name":"allowance","outputs":[{"internalType":"uint256","name":"","type":"uint256"}],"stateMutability":"view","type":"function"},{"inputs":[{"internalType":"address","name":"spender","type":"address"},{"internalType":"uint256","name":"value","type":"uint256"}],"name":"approve","outputs":[{"internalType":"bool","name":"","type":"bool"}],"stateMutability":"nonpayable","type":"function"},{"inputs":[{"internalType":"address","name":"spender","type":"address"},{"internalType":"uint256","name":"value","type":"uint256"}],"name":"approveAndCall","outputs":[{"internalType":"bool","name":"","type":"bool"}],"stateMutability":"nonpayable","type":"function"},{"inputs":[{"internalType":"address","name":"spender","type":"address"},{"internalType":"uint256","name":"value","type":"uint256"},{"internalType":"bytes","name":"data","type":"bytes"}],"name":"approveAndCall","outputs":[{"internalType":"bool","name":"","type":"bool"}],"stateMutability":"nonpayable","type":"function"},{"inputs":[{"internalType":"address","name":"account","type":"address"}],"name":"balanceOf","outputs":[{"internalType":"uint256","name":"","type":"uint256"}],"stateMutability":"view","type":"function"},{"inputs":[{"internalType":"uint256","name":"value","type":"uint256"}],"name":"burn","outputs":[],"stateMutability":"nonpayable","type":"function"},{"inputs":[{"internalType":"address","name":"account","type":"address"},{"internalType":"uint256","name":"value","type":"uint256"}],"name":"burnFrom","outputs":[],"stateMutability":"nonpayable","type":"function"},{"inputs":[{"internalType":"address","name":"account","type":"address"},{"internalType":"uint32","name":"pos","type":"uint32"}],"name":"checkpoints","outputs":[{"components":[{"internalType":"uint48","name":"_key","type":"uint48"},{"internalType":"uint208","name":"_value","type":"uint208"}],"internalType":"struct Checkpoints.Checkpoint208","name":"","type":"tuple"}],"stateMutability":"view","type":"function"},{"inputs":[],"name":"clock","outputs":[{"internalType":"uint48","name":"","type":"uint48"}],"stateMutability":"view","type":"function"},{"inputs":[],"name":"decimals","outputs":[{"internalType":"uint8","name":"","type":"uint8"}],"stateMutability":"view","type":"function"},{"inputs":[{"internalType":"address","name":"delegatee","type":"address"}],"name":"delegate","outputs":[],"stateMutability":"nonpayable","type":"function"},{"inputs":[{"internalType":"address","name":"delegatee","type":"address"},{"internalType":"uint256","name":"nonce","type":"uint256"},{"internalType":"uint256","name":"expiry","type":"uint256"},{"internalType":"uint8","name":"v","type":"uint8"},{"internalType":"bytes32","name":"r","type":"bytes32"},{"internalType":"bytes32","name":"s","type":"bytes32"}],"name":"delegateBySig","outputs":[],"stateMutability":"nonpayable","type":"function"},{"inputs":[{"internalType":"address","name":"account","type":"address"}],"name":"delegates","outputs":[{"internalType":"address","name":"","type":"address"}],"stateMutability":"view","type":"function"},{"inputs":[],"name":"eip712Domain","outputs":[{"internalType":"bytes1","name":"fields","type":"bytes1"},{"internalType":"string","name":"name","type":"string"},{"internalType":"string","name":"version","type":"string"},{"internalType":"uint256","name":"chainId","type":"uint256"},{"internalType":"address","name":"verifyingContract","type":"address"},{"internalType":"bytes32","name":"salt","type":"bytes32"},{"internalType":"uint256[]","name":"extensions","type":"uint256[]"}],"stateMutability":"view","type":"function"},{"inputs":[{"internalType":"address","name":"token","type":"address"},{"internalType":"uint256","name":"value","type":"uint256"}],"name":"flashFee","outputs":[{"internalType":"uint256","name":"","type":"uint256"}],"stateMutability":"view","type":"function"},{"inputs":[{"internalType":"contract IERC3156FlashBorrower","name":"receiver","type":"address"},{"internalType":"address","name":"token","type":"address"},{"internalType":"uint256","name":"value","type":"uint256"},{"internalType":"bytes","name":"data","type":"bytes"}],"name":"flashLoan","outputs":[{"internalType":"bool","name":"","type":"bool"}],"stateMutability":"nonpayable","type":"function"},{"inputs":[{"internalType":"uint256","name":"timepoint","type":"uint256"}],"name":"getPastTotalSupply","outputs":[{"internalType":"uint256","name":"","type":"uint256"}],"stateMutability":"view","type":"function"},{"inputs":[{"internalType":"address","name":"account","type":"address"},{"internalType":"uint256","name":"timepoint","type":"uint256"}],"name":"getPastVotes","outputs":[{"internalType":"uint256","name":"","type":"uint256"}],"stateMutability":"view","type":"function"},{"inputs":[{"internalType":"address","name":"account","type":"address"}],"name":"getVotes","outputs":[{"internalType":"uint256","name":"","type":"uint256"}],"stateMutability":"view","type":"function"},{"inputs":[{"internalType":"address","name":"token","type":"address"}],"name":"maxFlashLoan","outputs":[{"internalType":"uint256","name":"","type":"uint256"}],"stateMutability":"view","type":"function"},{"inputs":[{"internalType":"address","name":"to","type":"address"},{"internalType":"uint256","name":"amount","type":"uint256"}],"name":"mint","outputs":[],"stateMutability":"nonpayable","type":"function"},{"inputs":[],"name":"name","outputs":[{"internalType":"string","name":"","type":"string"}],"stateMutability":"view","type":"function"},{"inputs":[{"internalType":"address","name":"owner","type":"address"}],"name":"nonces","outputs":[{"internalType":"uint256","name":"","type":"uint256"}],"stateMutability":"view","type":"function"},{"inputs":[{"internalType":"address","name":"account","type":"address"}],"name":"numCheckpoints","outputs":[{"internalType":"uint32","name":"","type":"uint32"}],"stateMutability":"view","type":"function"},{"inputs":[],"name":"owner","outputs":[{"internalType":"address","name":"","type":"address"}],"stateMutability":"view","type":"function"},{"inputs":[],"name":"pause","outputs":[],"stateMutability":"nonpayable","type":"function"},{"inputs":[],"name":"paused","outputs":[{"internalType":"bool","name":"","type":"bool"}],"stateMutability":"view","type":"function"},{"inputs":[{"internalType":"address","name":"owner","type":"address"},{"internalType":"address","name":"spender","type":"address"},{"internalType":"uint256","name":"value","type":"uint256"},{"internalType":"uint256","name":"deadline","type":"uint256"},{"internalType":"uint8","name":"v","type":"uint8"},{"internalType":"bytes32","name":"r","type":"bytes32"},{"internalType":"bytes32","name":"s","type":"bytes32"}],"name":"permit","outputs":[],"stateMutability":"nonpayable","type":"function"},{"inputs":[],"name":"renounceOwnership","outputs":[],"stateMutability":"nonpayable","type":"function"},{"inputs":[{"internalType":"bytes4","name":"interfaceId","type":"bytes4"}],"name":"supportsInterface","outputs":[{"internalType":"bool","name":"","type":"bool"}],"stateMutability":"view","type":"function"},{"inputs":[],"name":"symbol","outputs":[{"internalType":"string","name":"","type":"string"}],"stateMutability":"view","type":"function"},{"inputs":[],"name":"totalSupply","outputs":[{"internalType":"uint256","name":"","type":"uint256"}],"stateMutability":"view","type":"function"},{"inputs":[{"internalType":"address","name":"to","type":"address"},{"internalType":"uint256","name":"value","type":"uint256"}],"name":"transfer","outputs":[{"internalType":"bool","name":"","type":"bool"}],"stateMutability":"nonpayable","type":"function"},{"inputs":[{"internalType":"address","name":"to","type":"address"},{"internalType":"uint256","name":"value","type":"uint256"}],"name":"transferAndCall","outputs":[{"internalType":"bool","name":"","type":"bool"}],"stateMutability":"nonpayable","type":"function"},{"inputs":[{"internalType":"address","name":"to","type":"address"},{"internalType":"uint256","name":"value","type":"uint256"},{"internalType":"bytes","name":"data","type":"bytes"}],"name":"transferAndCall","outputs":[{"internalType":"bool","name":"","type":"bool"}],"stateMutability":"nonpayable","type":"function"},{"inputs":[{"internalType":"address","name":"from","type":"address"},{"internalType":"address","name":"to","type":"address"},{"internalType":"uint256","name":"value","type":"uint256"}],"name":"transferFrom","outputs":[{"internalType":"bool","name":"","type":"bool"}],"stateMutability":"nonpayable","type":"function"},{"inputs":[{"internalType":"address","name":"from","type":"address"},{"internalType":"address","name":"to","type":"address"},{"internalType":"uint256","name":"value","type":"uint256"},{"internalType":"bytes","name":"data","type":"bytes"}],"name":"transferFromAndCall","outputs":[{"internalType":"bool","name":"","type":"bool"}],"stateMutability":"nonpayable","type":"function"},{"inputs":[{"internalType":"address","name":"from","type":"address"},{"internalType":"address","name":"to","type":"address"},{"internalType":"uint256","name":"value","type":"uint256"}],"name":"transferFromAndCall","outputs":[{"internalType":"bool","name":"","type":"bool"}],"stateMutability":"nonpayable","type":"function"},{"inputs":[{"internalType":"address","name":"newOwner","type":"address"}],"name":"transferOwnership","outputs":[],"stateMutability":"nonpayable","type":"function"},{"inputs":[],"name":"unpause","outputs":[],"stateMutability":"nonpayable","type":"function"}],"evm":{"bytecode":{"linkReferences":{},"object":"610160604052348015610010575f5ffd5b50604051612f2a380380612f2a83398101604081905261002f9161027f565b6040518060400160405280600881526020016720b73232b939b7b760c11b81525080604051806040016040528060018152602001603160f81b815250836040518060400160405280600881526020016720b73232b939b7b760c11b8152506040518060400160405280600381526020016241445360e81b81525081600390816100b89190610344565b5060046100c58282610344565b5050506001600160a01b0381166100f657604051631e4fbdf760e01b81525f60048201526024015b60405180910390fd5b6100ff816101b7565b5061010b826006610210565b6101205261011a816007610210565b61014052815160208084019190912060e052815190820120610100524660a0526101a660e05161010051604080517f8b73c3c69bb8fe3d512ecc4cf759cc79239f7b179b0ffacaa9a75d522b39400f60208201529081019290925260608201524660808201523060a08201525f9060c00160405160208183030381529060405280519060200120905090565b60805250503060c052506104569050565b600580546001600160a01b03838116610100818102610100600160a81b031985161790945560405193909204169182907f8be0079c531659141344cd1fd0a4f28419497f9722a3daafe3b4186f6b6457e0905f90a35050565b5f60208351101561022b5761022483610242565b905061023c565b816102368482610344565b5060ff90505b92915050565b5f5f829050601f8151111561026c578260405163305a27a960e01b81526004016100ed91906103fe565b805161027782610433565b179392505050565b5f6020828403121561028f575f5ffd5b81516001600160a01b03811681146102a5575f5ffd5b9392505050565b634e487b7160e01b5f52604160045260245ffd5b600181811c908216806102d457607f821691505b6020821081036102f257634e487b7160e01b5f52602260045260245ffd5b50919050565b601f82111561033f57805f5260205f20601f840160051c8101602085101561031d5750805b601f840160051c820191505b8181101561033c575f8155600101610329565b50505b505050565b81516001600160401b0381111561035d5761035d6102ac565b6103718161036b84546102c0565b846102f8565b6020601f8211600181146103a3575f831561038c5750848201515b5f19600385901b1c1916600184901b17845561033c565b5f84815260208120601f198516915b828110156103d257878501518255602094850194600190920191016103b2565b50848210156103ef57868401515f19600387901b60f8161c191681555b50505050600190811b01905550565b602081525f82518060208401528060208501604085015e5f604082850101526040601f19601f83011684010191505092915050565b805160208083015191908110156102f2575f1960209190910360031b1b16919050565b60805160a05160c05160e051610100516101205161014051612a836104a75f395f61152201525f6114f501525f61101701525f610fef01525f610f4a01525f610f7401525f610f9e0152612a835ff3fe608060405234801561000f575f5ffd5b5060043610610255575f3560e01c806370a08231116101405780639ab24eb0116100bf578063d505accf11610084578063d505accf14610540578063d8fbe99414610553578063d9d98ce414610566578063dd62ed3e14610579578063f1127ed8146105b1578063f2fde38b146105f0575f5ffd5b80639ab24eb0146104e1578063a9059cbb146104f4578063c1d34b8914610507578063c3cda5201461051a578063cae9ca511461052d575f5ffd5b806384b0196e1161010557806384b0196e146104765780638da5cb5b146104915780638e539e8c146104a757806391ddadf4146104ba57806395d89b41146104d9575f5ffd5b806370a0823114610418578063715018a61461044057806379cc6790146104485780637ecebe001461045b5780638456cb591461046e575f5ffd5b80633f4ba83a116101d7578063587cde1e1161019c578063587cde1e146103695780635c19a95c146103ac5780635c975abb146103bf5780635cffe9de146103ca578063613255ab146103dd5780636fcfff45146103f0575f5ffd5b80633f4ba83a1461031e5780634000aea01461032857806340c10f191461033b57806342966c681461034e5780634bf5d7e914610361575f5ffd5b806323b872dd1161021d57806323b872dd146102ce578063313ce567146102e15780633177029f146102f05780633644e515146103035780633a46b1a81461030b575f5ffd5b806301ffc9a71461025957806306fdde0314610281578063095ea7b3146102965780631296ee62146102a957806318160ddd146102bc575b5f5ffd5b61026c610267366004612379565b610603565b60405190151581526020015b60405180910390f35b610289610639565b60405161027891906123c2565b61026c6102a43660046123e8565b6106c9565b61026c6102b73660046123e8565b6106e0565b6002545b604051908152602001610278565b61026c6102dc366004612412565b610701565b60405160128152602001610278565b61026c6102fe3660046123e8565b610724565b6102c061073e565b6102c06103193660046123e8565b61074c565b610326610786565b005b61026c6103363660046124ef565b610798565b6103266103493660046123e8565b6107e4565b61032661035c366004612544565b6107fa565b610289610807565b61039461037736600461255b565b6001600160a01b039081165f908152600960205260409020541690565b6040516001600160a01b039091168152602001610278565b6103266103ba36600461255b565b61087f565b60055460ff1661026c565b61026c6103d8366004612576565b61088a565b6102c06103eb36600461255b565b6109fc565b6104036103fe36600461255b565b610a21565b60405163ffffffff9091168152602001610278565b6102c061042636600461255b565b6001600160a01b03165f9081526020819052604090205490565b610326610a2b565b6103266104563660046123e8565b610a3c565b6102c061046936600461255b565b610a51565b610326610a5b565b61047e610a6b565b604051610278979695949392919061260f565b60055461010090046001600160a01b0316610394565b6102c06104b5366004612544565b610aad565b6104c2610ad1565b60405165ffffffffffff9091168152602001610278565b610289610ada565b6102c06104ef36600461255b565b610ae9565b61026c6105023660046123e8565b610b09565b61026c6105153660046126a5565b610b16565b610326610528366004612722565b610b66565b61026c61053b3660046124ef565b610c22565b61032661054e366004612778565b610c68565b61026c610561366004612412565b610d9e565b6102c06105743660046123e8565b610dc1565b6102c06105873660046127e2565b6001600160a01b039182165f90815260016020908152604080832093909416825291909152205490565b6105c46105bf366004612819565b610dfc565b60408051825165ffffffffffff1681526020928301516001600160d01b03169281019290925201610278565b6103266105fe36600461255b565b610e19565b5f6001600160e01b0319821663b0202a1160e01b148061063357506301ffc9a760e01b6001600160e01b03198316145b92915050565b6060600380546106489061284d565b80601f01602080910402602001604051908101604052809291908181526020018280546106749061284d565b80156106bf5780601f10610696576101008083540402835291602001916106bf565b820191905f5260205f20905b8154815290600101906020018083116106a257829003601f168201915b5050505050905090565b5f336106d6818585610e53565b5060019392505050565b5f6106fa838360405180602001604052805f815250610798565b9392505050565b5f3361070e858285610e65565b610719858585610ee1565b506001949350505050565b5f6106fa838360405180602001604052805f815250610c22565b5f610747610f3e565b905090565b5f61077661075983611067565b6001600160a01b0385165f908152600a60205260409020906110b5565b6001600160d01b03169392505050565b61078e611165565b610796611198565b565b5f6107a38484610b09565b6107d75760405163118d81d760e11b81526001600160a01b0385166004820152602481018490526044015b60405180910390fd5b6106d633338686866111ea565b6107ec611165565b6107f68282611337565b5050565b610804338261136b565b50565b606061081161139f565b65ffffffffffff16610821610ad1565b65ffffffffffff1614610847576040516301bfc1c560e61b815260040160405180910390fd5b5060408051808201909152601d81527f6d6f64653d626c6f636b6e756d6265722666726f6d3d64656661756c74000000602082015290565b336107f681836113a9565b5f5f610895866109fc565b9050808511156108bb5760405163fd9a760960e01b8152600481018290526024016107ce565b5f6108c68787610dc1565b90506108d28887611337565b6040516323e30c8b60e01b81527f439148f0bbc682ca079e46d6e2c2f0c1e3b820f1a291b069d8882abf8cf18dd9906001600160a01b038a16906323e30c8b9061092a9033908c908c9088908d908d90600401612885565b6020604051808303815f875af1158015610946573d5f5f3e3d5ffd5b505050506040513d601f19601f8201168201806040525081019061096a91906128dd565b146109925760405162678c5b60e81b81526001600160a01b03891660048201526024016107ce565b5f6109a789306109a2858b612908565b610e65565b8115806109bb57506001600160a01b038116155b156109d8576109d3896109ce848a612908565b61136b565b6109ed565b6109e2898861136b565b6109ed898284610ee1565b50600198975050505050505050565b5f6001600160a01b0382163014610a13575f610633565b600254610633905f1961291b565b5f6106338261141a565b610a33611165565b6107965f61143b565b610a47823383610e65565b6107f6828261136b565b5f61063382611494565b610a63611165565b6107966114b1565b5f6060805f5f5f6060610a7c6114ee565b610a8461151b565b604080515f80825260208201909252600f60f81b9b939a50919850469750309650945092509050565b5f610ac2610aba83611067565b600b906110b5565b6001600160d01b031692915050565b5f61074761139f565b6060600480546106489061284d565b6001600160a01b0381165f908152600a60205260408120610ac290611548565b5f336106d6818585610ee1565b5f610b22858585610701565b610b5957604051635ab42af360e11b81526001600160a01b03808716600483015285166024820152604481018490526064016107ce565b61071933868686866111ea565b83421115610b8a57604051632341d78760e11b8152600481018590526024016107ce565b604080517fe48329057bfd03d55e49b547132e39cffd9c1820ad7b9d4c5307691425d15adf60208201526001600160a01b0388169181019190915260608101869052608081018590525f90610c0390610bfb9060a0016040516020818303038152906040528051906020012061157f565b8585856115ab565b9050610c0f81876115d7565b610c1981886113a9565b50505050505050565b5f610c2d84846106c9565b610c5c57604051631439557160e21b81526001600160a01b0385166004820152602481018490526044016107ce565b6106d633858585611629565b83421115610c8c5760405163313c898160e11b8152600481018590526024016107ce565b5f7f6e71edae12b1b97f4d1f60370fef10105fa2faae0126114a169c64845d6126c9888888610cd78c6001600160a01b03165f90815260086020526040902080546001810190915590565b6040805160208101969096526001600160a01b0394851690860152929091166060840152608083015260a082015260c0810186905260e0016040516020818303038152906040528051906020012090505f610d318261157f565b90505f610d40828787876115ab565b9050896001600160a01b0316816001600160a01b031614610d87576040516325c0072360e11b81526001600160a01b0380831660048301528b1660248201526044016107ce565b610d928a8a8a610e53565b50505050505050505050565b5f610db984848460405180602001604052805f815250610b16565b949350505050565b5f6001600160a01b0383163014610df657604051635ad3edc960e11b81526001600160a01b03841660048201526024016107ce565b5f6106fa565b604080518082019091525f80825260208201526106fa8383611763565b610e21611165565b6001600160a01b038116610e4a57604051631e4fbdf760e01b81525f60048201526024016107ce565b6108048161143b565b610e608383836001611797565b505050565b6001600160a01b038381165f908152600160209081526040808320938616835292905220545f19811015610edb5781811015610ecd57604051637dc7a0d960e11b81526001600160a01b038416600482015260248101829052604481018390526064016107ce565b610edb84848484035f611797565b50505050565b6001600160a01b038316610f0a57604051634b637e8f60e11b81525f60048201526024016107ce565b6001600160a01b038216610f335760405163ec442f0560e01b81525f60048201526024016107ce565b610e60838383611869565b5f306001600160a01b037f000000000000000000000000000000000000000000000000000000000000000016148015610f9657507f000000000000000000000000000000000000000000000000000000000000000046145b15610fc057507f000000000000000000000000000000000000000000000000000000000000000090565b610747604080517f8b73c3c69bb8fe3d512ecc4cf759cc79239f7b179b0ffacaa9a75d522b39400f60208201527f0000000000000000000000000000000000000000000000000000000000000000918101919091527f000000000000000000000000000000000000000000000000000000000000000060608201524660808201523060a08201525f9060c00160405160208183030381529060405280519060200120905090565b5f5f611071610ad1565b90508065ffffffffffff1683106110ac57604051637669fc0f60e11b81526004810184905265ffffffffffff821660248201526044016107ce565b6106fa83611874565b81545f9081816005811115611111575f6110ce846118aa565b6110d8908561291b565b5f8881526020902090915081015465ffffffffffff90811690871610156111015780915061110f565b61110c816001612908565b92505b505b5f61111e87878585611a02565b90508015611158576111428761113560018461291b565b5f91825260209091200190565b54600160301b90046001600160d01b031661115a565b5f5b979650505050505050565b6005546001600160a01b036101009091041633146107965760405163118cdaa760e01b81523360048201526024016107ce565b6111a0611a61565b6005805460ff191690557f5db9ee0a495bf2e6ff9c91a7834c1ba4fdd244a5e8aa4e537bd38aeae4b073aa335b6040516001600160a01b03909116815260200160405180910390a1565b826001600160a01b03163b5f0361121f576040516322a5b36760e21b81526001600160a01b03841660048201526024016107ce565b604051632229f29760e21b81526001600160a01b038416906388a7ca5c9061125190889088908790879060040161292e565b6020604051808303815f875af192505050801561128b575060408051601f3d908101601f191682019092526112889181019061296a565b60015b6112f2573d8080156112b8576040519150601f19603f3d011682016040523d82523d5f602084013e6112bd565b606091505b5080515f036112ea576040516322a5b36760e21b81526001600160a01b03851660048201526024016107ce565b805160208201fd5b6001600160e01b03198116632229f29760e21b1461132e576040516322a5b36760e21b81526001600160a01b03851660048201526024016107ce565b505b5050505050565b6001600160a01b0382166113605760405163ec442f0560e01b81525f60048201526024016107ce565b6107f65f8383611869565b6001600160a01b03821661139457604051634b637e8f60e11b81525f60048201526024016107ce565b6107f6825f83611869565b5f61074743611874565b6001600160a01b038281165f8181526009602052604080822080548686166001600160a01b0319821681179092559151919094169392849290917f3134e8a2e6d97e929a7e54011ea5485d7d196dd5f0ba4d4ef95803e8e3fc257f9190a4610e60818361141586611a84565b611aa1565b6001600160a01b0381165f908152600a602052604081205461063390611c0a565b600580546001600160a01b03838116610100818102610100600160a81b031985161790945560405193909204169182907f8be0079c531659141344cd1fd0a4f28419497f9722a3daafe3b4186f6b6457e0905f90a35050565b6001600160a01b0381165f90815260086020526040812054610633565b6114b9611c3a565b6005805460ff191660011790557f62e78cea01bee320cd4e420270b5ea74000d11b0c9f74754ebdbfc544b05a2586111cd3390565b60606107477f00000000000000000000000000000000000000000000000000000000000000006006611c5e565b60606107477f00000000000000000000000000000000000000000000000000000000000000006007611c5e565b80545f908015611577576115618361113560018461291b565b54600160301b90046001600160d01b03166106fa565b5f9392505050565b5f61063361158b610f3e565b8360405161190160f01b8152600281019290925260228201526042902090565b5f5f5f5f6115bb88888888611d07565b9250925092506115cb8282611dcf565b50909695505050505050565b6001600160a01b0382165f908152600860205260409020805460018101909155818114610e60576040516301d4b62360e61b81526001600160a01b0384166004820152602481018290526044016107ce565b826001600160a01b03163b5f0361165e5760405163deb6d3ed60e01b81526001600160a01b03841660048201526024016107ce565b6040516307b04a2d60e41b81526001600160a01b03841690637b04a2d09061168e90879086908690600401612985565b6020604051808303815f875af19250505080156116c8575060408051601f3d908101601f191682019092526116c59181019061296a565b60015b611727573d8080156116f5576040519150601f19603f3d011682016040523d82523d5f602084013e6116fa565b606091505b5080515f036112ea5760405163deb6d3ed60e01b81526001600160a01b03851660048201526024016107ce565b6001600160e01b031981166307b04a2d60e41b146113305760405163deb6d3ed60e01b81526001600160a01b03851660048201526024016107ce565b604080518082019091525f80825260208201526001600160a01b0383165f908152600a602052604090206106fa9083611e87565b6001600160a01b0384166117c05760405163e602df0560e01b81525f60048201526024016107ce565b6001600160a01b0383166117e957604051634a1406b160e11b81525f60048201526024016107ce565b6001600160a01b038085165f9081526001602090815260408083209387168352929052208290558015610edb57826001600160a01b0316846001600160a01b03167f8c5be1e5ebec7d5bd14f71427d1e84f3dd0314c0f7b2291e5b200ac8c7c3b9258460405161185b91815260200190565b60405180910390a350505050565b610e60838383611ef4565b5f65ffffffffffff8211156118a6576040516306dfcc6560e41b815260306004820152602481018390526044016107ce565b5090565b5f600182116118b7575090565b816001600160801b82106118d05760809190911c9060401b5b6801000000000000000082106118eb5760409190911c9060201b5b64010000000082106119025760209190911c9060101b5b6201000082106119175760109190911c9060081b5b610100821061192b5760089190911c9060041b5b6010821061193e5760049190911c9060021b5b6004821061194a5760011b5b600302600190811c90818581611962576119626129b4565b048201901c9050600181858161197a5761197a6129b4565b048201901c90506001818581611992576119926129b4565b048201901c905060018185816119aa576119aa6129b4565b048201901c905060018185816119c2576119c26129b4565b048201901c905060018185816119da576119da6129b4565b048201901c90506119f98185816119f3576119f36129b4565b04821190565b90039392505050565b5f5b81831015611a59575f611a178484611f5a565b5f8781526020902090915065ffffffffffff86169082015465ffffffffffff161115611a4557809250611a53565b611a50816001612908565b93505b50611a04565b509392505050565b60055460ff1661079657604051638dfc202b60e01b815260040160405180910390fd5b6001600160a01b0381165f90815260208190526040812054610633565b816001600160a01b0316836001600160a01b031614158015611ac257505f81115b15610e60576001600160a01b03831615611b69576001600160a01b0383165f908152600a602052604081208190611b0490611f74611aff86611f7f565b611fb2565b6001600160d01b031691506001600160d01b03169150846001600160a01b03167fdec2bacdd2f05b59de34da9b523dff8be42e5e38e818c82fdb0bae774387a7248383604051611b5e929190918252602082015260400190565b60405180910390a250505b6001600160a01b03821615610e60576001600160a01b0382165f908152600a602052604081208190611ba190611fea611aff86611f7f565b6001600160d01b031691506001600160d01b03169150836001600160a01b03167fdec2bacdd2f05b59de34da9b523dff8be42e5e38e818c82fdb0bae774387a7248383604051611bfb929190918252602082015260400190565b60405180910390a25050505050565b5f63ffffffff8211156118a6576040516306dfcc6560e41b815260206004820152602481018390526044016107ce565b60055460ff16156107965760405163d93c066560e01b815260040160405180910390fd5b606060ff8314611c7857611c7183611ff5565b9050610633565b818054611c849061284d565b80601f0160208091040260200160405190810160405280929190818152602001828054611cb09061284d565b8015611cfb5780601f10611cd257610100808354040283529160200191611cfb565b820191905f5260205f20905b815481529060010190602001808311611cde57829003601f168201915b50505050509050610633565b5f80807f7fffffffffffffffffffffffffffffff5d576e7357a4501ddfe92f46681b20a0841115611d4057505f91506003905082611dc5565b604080515f808252602082018084528a905260ff891692820192909252606081018790526080810186905260019060a0016020604051602081039080840390855afa158015611d91573d5f5f3e3d5ffd5b5050604051601f1901519150506001600160a01b038116611dbc57505f925060019150829050611dc5565b92505f91508190505b9450945094915050565b5f826003811115611de257611de26129c8565b03611deb575050565b6001826003811115611dff57611dff6129c8565b03611e1d5760405163f645eedf60e01b815260040160405180910390fd5b6002826003811115611e3157611e316129c8565b03611e525760405163fce698f760e01b8152600481018290526024016107ce565b6003826003811115611e6657611e666129c8565b036107f6576040516335e2f38360e21b8152600481018290526024016107ce565b604080518082019091525f8082526020820152825f018263ffffffff1681548110611eb457611eb46129dc565b5f9182526020918290206040805180820190915291015465ffffffffffff81168252600160301b90046001600160d01b0316918101919091529392505050565b611eff838383612032565b6001600160a01b038316611f4f575f611f1760025490565b90506001600160d01b0380821115611f4c57604051630e58ae9360e11b815260048101839052602481018290526044016107ce565b50505b610e60838383612045565b5f611f6860028484186129f0565b6106fa90848416612908565b5f6106fa8284612a0f565b5f6001600160d01b038211156118a6576040516306dfcc6560e41b815260d06004820152602481018390526044016107ce565b5f5f611fdd611fbf610ad1565b611fd5611fcb88611548565b868863ffffffff16565b8791906120ba565b915091505b935093915050565b5f6106fa8284612a2e565b60605f612001836120c7565b6040805160208082528183019092529192505f91906020820181803683375050509182525060208101929092525090565b61203a611c3a565b610e608383836120ee565b6001600160a01b03831661206757612064600b611fea611aff84611f7f565b50505b6001600160a01b03821661208957612086600b611f74611aff84611f7f565b50505b6001600160a01b038381165f90815260096020526040808220548584168352912054610e6092918216911683611aa1565b5f80611fdd858585612214565b5f60ff8216601f81111561063357604051632cd44ac360e21b815260040160405180910390fd5b6001600160a01b038316612118578060025f82825461210d9190612908565b909155506121889050565b6001600160a01b0383165f908152602081905260409020548181101561216a5760405163391434e360e21b81526001600160a01b038516600482015260248101829052604481018390526064016107ce565b6001600160a01b0384165f9081526020819052604090209082900390555b6001600160a01b0382166121a4576002805482900390556121c2565b6001600160a01b0382165f9081526020819052604090208054820190555b816001600160a01b0316836001600160a01b03167fddf252ad1be2c89b69c2b068fc378daa952ba7f163c4a11628f55a4df523b3ef8360405161220791815260200190565b60405180910390a3505050565b82545f908190801561230a575f6122308761113560018561291b565b805490915065ffffffffffff80821691600160301b90046001600160d01b031690881682111561227357604051632520601d60e01b815260040160405180910390fd5b8765ffffffffffff168265ffffffffffff16036122ac57825465ffffffffffff16600160301b6001600160d01b038916021783556122fc565b6040805180820190915265ffffffffffff808a1682526001600160d01b03808a1660208085019182528d54600181018f555f8f81529190912094519151909216600160301b029216919091179101555b9450859350611fe292505050565b50506040805180820190915265ffffffffffff80851682526001600160d01b0380851660208085019182528854600181018a555f8a815291822095519251909316600160301b029190931617920191909155905081611fe2565b6001600160e01b031981168114610804575f5ffd5b5f60208284031215612389575f5ffd5b81356106fa81612364565b5f81518084528060208401602086015e5f602082860101526020601f19601f83011685010191505092915050565b602081525f6106fa6020830184612394565b6001600160a01b0381168114610804575f5ffd5b5f5f604083850312156123f9575f5ffd5b8235612404816123d4565b946020939093013593505050565b5f5f5f60608486031215612424575f5ffd5b833561242f816123d4565b9250602084013561243f816123d4565b929592945050506040919091013590565b634e487b7160e01b5f52604160045260245ffd5b5f82601f830112612473575f5ffd5b813567ffffffffffffffff81111561248d5761248d612450565b604051601f8201601f19908116603f0116810167ffffffffffffffff811182821017156124bc576124bc612450565b6040528181528382016020018510156124d3575f5ffd5b816020850160208301375f918101602001919091529392505050565b5f5f5f60608486031215612501575f5ffd5b833561250c816123d4565b925060208401359150604084013567ffffffffffffffff81111561252e575f5ffd5b61253a86828701612464565b9150509250925092565b5f60208284031215612554575f5ffd5b5035919050565b5f6020828403121561256b575f5ffd5b81356106fa816123d4565b5f5f5f5f5f6080868803121561258a575f5ffd5b8535612595816123d4565b945060208601356125a5816123d4565b935060408601359250606086013567ffffffffffffffff8111156125c7575f5ffd5b8601601f810188136125d7575f5ffd5b803567ffffffffffffffff8111156125ed575f5ffd5b8860208284010111156125fe575f5ffd5b959894975092955050506020019190565b60ff60f81b8816815260e060208201525f61262d60e0830189612394565b828103604084015261263f8189612394565b606084018890526001600160a01b038716608085015260a0840186905283810360c0850152845180825260208087019350909101905f5b81811015612694578351835260209384019390920191600101612676565b50909b9a5050505050505050505050565b5f5f5f5f608085870312156126b8575f5ffd5b84356126c3816123d4565b935060208501356126d3816123d4565b925060408501359150606085013567ffffffffffffffff8111156126f5575f5ffd5b61270187828801612464565b91505092959194509250565b803560ff8116811461271d575f5ffd5b919050565b5f5f5f5f5f5f60c08789031215612737575f5ffd5b8635612742816123d4565b9550602087013594506040870135935061275e6060880161270d565b9598949750929560808101359460a0909101359350915050565b5f5f5f5f5f5f5f60e0888a03121561278e575f5ffd5b8735612799816123d4565b965060208801356127a9816123d4565b955060408801359450606088013593506127c56080890161270d565b9699959850939692959460a0840135945060c09093013592915050565b5f5f604083850312156127f3575f5ffd5b82356127fe816123d4565b9150602083013561280e816123d4565b809150509250929050565b5f5f6040838503121561282a575f5ffd5b8235612835816123d4565b9150602083013563ffffffff8116811461280e575f5ffd5b600181811c9082168061286157607f821691505b60208210810361287f57634e487b7160e01b5f52602260045260245ffd5b50919050565b6001600160a01b03878116825286166020820152604081018590526060810184905260a0608082018190528101829052818360c08301375f81830160c090810191909152601f909201601f1916010195945050505050565b5f602082840312156128ed575f5ffd5b5051919050565b634e487b7160e01b5f52601160045260245ffd5b80820180821115610633576106336128f4565b81810381811115610633576106336128f4565b6001600160a01b03858116825284166020820152604081018390526080606082018190525f9061296090830184612394565b9695505050505050565b5f6020828403121561297a575f5ffd5b81516106fa81612364565b60018060a01b0384168152826020820152606060408201525f6129ab6060830184612394565b95945050505050565b634e487b7160e01b5f52601260045260245ffd5b634e487b7160e01b5f52602160045260245ffd5b634e487b7160e01b5f52603260045260245ffd5b5f82612a0a57634e487b7160e01b5f52601260045260245ffd5b500490565b6001600160d01b038281168282160390811115610633576106336128f4565b6001600160d01b038181168382160190811115610633576106336128f456fea2646970667358221220fd24141a9c894bff4467e43eb6789ba6f99bcb81779dfa1c976e186a09d7e0d964736f6c634300081c0033","opcodes":"PUSH2 0x160 PUSH1 0x40 MSTORE CALLVALUE DUP1 ISZERO PUSH2 0x10 JUMPI PUSH0 PUSH0 REVERT JUMPDEST POP PUSH1 0x40 MLOAD PUSH2 0x2F2A CODESIZE SUB DUP1 PUSH2 0x2F2A DUP4 CODECOPY DUP2 ADD PUSH1 0x40 DUP2 SWAP1 MSTORE PUSH2 0x2F SWAP2 PUSH2 0x27F JUMP JUMPDEST PUSH1 0x40 MLOAD DUP1 PUSH1 0x40 ADD PUSH1 0x40 MSTORE DUP1 PUSH1 0x8 DUP2 MSTORE PUSH1 0x20 ADD PUSH8 0x20B73232B939B7B7 PUSH1 0xC1 SHL DUP2 MSTORE POP DUP1 PUSH1 0x40 MLOAD DUP1 PUSH1 0x40 ADD PUSH1 0x40 MSTORE DUP1 PUSH1 0x1 DUP2 MSTORE PUSH1 0x20 ADD PUSH1 0x31 PUSH1 0xF8 SHL DUP2 MSTORE POP DUP4 PUSH1 0x40 MLOAD DUP1 PUSH1 0x40 ADD PUSH1 0x40 MSTORE DUP1 PUSH1 0x8 DUP2 MSTORE PUSH1 0x20 ADD PUSH8 0x20B73232B939B7B7 PUSH1 0xC1 SHL DUP2 MSTORE POP PUSH1 0x40 MLOAD DUP1 PUSH1 0x40 ADD PUSH1 0x40 MSTORE DUP1 PUSH1 0x3 DUP2 MSTORE PUSH1 0x20 ADD PUSH3 0x414453 PUSH1 0xE8 SHL DUP2 MSTORE POP DUP2 PUSH1 0x3 SWAP1 DUP2 PUSH2 0xB8 SWAP2 SWAP1 PUSH2 0x344 JUMP JUMPDEST POP PUSH1 0x4 PUSH2 0xC5 DUP3 DUP3 PUSH2 0x344 JUMP JUMPDEST POP POP POP PUSH1 0x1 PUSH1 0x1 PUSH1 0xA0 SHL SUB DUP2 AND PUSH2 0xF6 JUMPI PUSH1 0x40 MLOAD PUSH4 0x1E4FBDF7 PUSH1 0xE0 SHL DUP2 MSTORE PUSH0 PUSH1 0x4 DUP3 ADD MSTORE PUSH1 0x24 ADD JUMPDEST PUSH1 0x40 MLOAD DUP1 SWAP2 SUB SWAP1 REVERT JUMPDEST PUSH2 0xFF DUP2 PUSH2 0x1B7 JUMP JUMPDEST POP PUSH2 0x10B DUP3 PUSH1 0x6 PUSH2 0x210 JUMP JUMPDEST PUSH2 0x120 MSTORE PUSH2 0x11A DUP2 PUSH1 0x7 PUSH2 0x210 JUMP JUMPDEST PUSH2 0x140 MSTORE DUP2 MLOAD PUSH1 0x20 DUP1 DUP5 ADD SWAP2 SWAP1 SWAP2 KECCAK256 PUSH1 0xE0 MSTORE DUP2 MLOAD SWAP1 DUP3 ADD KECCAK256 PUSH2 0x100 MSTORE CHAINID PUSH1 0xA0 MSTORE PUSH2 0x1A6 PUSH1 0xE0 MLOAD PUSH2 0x100 MLOAD PUSH1 0x40 DUP1 MLOAD PUSH32 0x8B73C3C69BB8FE3D512ECC4CF759CC79239F7B179B0FFACAA9A75D522B39400F PUSH1 0x20 DUP3 ADD MSTORE SWAP1 DUP2 ADD SWAP3 SWAP1 SWAP3 MSTORE PUSH1 0x60 DUP3 ADD MSTORE CHAINID PUSH1 0x80 DUP3 ADD MSTORE ADDRESS PUSH1 0xA0 DUP3 ADD MSTORE PUSH0 SWAP1 PUSH1 0xC0 ADD PUSH1 0x40 MLOAD PUSH1 0x20 DUP2 DUP4 SUB SUB DUP2 MSTORE SWAP1 PUSH1 0x40 MSTORE DUP1 MLOAD SWAP1 PUSH1 0x20 ADD KECCAK256 SWAP1 POP SWAP1 JUMP JUMPDEST PUSH1 0x80 MSTORE POP POP ADDRESS PUSH1 0xC0 MSTORE POP PUSH2 0x456 SWAP1 POP JUMP JUMPDEST PUSH1 0x5 DUP1 SLOAD PUSH1 0x1 PUSH1 0x1 PUSH1 0xA0 SHL SUB DUP4 DUP2 AND PUSH2 0x100 DUP2 DUP2 MUL PUSH2 0x100 PUSH1 0x1 PUSH1 0xA8 SHL SUB NOT DUP6 AND OR SWAP1 SWAP5 SSTORE PUSH1 0x40 MLOAD SWAP4 SWAP1 SWAP3 DIV AND SWAP2 DUP3 SWAP1 PUSH32 0x8BE0079C531659141344CD1FD0A4F28419497F9722A3DAAFE3B4186F6B6457E0 SWAP1 PUSH0 SWAP1 LOG3 POP POP JUMP JUMPDEST PUSH0 PUSH1 0x20 DUP4 MLOAD LT ISZERO PUSH2 0x22B JUMPI PUSH2 0x224 DUP4 PUSH2 0x242 JUMP JUMPDEST SWAP1 POP PUSH2 0x23C JUMP JUMPDEST DUP2 PUSH2 0x236 DUP5 DUP3 PUSH2 0x344 JUMP JUMPDEST POP PUSH1 0xFF SWAP1 POP JUMPDEST SWAP3 SWAP2 POP POP JUMP JUMPDEST PUSH0 PUSH0 DUP3 SWAP1 POP PUSH1 0x1F DUP2 MLOAD GT ISZERO PUSH2 0x26C JUMPI DUP3 PUSH1 0x40 MLOAD PUSH4 0x305A27A9 PUSH1 0xE0 SHL DUP2 MSTORE PUSH1 0x4 ADD PUSH2 0xED SWAP2 SWAP1 PUSH2 0x3FE JUMP JUMPDEST DUP1 MLOAD PUSH2 0x277 DUP3 PUSH2 0x433 JUMP JUMPDEST OR SWAP4 SWAP3 POP POP POP JUMP JUMPDEST PUSH0 PUSH1 0x20 DUP3 DUP5 SUB SLT ISZERO PUSH2 0x28F JUMPI PUSH0 PUSH0 REVERT JUMPDEST DUP2 MLOAD PUSH1 0x1 PUSH1 0x1 PUSH1 0xA0 SHL SUB DUP2 AND DUP2 EQ PUSH2 0x2A5 JUMPI PUSH0 PUSH0 REVERT JUMPDEST SWAP4 SWAP3 POP POP POP JUMP JUMPDEST PUSH4 0x4E487B71 PUSH1 0xE0 SHL PUSH0 MSTORE PUSH1 0x41 PUSH1 0x4 MSTORE PUSH1 0x24 PUSH0 REVERT JUMPDEST PUSH1 0x1 DUP2 DUP2 SHR SWAP1 DUP3 AND DUP1 PUSH2 0x2D4 JUMPI PUSH1 0x7F DUP3 AND SWAP2 POP JUMPDEST PUSH1 0x20 DUP3 LT DUP2 SUB PUSH2 0x2F2 JUMPI PUSH4 0x4E487B71 PUSH1 0xE0 SHL PUSH0 MSTORE PUSH1 0x22 PUSH1 0x4 MSTORE PUSH1 0x24 PUSH0 REVERT JUMPDEST POP SWAP2 SWAP1 POP JUMP JUMPDEST PUSH1 0x1F DUP3 GT ISZERO PUSH2 0x33F JUMPI DUP1 PUSH0 MSTORE PUSH1 0x20 PUSH0 KECCAK256 PUSH1 0x1F DUP5 ADD PUSH1 0x5 SHR DUP2 ADD PUSH1 0x20 DUP6 LT ISZERO PUSH2 0x31D JUMPI POP DUP1 JUMPDEST PUSH1 0x1F DUP5 ADD PUSH1 0x5 SHR DUP3 ADD SWAP2 POP JUMPDEST DUP2 DUP2 LT ISZERO PUSH2 0x33C JUMPI PUSH0 DUP2 SSTORE PUSH1 0x1 ADD PUSH2 0x329 JUMP JUMPDEST POP POP JUMPDEST POP POP POP JUMP JUMPDEST DUP2 MLOAD PUSH1 0x1 PUSH1 0x1 PUSH1 0x40 SHL SUB DUP2 GT ISZERO PUSH2 0x35D JUMPI PUSH2 0x35D PUSH2 0x2AC JUMP JUMPDEST PUSH2 0x371 DUP2 PUSH2 0x36B DUP5 SLOAD PUSH2 0x2C0 JUMP JUMPDEST DUP5 PUSH2 0x2F8 JUMP JUMPDEST PUSH1 0x20 PUSH1 0x1F DUP3 GT PUSH1 0x1 DUP2 EQ PUSH2 0x3A3 JUMPI PUSH0 DUP4 ISZERO PUSH2 0x38C JUMPI POP DUP5 DUP3 ADD MLOAD JUMPDEST PUSH0 NOT PUSH1 0x3 DUP6 SWAP1 SHL SHR NOT AND PUSH1 0x1 DUP5 SWAP1 SHL OR DUP5 SSTORE PUSH2 0x33C JUMP JUMPDEST PUSH0 DUP5 DUP2 MSTORE PUSH1 0x20 DUP2 KECCAK256 PUSH1 0x1F NOT DUP6 AND SWAP2 JUMPDEST DUP3 DUP2 LT ISZERO PUSH2 0x3D2 JUMPI DUP8 DUP6 ADD MLOAD DUP3 SSTORE PUSH1 0x20 SWAP5 DUP6 ADD SWAP5 PUSH1 0x1 SWAP1 SWAP3 ADD SWAP2 ADD PUSH2 0x3B2 JUMP JUMPDEST POP DUP5 DUP3 LT ISZERO PUSH2 0x3EF JUMPI DUP7 DUP5 ADD MLOAD PUSH0 NOT PUSH1 0x3 DUP8 SWAP1 SHL PUSH1 0xF8 AND SHR NOT AND DUP2 SSTORE JUMPDEST POP POP POP POP PUSH1 0x1 SWAP1 DUP2 SHL ADD SWAP1 SSTORE POP JUMP JUMPDEST PUSH1 0x20 DUP2 MSTORE PUSH0 DUP3 MLOAD DUP1 PUSH1 0x20 DUP5 ADD MSTORE DUP1 PUSH1 0x20 DUP6 ADD PUSH1 0x40 DUP6 ADD MCOPY PUSH0 PUSH1 0x40 DUP3 DUP6 ADD ADD MSTORE PUSH1 0x40 PUSH1 0x1F NOT PUSH1 0x1F DUP4 ADD AND DUP5 ADD ADD SWAP2 POP POP SWAP3 SWAP2 POP POP JUMP JUMPDEST DUP1 MLOAD PUSH1 0x20 DUP1 DUP4 ADD MLOAD SWAP2 SWAP1 DUP2 LT ISZERO PUSH2 0x2F2 JUMPI PUSH0 NOT PUSH1 0x20 SWAP2 SWAP1 SWAP2 SUB PUSH1 0x3 SHL SHL AND SWAP2 SWAP1 POP JUMP JUMPDEST PUSH1 0x80 MLOAD PUSH1 0xA0 MLOAD PUSH1 0xC0 MLOAD PUSH1 0xE0 MLOAD PUSH2 0x100 MLOAD PUSH2 0x120 MLOAD PUSH2 0x140 MLOAD PUSH2 0x2A83 PUSH2 0x4A7 PUSH0 CODECOPY PUSH0 PUSH2 0x1522 ADD MSTORE PUSH0 PUSH2 0x14F5 ADD MSTORE PUSH0 PUSH2 0x1017 ADD MSTORE PUSH0 PUSH2 0xFEF ADD MSTORE PUSH0 PUSH2 0xF4A ADD MSTORE PUSH0 PUSH2 0xF74 ADD MSTORE PUSH0 PUSH2 0xF9E ADD MSTORE PUSH2 0x2A83 PUSH0 RETURN INVALID PUSH1 0x80 PUSH1 0x40 MSTORE CALLVALUE DUP1 ISZERO PUSH2 0xF JUMPI PUSH0 PUSH0 REVERT JUMPDEST POP PUSH1 0x4 CALLDATASIZE LT PUSH2 0x255 JUMPI PUSH0 CALLDATALOAD PUSH1 0xE0 SHR DUP1 PUSH4 0x70A08231 GT PUSH2 0x140 JUMPI DUP1 PUSH4 0x9AB24EB0 GT PUSH2 0xBF JUMPI DUP1 PUSH4 0xD505ACCF GT PUSH2 0x84 JUMPI DUP1 PUSH4 0xD505ACCF EQ PUSH2 0x540 JUMPI DUP1 PUSH4 0xD8FBE994 EQ PUSH2 0x553 JUMPI DUP1 PUSH4 0xD9D98CE4 EQ PUSH2 0x566 JUMPI DUP1 PUSH4 0xDD62ED3E EQ PUSH2 0x579 JUMPI DUP1 PUSH4 0xF1127ED8 EQ PUSH2 0x5B1 JUMPI DUP1 PUSH4 0xF2FDE38B EQ PUSH2 0x5F0 JUMPI PUSH0 PUSH0 REVERT JUMPDEST DUP1 PUSH4 0x9AB24EB0 EQ PUSH2 0x4E1 JUMPI DUP1 PUSH4 0xA9059CBB EQ PUSH2 0x4F4 JUMPI DUP1 PUSH4 0xC1D34B89 EQ PUSH2 0x507 JUMPI DUP1 PUSH4 0xC3CDA520 EQ PUSH2 0x51A JUMPI DUP1 PUSH4 0xCAE9CA51 EQ PUSH2 0x52D JUMPI PUSH0 PUSH0 REVERT JUMPDEST DUP1 PUSH4 0x84B0196E GT PUSH2 0x105 JUMPI DUP1 PUSH4 0x84B0196E EQ PUSH2 0x476 JUMPI DUP1 PUSH4 0x8DA5CB5B EQ PUSH2 0x491 JUMPI DUP1 PUSH4 0x8E539E8C EQ PUSH2 0x4A7 JUMPI DUP1 PUSH4 0x91DDADF4 EQ PUSH2 0x4BA JUMPI DUP1 PUSH4 0x95D89B41 EQ PUSH2 0x4D9 JUMPI PUSH0 PUSH0 REVERT JUMPDEST DUP1 PUSH4 0x70A08231 EQ PUSH2 0x418 JUMPI DUP1 PUSH4 0x715018A6 EQ PUSH2 0x440 JUMPI DUP1 PUSH4 0x79CC6790 EQ PUSH2 0x448 JUMPI DUP1 PUSH4 0x7ECEBE00 EQ PUSH2 0x45B JUMPI DUP1 PUSH4 0x8456CB59 EQ PUSH2 0x46E JUMPI PUSH0 PUSH0 REVERT JUMPDEST DUP1 PUSH4 0x3F4BA83A GT PUSH2 0x1D7 JUMPI DUP1 PUSH4 0x587CDE1E GT PUSH2 0x19C JUMPI DUP1 PUSH4 0x587CDE1E EQ PUSH2 0x369 JUMPI DUP1 PUSH4 0x5C19A95C EQ PUSH2 0x3AC JUMPI DUP1 PUSH4 0x5C975ABB EQ PUSH2 0x3BF JUMPI DUP1 PUSH4 0x5CFFE9DE EQ PUSH2 0x3CA JUMPI DUP1 PUSH4 0x613255AB EQ PUSH2 0x3DD JUMPI DUP1 PUSH4 0x6FCFFF45 EQ PUSH2 0x3F0 JUMPI PUSH0 PUSH0 REVERT JUMPDEST DUP1 PUSH4 0x3F4BA83A EQ PUSH2 0x31E JUMPI DUP1 PUSH4 0x4000AEA0 EQ PUSH2 0x328 JUMPI DUP1 PUSH4 0x40C10F19 EQ PUSH2 0x33B JUMPI DUP1 PUSH4 0x42966C68 EQ PUSH2 0x34E JUMPI DUP1 PUSH4 0x4BF5D7E9 EQ PUSH2 0x361 JUMPI PUSH0 PUSH0 REVERT JUMPDEST DUP1 PUSH4 0x23B872DD GT PUSH2 0x21D JUMPI DUP1 PUSH4 0x23B872DD EQ PUSH2 0x2CE JUMPI DUP1 PUSH4 0x313CE567 EQ PUSH2 0x2E1 JUMPI DUP1 PUSH4 0x3177029F EQ PUSH2 0x2F0 JUMPI DUP1 PUSH4 0x3644E515 EQ PUSH2 0x303 JUMPI DUP1 PUSH4 0x3A46B1A8 EQ PUSH2 0x30B JUMPI PUSH0 PUSH0 REVERT JUMPDEST DUP1 PUSH4 0x1FFC9A7 EQ PUSH2 0x259 JUMPI DUP1 PUSH4 0x6FDDE03 EQ PUSH2 0x281 JUMPI DUP1 PUSH4 0x95EA7B3 EQ PUSH2 0x296 JUMPI DUP1 PUSH4 0x1296EE62 EQ PUSH2 0x2A9 JUMPI DUP1 PUSH4 0x18160DDD EQ PUSH2 0x2BC JUMPI JUMPDEST PUSH0 PUSH0 REVERT JUMPDEST PUSH2 0x26C PUSH2 0x267 CALLDATASIZE PUSH1 0x4 PUSH2 0x2379 JUMP JUMPDEST PUSH2 0x603 JUMP JUMPDEST PUSH1 0x40 MLOAD SWAP1 ISZERO ISZERO DUP2 MSTORE PUSH1 0x20 ADD JUMPDEST PUSH1 0x40 MLOAD DUP1 SWAP2 SUB SWAP1 RETURN JUMPDEST PUSH2 0x289 PUSH2 0x639 JUMP JUMPDEST PUSH1 0x40 MLOAD PUSH2 0x278 SWAP2 SWAP1 PUSH2 0x23C2 JUMP JUMPDEST PUSH2 0x26C PUSH2 0x2A4 CALLDATASIZE PUSH1 0x4 PUSH2 0x23E8 JUMP JUMPDEST PUSH2 0x6C9 JUMP JUMPDEST PUSH2 0x26C PUSH2 0x2B7 CALLDATASIZE PUSH1 0x4 PUSH2 0x23E8 JUMP JUMPDEST PUSH2 0x6E0 JUMP JUMPDEST PUSH1 0x2 SLOAD JUMPDEST PUSH1 0x40 MLOAD SWAP1 DUP2 MSTORE PUSH1 0x20 ADD PUSH2 0x278 JUMP JUMPDEST PUSH2 0x26C PUSH2 0x2DC CALLDATASIZE PUSH1 0x4 PUSH2 0x2412 JUMP JUMPDEST PUSH2 0x701 JUMP JUMPDEST PUSH1 0x40 MLOAD PUSH1 0x12 DUP2 MSTORE PUSH1 0x20 ADD PUSH2 0x278 JUMP JUMPDEST PUSH2 0x26C PUSH2 0x2FE CALLDATASIZE PUSH1 0x4 PUSH2 0x23E8 JUMP JUMPDEST PUSH2 0x724 JUMP JUMPDEST PUSH2 0x2C0 PUSH2 0x73E JUMP JUMPDEST PUSH2 0x2C0 PUSH2 0x319 CALLDATASIZE PUSH1 0x4 PUSH2 0x23E8 JUMP JUMPDEST PUSH2 0x74C JUMP JUMPDEST PUSH2 0x326 PUSH2 0x786 JUMP JUMPDEST STOP JUMPDEST PUSH2 0x26C PUSH2 0x336 CALLDATASIZE PUSH1 0x4 PUSH2 0x24EF JUMP JUMPDEST PUSH2 0x798 JUMP JUMPDEST PUSH2 0x326 PUSH2 0x349 CALLDATASIZE PUSH1 0x4 PUSH2 0x23E8 JUMP JUMPDEST PUSH2 0x7E4 JUMP JUMPDEST PUSH2 0x326 PUSH2 0x35C CALLDATASIZE PUSH1 0x4 PUSH2 0x2544 JUMP JUMPDEST PUSH2 0x7FA JUMP JUMPDEST PUSH2 0x289 PUSH2 0x807 JUMP JUMPDEST PUSH2 0x394 PUSH2 0x377 CALLDATASIZE PUSH1 0x4 PUSH2 0x255B JUMP JUMPDEST PUSH1 0x1 PUSH1 0x1 PUSH1 0xA0 SHL SUB SWAP1 DUP2 AND PUSH0 SWAP1 DUP2 MSTORE PUSH1 0x9 PUSH1 0x20 MSTORE PUSH1 0x40 SWAP1 KECCAK256 SLOAD AND SWAP1 JUMP JUMPDEST PUSH1 0x40 MLOAD PUSH1 0x1 PUSH1 0x1 PUSH1 0xA0 SHL SUB SWAP1 SWAP2 AND DUP2 MSTORE PUSH1 0x20 ADD PUSH2 0x278 JUMP JUMPDEST PUSH2 0x326 PUSH2 0x3BA CALLDATASIZE PUSH1 0x4 PUSH2 0x255B JUMP JUMPDEST PUSH2 0x87F JUMP JUMPDEST PUSH1 0x5 SLOAD PUSH1 0xFF AND PUSH2 0x26C JUMP JUMPDEST PUSH2 0x26C PUSH2 0x3D8 CALLDATASIZE PUSH1 0x4 PUSH2 0x2576 JUMP JUMPDEST PUSH2 0x88A JUMP JUMPDEST PUSH2 0x2C0 PUSH2 0x3EB CALLDATASIZE PUSH1 0x4 PUSH2 0x255B JUMP JUMPDEST PUSH2 0x9FC JUMP JUMPDEST PUSH2 0x403 PUSH2 0x3FE CALLDATASIZE PUSH1 0x4 PUSH2 0x255B JUMP JUMPDEST PUSH2 0xA21 JUMP JUMPDEST PUSH1 0x40 MLOAD PUSH4 0xFFFFFFFF SWAP1 SWAP2 AND DUP2 MSTORE PUSH1 0x20 ADD PUSH2 0x278 JUMP JUMPDEST PUSH2 0x2C0 PUSH2 0x426 CALLDATASIZE PUSH1 0x4 PUSH2 0x255B JUMP JUMPDEST PUSH1 0x1 PUSH1 0x1 PUSH1 0xA0 SHL SUB AND PUSH0 SWAP1 DUP2 MSTORE PUSH1 0x20 DUP2 SWAP1 MSTORE PUSH1 0x40 SWAP1 KECCAK256 SLOAD SWAP1 JUMP JUMPDEST PUSH2 0x326 PUSH2 0xA2B JUMP JUMPDEST PUSH2 0x326 PUSH2 0x456 CALLDATASIZE PUSH1 0x4 PUSH2 0x23E8 JUMP JUMPDEST PUSH2 0xA3C JUMP JUMPDEST PUSH2 0x2C0 PUSH2 0x469 CALLDATASIZE PUSH1 0x4 PUSH2 0x255B JUMP JUMPDEST PUSH2 0xA51 JUMP JUMPDEST PUSH2 0x326 PUSH2 0xA5B JUMP JUMPDEST PUSH2 0x47E PUSH2 0xA6B JUMP JUMPDEST PUSH1 0x40 MLOAD PUSH2 0x278 SWAP8 SWAP7 SWAP6 SWAP5 SWAP4 SWAP3 SWAP2 SWAP1 PUSH2 0x260F JUMP JUMPDEST PUSH1 0x5 SLOAD PUSH2 0x100 SWAP1 DIV PUSH1 0x1 PUSH1 0x1 PUSH1 0xA0 SHL SUB AND PUSH2 0x394 JUMP JUMPDEST PUSH2 0x2C0 PUSH2 0x4B5 CALLDATASIZE PUSH1 0x4 PUSH2 0x2544 JUMP JUMPDEST PUSH2 0xAAD JUMP JUMPDEST PUSH2 0x4C2 PUSH2 0xAD1 JUMP JUMPDEST PUSH1 0x40 MLOAD PUSH6 0xFFFFFFFFFFFF SWAP1 SWAP2 AND DUP2 MSTORE PUSH1 0x20 ADD PUSH2 0x278 JUMP JUMPDEST PUSH2 0x289 PUSH2 0xADA JUMP JUMPDEST PUSH2 0x2C0 PUSH2 0x4EF CALLDATASIZE PUSH1 0x4 PUSH2 0x255B JUMP JUMPDEST PUSH2 0xAE9 JUMP JUMPDEST PUSH2 0x26C PUSH2 0x502 CALLDATASIZE PUSH1 0x4 PUSH2 0x23E8 JUMP JUMPDEST PUSH2 0xB09 JUMP JUMPDEST PUSH2 0x26C PUSH2 0x515 CALLDATASIZE PUSH1 0x4 PUSH2 0x26A5 JUMP JUMPDEST PUSH2 0xB16 JUMP JUMPDEST PUSH2 0x326 PUSH2 0x528 CALLDATASIZE PUSH1 0x4 PUSH2 0x2722 JUMP JUMPDEST PUSH2 0xB66 JUMP JUMPDEST PUSH2 0x26C PUSH2 0x53B CALLDATASIZE PUSH1 0x4 PUSH2 0x24EF JUMP JUMPDEST PUSH2 0xC22 JUMP JUMPDEST PUSH2 0x326 PUSH2 0x54E CALLDATASIZE PUSH1 0x4 PUSH2 0x2778 JUMP JUMPDEST PUSH2 0xC68 JUMP JUMPDEST PUSH2 0x26C PUSH2 0x561 CALLDATASIZE PUSH1 0x4 PUSH2 0x2412 JUMP JUMPDEST PUSH2 0xD9E JUMP JUMPDEST PUSH2 0x2C0 PUSH2 0x574 CALLDATASIZE PUSH1 0x4 PUSH2 0x23E8 JUMP JUMPDEST PUSH2 0xDC1 JUMP JUMPDEST PUSH2 0x2C0 PUSH2 0x587 CALLDATASIZE PUSH1 0x4 PUSH2 0x27E2 JUMP JUMPDEST PUSH1 0x1 PUSH1 0x1 PUSH1 0xA0 SHL SUB SWAP2 DUP3 AND PUSH0 SWAP1 DUP2 MSTORE PUSH1 0x1 PUSH1 0x20 SWAP1 DUP2 MSTORE PUSH1 0x40 DUP1 DUP4 KECCAK256 SWAP4 SWAP1 SWAP5 AND DUP3 MSTORE SWAP2 SWAP1 SWAP2 MSTORE KECCAK256 SLOAD SWAP1 JUMP JUMPDEST PUSH2 0x5C4 PUSH2 0x5BF CALLDATASIZE PUSH1 0x4 PUSH2 0x2819 JUMP JUMPDEST PUSH2 0xDFC JUMP JUMPDEST PUSH1 0x40 DUP1 MLOAD DUP3 MLOAD PUSH6 0xFFFFFFFFFFFF AND DUP2 MSTORE PUSH1 0x20 SWAP3 DUP4 ADD MLOAD PUSH1 0x1 PUSH1 0x1 PUSH1 0xD0 SHL SUB AND SWAP3 DUP2 ADD SWAP3 SWAP1 SWAP3 MSTORE ADD PUSH2 0x278 JUMP JUMPDEST PUSH2 0x326 PUSH2 0x5FE CALLDATASIZE PUSH1 0x4 PUSH2 0x255B JUMP JUMPDEST PUSH2 0xE19 JUMP JUMPDEST PUSH0 PUSH1 0x1 PUSH1 0x1 PUSH1 0xE0 SHL SUB NOT DUP3 AND PUSH4 0xB0202A11 PUSH1 0xE0 SHL EQ DUP1 PUSH2 0x633 JUMPI POP PUSH4 0x1FFC9A7 PUSH1 0xE0 SHL PUSH1 0x1 PUSH1 0x1 PUSH1 0xE0 SHL SUB NOT DUP4 AND EQ JUMPDEST SWAP3 SWAP2 POP POP JUMP JUMPDEST PUSH1 0x60 PUSH1 0x3 DUP1 SLOAD PUSH2 0x648 SWAP1 PUSH2 0x284D JUMP JUMPDEST DUP1 PUSH1 0x1F ADD PUSH1 0x20 DUP1 SWAP2 DIV MUL PUSH1 0x20 ADD PUSH1 0x40 MLOAD SWAP1 DUP2 ADD PUSH1 0x40 MSTORE DUP1 SWAP3 SWAP2 SWAP1 DUP2 DUP2 MSTORE PUSH1 0x20 ADD DUP3 DUP1 SLOAD PUSH2 0x674 SWAP1 PUSH2 0x284D JUMP JUMPDEST DUP1 ISZERO PUSH2 0x6BF JUMPI DUP1 PUSH1 0x1F LT PUSH2 0x696 JUMPI PUSH2 0x100 DUP1 DUP4 SLOAD DIV MUL DUP4 MSTORE SWAP2 PUSH1 0x20 ADD SWAP2 PUSH2 0x6BF JUMP JUMPDEST DUP3 ADD SWAP2 SWAP1 PUSH0 MSTORE PUSH1 0x20 PUSH0 KECCAK256 SWAP1 JUMPDEST DUP2 SLOAD DUP2 MSTORE SWAP1 PUSH1 0x1 ADD SWAP1 PUSH1 0x20 ADD DUP1 DUP4 GT PUSH2 0x6A2 JUMPI DUP3 SWAP1 SUB PUSH1 0x1F AND DUP3 ADD SWAP2 JUMPDEST POP POP POP POP POP SWAP1 POP SWAP1 JUMP JUMPDEST PUSH0 CALLER PUSH2 0x6D6 DUP2 DUP6 DUP6 PUSH2 0xE53 JUMP JUMPDEST POP PUSH1 0x1 SWAP4 SWAP3 POP POP POP JUMP JUMPDEST PUSH0 PUSH2 0x6FA DUP4 DUP4 PUSH1 0x40 MLOAD DUP1 PUSH1 0x20 ADD PUSH1 0x40 MSTORE DUP1 PUSH0 DUP2 MSTORE POP PUSH2 0x798 JUMP JUMPDEST SWAP4 SWAP3 POP POP POP JUMP JUMPDEST PUSH0 CALLER PUSH2 0x70E DUP6 DUP3 DUP6 PUSH2 0xE65 JUMP JUMPDEST PUSH2 0x719 DUP6 DUP6 DUP6 PUSH2 0xEE1 JUMP JUMPDEST POP PUSH1 0x1 SWAP5 SWAP4 POP POP POP POP JUMP JUMPDEST PUSH0 PUSH2 0x6FA DUP4 DUP4 PUSH1 0x40 MLOAD DUP1 PUSH1 0x20 ADD PUSH1 0x40 MSTORE DUP1 PUSH0 DUP2 MSTORE POP PUSH2 0xC22 JUMP JUMPDEST PUSH0 PUSH2 0x747 PUSH2 0xF3E JUMP JUMPDEST SWAP1 POP SWAP1 JUMP JUMPDEST PUSH0 PUSH2 0x776 PUSH2 0x759 DUP4 PUSH2 0x1067 JUMP JUMPDEST PUSH1 0x1 PUSH1 0x1 PUSH1 0xA0 SHL SUB DUP6 AND PUSH0 SWAP1 DUP2 MSTORE PUSH1 0xA PUSH1 0x20 MSTORE PUSH1 0x40 SWAP1 KECCAK256 SWAP1 PUSH2 0x10B5 JUMP JUMPDEST PUSH1 0x1 PUSH1 0x1 PUSH1 0xD0 SHL SUB AND SWAP4 SWAP3 POP POP POP JUMP JUMPDEST PUSH2 0x78E PUSH2 0x1165 JUMP JUMPDEST PUSH2 0x796 PUSH2 0x1198 JUMP JUMPDEST JUMP JUMPDEST PUSH0 PUSH2 0x7A3 DUP5 DUP5 PUSH2 0xB09 JUMP JUMPDEST PUSH2 0x7D7 JUMPI PUSH1 0x40 MLOAD PUSH4 0x118D81D7 PUSH1 0xE1 SHL DUP2 MSTORE PUSH1 0x1 PUSH1 0x1 PUSH1 0xA0 SHL SUB DUP6 AND PUSH1 0x4 DUP3 ADD MSTORE PUSH1 0x24 DUP2 ADD DUP5 SWAP1 MSTORE PUSH1 0x44 ADD JUMPDEST PUSH1 0x40 MLOAD DUP1 SWAP2 SUB SWAP1 REVERT JUMPDEST PUSH2 0x6D6 CALLER CALLER DUP7 DUP7 DUP7 PUSH2 0x11EA JUMP JUMPDEST PUSH2 0x7EC PUSH2 0x1165 JUMP JUMPDEST PUSH2 0x7F6 DUP3 DUP3 PUSH2 0x1337 JUMP JUMPDEST POP POP JUMP JUMPDEST PUSH2 0x804 CALLER DUP3 PUSH2 0x136B JUMP JUMPDEST POP JUMP JUMPDEST PUSH1 0x60 PUSH2 0x811 PUSH2 0x139F JUMP JUMPDEST PUSH6 0xFFFFFFFFFFFF AND PUSH2 0x821 PUSH2 0xAD1 JUMP JUMPDEST PUSH6 0xFFFFFFFFFFFF AND EQ PUSH2 0x847 JUMPI PUSH1 0x40 MLOAD PUSH4 0x1BFC1C5 PUSH1 0xE6 SHL DUP2 MSTORE PUSH1 0x4 ADD PUSH1 0x40 MLOAD DUP1 SWAP2 SUB SWAP1 REVERT JUMPDEST POP PUSH1 0x40 DUP1 MLOAD DUP1 DUP3 ADD SWAP1 SWAP2 MSTORE PUSH1 0x1D DUP2 MSTORE PUSH32 0x6D6F64653D626C6F636B6E756D6265722666726F6D3D64656661756C74000000 PUSH1 0x20 DUP3 ADD MSTORE SWAP1 JUMP JUMPDEST CALLER PUSH2 0x7F6 DUP2 DUP4 PUSH2 0x13A9 JUMP JUMPDEST PUSH0 PUSH0 PUSH2 0x895 DUP7 PUSH2 0x9FC JUMP JUMPDEST SWAP1 POP DUP1 DUP6 GT ISZERO PUSH2 0x8BB JUMPI PUSH1 0x40 MLOAD PUSH4 0xFD9A7609 PUSH1 0xE0 SHL DUP2 MSTORE PUSH1 0x4 DUP2 ADD DUP3 SWAP1 MSTORE PUSH1 0x24 ADD PUSH2 0x7CE JUMP JUMPDEST PUSH0 PUSH2 0x8C6 DUP8 DUP8 PUSH2 0xDC1 JUMP JUMPDEST SWAP1 POP PUSH2 0x8D2 DUP9 DUP8 PUSH2 0x1337 JUMP JUMPDEST PUSH1 0x40 MLOAD PUSH4 0x23E30C8B PUSH1 0xE0 SHL DUP2 MSTORE PUSH32 0x439148F0BBC682CA079E46D6E2C2F0C1E3B820F1A291B069D8882ABF8CF18DD9 SWAP1 PUSH1 0x1 PUSH1 0x1 PUSH1 0xA0 SHL SUB DUP11 AND SWAP1 PUSH4 0x23E30C8B SWAP1 PUSH2 0x92A SWAP1 CALLER SWAP1 DUP13 SWAP1 DUP13 SWAP1 DUP9 SWAP1 DUP14 SWAP1 DUP14 SWAP1 PUSH1 0x4 ADD PUSH2 0x2885 JUMP JUMPDEST PUSH1 0x20 PUSH1 0x40 MLOAD DUP1 DUP4 SUB DUP2 PUSH0 DUP8 GAS CALL ISZERO DUP1 ISZERO PUSH2 0x946 JUMPI RETURNDATASIZE PUSH0 PUSH0 RETURNDATACOPY RETURNDATASIZE PUSH0 REVERT JUMPDEST POP POP POP POP PUSH1 0x40 MLOAD RETURNDATASIZE PUSH1 0x1F NOT PUSH1 0x1F DUP3 ADD AND DUP3 ADD DUP1 PUSH1 0x40 MSTORE POP DUP2 ADD SWAP1 PUSH2 0x96A SWAP2 SWAP1 PUSH2 0x28DD JUMP JUMPDEST EQ PUSH2 0x992 JUMPI PUSH1 0x40 MLOAD PUSH3 0x678C5B PUSH1 0xE8 SHL DUP2 MSTORE PUSH1 0x1 PUSH1 0x1 PUSH1 0xA0 SHL SUB DUP10 AND PUSH1 0x4 DUP3 ADD MSTORE PUSH1 0x24 ADD PUSH2 0x7CE JUMP JUMPDEST PUSH0 PUSH2 0x9A7 DUP10 ADDRESS PUSH2 0x9A2 DUP6 DUP12 PUSH2 0x2908 JUMP JUMPDEST PUSH2 0xE65 JUMP JUMPDEST DUP2 ISZERO DUP1 PUSH2 0x9BB JUMPI POP PUSH1 0x1 PUSH1 0x1 PUSH1 0xA0 SHL SUB DUP2 AND ISZERO JUMPDEST ISZERO PUSH2 0x9D8 JUMPI PUSH2 0x9D3 DUP10 PUSH2 0x9CE DUP5 DUP11 PUSH2 0x2908 JUMP JUMPDEST PUSH2 0x136B JUMP JUMPDEST PUSH2 0x9ED JUMP JUMPDEST PUSH2 0x9E2 DUP10 DUP9 PUSH2 0x136B JUMP JUMPDEST PUSH2 0x9ED DUP10 DUP3 DUP5 PUSH2 0xEE1 JUMP JUMPDEST POP PUSH1 0x1 SWAP9 SWAP8 POP POP POP POP POP POP POP POP JUMP JUMPDEST PUSH0 PUSH1 0x1 PUSH1 0x1 PUSH1 0xA0 SHL SUB DUP3 AND ADDRESS EQ PUSH2 0xA13 JUMPI PUSH0 PUSH2 0x633 JUMP JUMPDEST PUSH1 0x2 SLOAD PUSH2 0x633 SWAP1 PUSH0 NOT PUSH2 0x291B JUMP JUMPDEST PUSH0 PUSH2 0x633 DUP3 PUSH2 0x141A JUMP JUMPDEST PUSH2 0xA33 PUSH2 0x1165 JUMP JUMPDEST PUSH2 0x796 PUSH0 PUSH2 0x143B JUMP JUMPDEST PUSH2 0xA47 DUP3 CALLER DUP4 PUSH2 0xE65 JUMP JUMPDEST PUSH2 0x7F6 DUP3 DUP3 PUSH2 0x136B JUMP JUMPDEST PUSH0 PUSH2 0x633 DUP3 PUSH2 0x1494 JUMP JUMPDEST PUSH2 0xA63 PUSH2 0x1165 JUMP JUMPDEST PUSH2 0x796 PUSH2 0x14B1 JUMP JUMPDEST PUSH0 PUSH1 0x60 DUP1 PUSH0 PUSH0 PUSH0 PUSH1 0x60 PUSH2 0xA7C PUSH2 0x14EE JUMP JUMPDEST PUSH2 0xA84 PUSH2 0x151B JUMP JUMPDEST PUSH1 0x40 DUP1 MLOAD PUSH0 DUP1 DUP3 MSTORE PUSH1 0x20 DUP3 ADD SWAP1 SWAP3 MSTORE PUSH1 0xF PUSH1 0xF8 SHL SWAP12 SWAP4 SWAP11 POP SWAP2 SWAP9 POP CHAINID SWAP8 POP ADDRESS SWAP7 POP SWAP5 POP SWAP3 POP SWAP1 POP JUMP JUMPDEST PUSH0 PUSH2 0xAC2 PUSH2 0xABA DUP4 PUSH2 0x1067 JUMP JUMPDEST PUSH1 0xB SWAP1 PUSH2 0x10B5 JUMP JUMPDEST PUSH1 0x1 PUSH1 0x1 PUSH1 0xD0 SHL SUB AND SWAP3 SWAP2 POP POP JUMP JUMPDEST PUSH0 PUSH2 0x747 PUSH2 0x139F JUMP JUMPDEST PUSH1 0x60 PUSH1 0x4 DUP1 SLOAD PUSH2 0x648 SWAP1 PUSH2 0x284D JUMP JUMPDEST PUSH1 0x1 PUSH1 0x1 PUSH1 0xA0 SHL SUB DUP2 AND PUSH0 SWAP1 DUP2 MSTORE PUSH1 0xA PUSH1 0x20 MSTORE PUSH1 0x40 DUP2 KECCAK256 PUSH2 0xAC2 SWAP1 PUSH2 0x1548 JUMP JUMPDEST PUSH0 CALLER PUSH2 0x6D6 DUP2 DUP6 DUP6 PUSH2 0xEE1 JUMP JUMPDEST PUSH0 PUSH2 0xB22 DUP6 DUP6 DUP6 PUSH2 0x701 JUMP JUMPDEST PUSH2 0xB59 JUMPI PUSH1 0x40 MLOAD PUSH4 0x5AB42AF3 PUSH1 0xE1 SHL DUP2 MSTORE PUSH1 0x1 PUSH1 0x1 PUSH1 0xA0 SHL SUB DUP1 DUP8 AND PUSH1 0x4 DUP4 ADD MSTORE DUP6 AND PUSH1 0x24 DUP3 ADD MSTORE PUSH1 0x44 DUP2 ADD DUP5 SWAP1 MSTORE PUSH1 0x64 ADD PUSH2 0x7CE JUMP JUMPDEST PUSH2 0x719 CALLER DUP7 DUP7 DUP7 DUP7 PUSH2 0x11EA JUMP JUMPDEST DUP4 TIMESTAMP GT ISZERO PUSH2 0xB8A JUMPI PUSH1 0x40 MLOAD PUSH4 0x2341D787 PUSH1 0xE1 SHL DUP2 MSTORE PUSH1 0x4 DUP2 ADD DUP6 SWAP1 MSTORE PUSH1 0x24 ADD PUSH2 0x7CE JUMP JUMPDEST PUSH1 0x40 DUP1 MLOAD PUSH32 0xE48329057BFD03D55E49B547132E39CFFD9C1820AD7B9D4C5307691425D15ADF PUSH1 0x20 DUP3 ADD MSTORE PUSH1 0x1 PUSH1 0x1 PUSH1 0xA0 SHL SUB DUP9 AND SWAP2 DUP2 ADD SWAP2 SWAP1 SWAP2 MSTORE PUSH1 0x60 DUP2 ADD DUP7 SWAP1 MSTORE PUSH1 0x80 DUP2 ADD DUP6 SWAP1 MSTORE PUSH0 SWAP1 PUSH2 0xC03 SWAP1 PUSH2 0xBFB SWAP1 PUSH1 0xA0 ADD PUSH1 0x40 MLOAD PUSH1 0x20 DUP2 DUP4 SUB SUB DUP2 MSTORE SWAP1 PUSH1 0x40 MSTORE DUP1 MLOAD SWAP1 PUSH1 0x20 ADD KECCAK256 PUSH2 0x157F JUMP JUMPDEST DUP6 DUP6 DUP6 PUSH2 0x15AB JUMP JUMPDEST SWAP1 POP PUSH2 0xC0F DUP2 DUP8 PUSH2 0x15D7 JUMP JUMPDEST PUSH2 0xC19 DUP2 DUP9 PUSH2 0x13A9 JUMP JUMPDEST POP POP POP POP POP POP POP JUMP JUMPDEST PUSH0 PUSH2 0xC2D DUP5 DUP5 PUSH2 0x6C9 JUMP JUMPDEST PUSH2 0xC5C JUMPI PUSH1 0x40 MLOAD PUSH4 0x14395571 PUSH1 0xE2 SHL DUP2 MSTORE PUSH1 0x1 PUSH1 0x1 PUSH1 0xA0 SHL SUB DUP6 AND PUSH1 0x4 DUP3 ADD MSTORE PUSH1 0x24 DUP2 ADD DUP5 SWAP1 MSTORE PUSH1 0x44 ADD PUSH2 0x7CE JUMP JUMPDEST PUSH2 0x6D6 CALLER DUP6 DUP6 DUP6 PUSH2 0x1629 JUMP JUMPDEST DUP4 TIMESTAMP GT ISZERO PUSH2 0xC8C JUMPI PUSH1 0x40 MLOAD PUSH4 0x313C8981 PUSH1 0xE1 SHL DUP2 MSTORE PUSH1 0x4 DUP2 ADD DUP6 SWAP1 MSTORE PUSH1 0x24 ADD PUSH2 0x7CE JUMP JUMPDEST PUSH0 PUSH32 0x6E71EDAE12B1B97F4D1F60370FEF10105FA2FAAE0126114A169C64845D6126C9 DUP9 DUP9 DUP9 PUSH2 0xCD7 DUP13 PUSH1 0x1 PUSH1 0x1 PUSH1 0xA0 SHL SUB AND PUSH0 SWAP1 DUP2 MSTORE PUSH1 0x8 PUSH1 0x20 MSTORE PUSH1 0x40 SWAP1 KECCAK256 DUP1 SLOAD PUSH1 0x1 DUP2 ADD SWAP1 SWAP2 SSTORE SWAP1 JUMP JUMPDEST PUSH1 0x40 DUP1 MLOAD PUSH1 0x20 DUP2 ADD SWAP7 SWAP1 SWAP7 MSTORE PUSH1 0x1 PUSH1 0x1 PUSH1 0xA0 SHL SUB SWAP5 DUP6 AND SWAP1 DUP7 ADD MSTORE SWAP3 SWAP1 SWAP2 AND PUSH1 0x60 DUP5 ADD MSTORE PUSH1 0x80 DUP4 ADD MSTORE PUSH1 0xA0 DUP3 ADD MSTORE PUSH1 0xC0 DUP2 ADD DUP7 SWAP1 MSTORE PUSH1 0xE0 ADD PUSH1 0x40 MLOAD PUSH1 0x20 DUP2 DUP4 SUB SUB DUP2 MSTORE SWAP1 PUSH1 0x40 MSTORE DUP1 MLOAD SWAP1 PUSH1 0x20 ADD KECCAK256 SWAP1 POP PUSH0 PUSH2 0xD31 DUP3 PUSH2 0x157F JUMP JUMPDEST SWAP1 POP PUSH0 PUSH2 0xD40 DUP3 DUP8 DUP8 DUP8 PUSH2 0x15AB JUMP JUMPDEST SWAP1 POP DUP10 PUSH1 0x1 PUSH1 0x1 PUSH1 0xA0 SHL SUB AND DUP2 PUSH1 0x1 PUSH1 0x1 PUSH1 0xA0 SHL SUB AND EQ PUSH2 0xD87 JUMPI PUSH1 0x40 MLOAD PUSH4 0x25C00723 PUSH1 0xE1 SHL DUP2 MSTORE PUSH1 0x1 PUSH1 0x1 PUSH1 0xA0 SHL SUB DUP1 DUP4 AND PUSH1 0x4 DUP4 ADD MSTORE DUP12 AND PUSH1 0x24 DUP3 ADD MSTORE PUSH1 0x44 ADD PUSH2 0x7CE JUMP JUMPDEST PUSH2 0xD92 DUP11 DUP11 DUP11 PUSH2 0xE53 JUMP JUMPDEST POP POP POP POP POP POP POP POP POP POP JUMP JUMPDEST PUSH0 PUSH2 0xDB9 DUP5 DUP5 DUP5 PUSH1 0x40 MLOAD DUP1 PUSH1 0x20 ADD PUSH1 0x40 MSTORE DUP1 PUSH0 DUP2 MSTORE POP PUSH2 0xB16 JUMP JUMPDEST SWAP5 SWAP4 POP POP POP POP JUMP JUMPDEST PUSH0 PUSH1 0x1 PUSH1 0x1 PUSH1 0xA0 SHL SUB DUP4 AND ADDRESS EQ PUSH2 0xDF6 JUMPI PUSH1 0x40 MLOAD PUSH4 0x5AD3EDC9 PUSH1 0xE1 SHL DUP2 MSTORE PUSH1 0x1 PUSH1 0x1 PUSH1 0xA0 SHL SUB DUP5 AND PUSH1 0x4 DUP3 ADD MSTORE PUSH1 0x24 ADD PUSH2 0x7CE JUMP JUMPDEST PUSH0 PUSH2 0x6FA JUMP JUMPDEST PUSH1 0x40 DUP1 MLOAD DUP1 DUP3 ADD SWAP1 SWAP2 MSTORE PUSH0 DUP1 DUP3 MSTORE PUSH1 0x20 DUP3 ADD MSTORE PUSH2 0x6FA DUP4 DUP4 PUSH2 0x1763 JUMP JUMPDEST PUSH2 0xE21 PUSH2 0x1165 JUMP JUMPDEST PUSH1 0x1 PUSH1 0x1 PUSH1 0xA0 SHL SUB DUP2 AND PUSH2 0xE4A JUMPI PUSH1 0x40 MLOAD PUSH4 0x1E4FBDF7 PUSH1 0xE0 SHL DUP2 MSTORE PUSH0 PUSH1 0x4 DUP3 ADD MSTORE PUSH1 0x24 ADD PUSH2 0x7CE JUMP JUMPDEST PUSH2 0x804 DUP2 PUSH2 0x143B JUMP JUMPDEST PUSH2 0xE60 DUP4 DUP4 DUP4 PUSH1 0x1 PUSH2 0x1797 JUMP JUMPDEST POP POP POP JUMP JUMPDEST PUSH1 0x1 PUSH1 0x1 PUSH1 0xA0 SHL SUB DUP4 DUP2 AND PUSH0 SWAP1 DUP2 MSTORE PUSH1 0x1 PUSH1 0x20 SWAP1 DUP2 MSTORE PUSH1 0x40 DUP1 DUP4 KECCAK256 SWAP4 DUP7 AND DUP4 MSTORE SWAP3 SWAP1 MSTORE KECCAK256 SLOAD PUSH0 NOT DUP2 LT ISZERO PUSH2 0xEDB JUMPI DUP2 DUP2 LT ISZERO PUSH2 0xECD JUMPI PUSH1 0x40 MLOAD PUSH4 0x7DC7A0D9 PUSH1 0xE1 SHL DUP2 MSTORE PUSH1 0x1 PUSH1 0x1 PUSH1 0xA0 SHL SUB DUP5 AND PUSH1 0x4 DUP3 ADD MSTORE PUSH1 0x24 DUP2 ADD DUP3 SWAP1 MSTORE PUSH1 0x44 DUP2 ADD DUP4 SWAP1 MSTORE PUSH1 0x64 ADD PUSH2 0x7CE JUMP JUMPDEST PUSH2 0xEDB DUP5 DUP5 DUP5 DUP5 SUB PUSH0 PUSH2 0x1797 JUMP JUMPDEST POP POP POP POP JUMP JUMPDEST PUSH1 0x1 PUSH1 0x1 PUSH1 0xA0 SHL SUB DUP4 AND PUSH2 0xF0A JUMPI PUSH1 0x40 MLOAD PUSH4 0x4B637E8F PUSH1 0xE1 SHL DUP2 MSTORE PUSH0 PUSH1 0x4 DUP3 ADD MSTORE PUSH1 0x24 ADD PUSH2 0x7CE JUMP JUMPDEST PUSH1 0x1 PUSH1 0x1 PUSH1 0xA0 SHL SUB DUP3 AND PUSH2 0xF33 JUMPI PUSH1 0x40 MLOAD PUSH4 0xEC442F05 PUSH1 0xE0 SHL DUP2 MSTORE PUSH0 PUSH1 0x4 DUP3 ADD MSTORE PUSH1 0x24 ADD PUSH2 0x7CE JUMP JUMPDEST PUSH2 0xE60 DUP4 DUP4 DUP4 PUSH2 0x1869 JUMP JUMPDEST PUSH0 ADDRESS PUSH1 0x1 PUSH1 0x1 PUSH1 0xA0 SHL SUB PUSH32 0x0 AND EQ DUP1 ISZERO PUSH2 0xF96 JUMPI POP PUSH32 0x0 CHAINID EQ JUMPDEST ISZERO PUSH2 0xFC0 JUMPI POP PUSH32 0x0 SWAP1 JUMP JUMPDEST PUSH2 0x747 PUSH1 0x40 DUP1 MLOAD PUSH32 0x8B73C3C69BB8FE3D512ECC4CF759CC79239F7B179B0FFACAA9A75D522B39400F PUSH1 0x20 DUP3 ADD MSTORE PUSH32 0x0 SWAP2 DUP2 ADD SWAP2 SWAP1 SWAP2 MSTORE PUSH32 0x0 PUSH1 0x60 DUP3 ADD MSTORE CHAINID PUSH1 0x80 DUP3 ADD MSTORE ADDRESS PUSH1 0xA0 DUP3 ADD MSTORE PUSH0 SWAP1 PUSH1 0xC0 ADD PUSH1 0x40 MLOAD PUSH1 0x20 DUP2 DUP4 SUB SUB DUP2 MSTORE SWAP1 PUSH1 0x40 MSTORE DUP1 MLOAD SWAP1 PUSH1 0x20 ADD KECCAK256 SWAP1 POP SWAP1 JUMP JUMPDEST PUSH0 PUSH0 PUSH2 0x1071 PUSH2 0xAD1 JUMP JUMPDEST SWAP1 POP DUP1 PUSH6 0xFFFFFFFFFFFF AND DUP4 LT PUSH2 0x10AC JUMPI PUSH1 0x40 MLOAD PUSH4 0x7669FC0F PUSH1 0xE1 SHL DUP2 MSTORE PUSH1 0x4 DUP2 ADD DUP5 SWAP1 MSTORE PUSH6 0xFFFFFFFFFFFF DUP3 AND PUSH1 0x24 DUP3 ADD MSTORE PUSH1 0x44 ADD PUSH2 0x7CE JUMP JUMPDEST PUSH2 0x6FA DUP4 PUSH2 0x1874 JUMP JUMPDEST DUP2 SLOAD PUSH0 SWAP1 DUP2 DUP2 PUSH1 0x5 DUP2 GT ISZERO PUSH2 0x1111 JUMPI PUSH0 PUSH2 0x10CE DUP5 PUSH2 0x18AA JUMP JUMPDEST PUSH2 0x10D8 SWAP1 DUP6 PUSH2 0x291B JUMP JUMPDEST PUSH0 DUP9 DUP2 MSTORE PUSH1 0x20 SWAP1 KECCAK256 SWAP1 SWAP2 POP DUP2 ADD SLOAD PUSH6 0xFFFFFFFFFFFF SWAP1 DUP2 AND SWAP1 DUP8 AND LT ISZERO PUSH2 0x1101 JUMPI DUP1 SWAP2 POP PUSH2 0x110F JUMP JUMPDEST PUSH2 0x110C DUP2 PUSH1 0x1 PUSH2 0x2908 JUMP JUMPDEST SWAP3 POP JUMPDEST POP JUMPDEST PUSH0 PUSH2 0x111E DUP8 DUP8 DUP6 DUP6 PUSH2 0x1A02 JUMP JUMPDEST SWAP1 POP DUP1 ISZERO PUSH2 0x1158 JUMPI PUSH2 0x1142 DUP8 PUSH2 0x1135 PUSH1 0x1 DUP5 PUSH2 0x291B JUMP JUMPDEST PUSH0 SWAP2 DUP3 MSTORE PUSH1 0x20 SWAP1 SWAP2 KECCAK256 ADD SWAP1 JUMP JUMPDEST SLOAD PUSH1 0x1 PUSH1 0x30 SHL SWAP1 DIV PUSH1 0x1 PUSH1 0x1 PUSH1 0xD0 SHL SUB AND PUSH2 0x115A JUMP JUMPDEST PUSH0 JUMPDEST SWAP8 SWAP7 POP POP POP POP POP POP POP JUMP JUMPDEST PUSH1 0x5 SLOAD PUSH1 0x1 PUSH1 0x1 PUSH1 0xA0 SHL SUB PUSH2 0x100 SWAP1 SWAP2 DIV AND CALLER EQ PUSH2 0x796 JUMPI PUSH1 0x40 MLOAD PUSH4 0x118CDAA7 PUSH1 0xE0 SHL DUP2 MSTORE CALLER PUSH1 0x4 DUP3 ADD MSTORE PUSH1 0x24 ADD PUSH2 0x7CE JUMP JUMPDEST PUSH2 0x11A0 PUSH2 0x1A61 JUMP JUMPDEST PUSH1 0x5 DUP1 SLOAD PUSH1 0xFF NOT AND SWAP1 SSTORE PUSH32 0x5DB9EE0A495BF2E6FF9C91A7834C1BA4FDD244A5E8AA4E537BD38AEAE4B073AA CALLER JUMPDEST PUSH1 0x40 MLOAD PUSH1 0x1 PUSH1 0x1 PUSH1 0xA0 SHL SUB SWAP1 SWAP2 AND DUP2 MSTORE PUSH1 0x20 ADD PUSH1 0x40 MLOAD DUP1 SWAP2 SUB SWAP1 LOG1 JUMP JUMPDEST DUP3 PUSH1 0x1 PUSH1 0x1 PUSH1 0xA0 SHL SUB AND EXTCODESIZE PUSH0 SUB PUSH2 0x121F JUMPI PUSH1 0x40 MLOAD PUSH4 0x22A5B367 PUSH1 0xE2 SHL DUP2 MSTORE PUSH1 0x1 PUSH1 0x1 PUSH1 0xA0 SHL SUB DUP5 AND PUSH1 0x4 DUP3 ADD MSTORE PUSH1 0x24 ADD PUSH2 0x7CE JUMP JUMPDEST PUSH1 0x40 MLOAD PUSH4 0x2229F297 PUSH1 0xE2 SHL DUP2 MSTORE PUSH1 0x1 PUSH1 0x1 PUSH1 0xA0 SHL SUB DUP5 AND SWAP1 PUSH4 0x88A7CA5C SWAP1 PUSH2 0x1251 SWAP1 DUP9 SWAP1 DUP9 SWAP1 DUP8 SWAP1 DUP8 SWAP1 PUSH1 0x4 ADD PUSH2 0x292E JUMP JUMPDEST PUSH1 0x20 PUSH1 0x40 MLOAD DUP1 DUP4 SUB DUP2 PUSH0 DUP8 GAS CALL SWAP3 POP POP POP DUP1 ISZERO PUSH2 0x128B JUMPI POP PUSH1 0x40 DUP1 MLOAD PUSH1 0x1F RETURNDATASIZE SWAP1 DUP2 ADD PUSH1 0x1F NOT AND DUP3 ADD SWAP1 SWAP3 MSTORE PUSH2 0x1288 SWAP2 DUP2 ADD SWAP1 PUSH2 0x296A JUMP JUMPDEST PUSH1 0x1 JUMPDEST PUSH2 0x12F2 JUMPI RETURNDATASIZE DUP1 DUP1 ISZERO PUSH2 0x12B8 JUMPI PUSH1 0x40 MLOAD SWAP2 POP PUSH1 0x1F NOT PUSH1 0x3F RETURNDATASIZE ADD AND DUP3 ADD PUSH1 0x40 MSTORE RETURNDATASIZE DUP3 MSTORE RETURNDATASIZE PUSH0 PUSH1 0x20 DUP5 ADD RETURNDATACOPY PUSH2 0x12BD JUMP JUMPDEST PUSH1 0x60 SWAP2 POP JUMPDEST POP DUP1 MLOAD PUSH0 SUB PUSH2 0x12EA JUMPI PUSH1 0x40 MLOAD PUSH4 0x22A5B367 PUSH1 0xE2 SHL DUP2 MSTORE PUSH1 0x1 PUSH1 0x1 PUSH1 0xA0 SHL SUB DUP6 AND PUSH1 0x4 DUP3 ADD MSTORE PUSH1 0x24 ADD PUSH2 0x7CE JUMP JUMPDEST DUP1 MLOAD PUSH1 0x20 DUP3 ADD REVERT JUMPDEST PUSH1 0x1 PUSH1 0x1 PUSH1 0xE0 SHL SUB NOT DUP2 AND PUSH4 0x2229F297 PUSH1 0xE2 SHL EQ PUSH2 0x132E JUMPI PUSH1 0x40 MLOAD PUSH4 0x22A5B367 PUSH1 0xE2 SHL DUP2 MSTORE PUSH1 0x1 PUSH1 0x1 PUSH1 0xA0 SHL SUB DUP6 AND PUSH1 0x4 DUP3 ADD MSTORE PUSH1 0x24 ADD PUSH2 0x7CE JUMP JUMPDEST POP JUMPDEST POP POP POP POP POP JUMP JUMPDEST PUSH1 0x1 PUSH1 0x1 PUSH1 0xA0 SHL SUB DUP3 AND PUSH2 0x1360 JUMPI PUSH1 0x40 MLOAD PUSH4 0xEC442F05 PUSH1 0xE0 SHL DUP2 MSTORE PUSH0 PUSH1 0x4 DUP3 ADD MSTORE PUSH1 0x24 ADD PUSH2 0x7CE JUMP JUMPDEST PUSH2 0x7F6 PUSH0 DUP4 DUP4 PUSH2 0x1869 JUMP JUMPDEST PUSH1 0x1 PUSH1 0x1 PUSH1 0xA0 SHL SUB DUP3 AND PUSH2 0x1394 JUMPI PUSH1 0x40 MLOAD PUSH4 0x4B637E8F PUSH1 0xE1 SHL DUP2 MSTORE PUSH0 PUSH1 0x4 DUP3 ADD MSTORE PUSH1 0x24 ADD PUSH2 0x7CE JUMP JUMPDEST PUSH2 0x7F6 DUP3 PUSH0 DUP4 PUSH2 0x1869 JUMP JUMPDEST PUSH0 PUSH2 0x747 NUMBER PUSH2 0x1874 JUMP JUMPDEST PUSH1 0x1 PUSH1 0x1 PUSH1 0xA0 SHL SUB DUP3 DUP2 AND PUSH0 DUP2 DUP2 MSTORE PUSH1 0x9 PUSH1 0x20 MSTORE PUSH1 0x40 DUP1 DUP3 KECCAK256 DUP1 SLOAD DUP7 DUP7 AND PUSH1 0x1 PUSH1 0x1 PUSH1 0xA0 SHL SUB NOT DUP3 AND DUP2 OR SWAP1 SWAP3 SSTORE SWAP2 MLOAD SWAP2 SWAP1 SWAP5 AND SWAP4 SWAP3 DUP5 SWAP3 SWAP1 SWAP2 PUSH32 0x3134E8A2E6D97E929A7E54011EA5485D7D196DD5F0BA4D4EF95803E8E3FC257F SWAP2 SWAP1 LOG4 PUSH2 0xE60 DUP2 DUP4 PUSH2 0x1415 DUP7 PUSH2 0x1A84 JUMP JUMPDEST PUSH2 0x1AA1 JUMP JUMPDEST PUSH1 0x1 PUSH1 0x1 PUSH1 0xA0 SHL SUB DUP2 AND PUSH0 SWAP1 DUP2 MSTORE PUSH1 0xA PUSH1 0x20 MSTORE PUSH1 0x40 DUP2 KECCAK256 SLOAD PUSH2 0x633 SWAP1 PUSH2 0x1C0A JUMP JUMPDEST PUSH1 0x5 DUP1 SLOAD PUSH1 0x1 PUSH1 0x1 PUSH1 0xA0 SHL SUB DUP4 DUP2 AND PUSH2 0x100 DUP2 DUP2 MUL PUSH2 0x100 PUSH1 0x1 PUSH1 0xA8 SHL SUB NOT DUP6 AND OR SWAP1 SWAP5 SSTORE PUSH1 0x40 MLOAD SWAP4 SWAP1 SWAP3 DIV AND SWAP2 DUP3 SWAP1 PUSH32 0x8BE0079C531659141344CD1FD0A4F28419497F9722A3DAAFE3B4186F6B6457E0 SWAP1 PUSH0 SWAP1 LOG3 POP POP JUMP JUMPDEST PUSH1 0x1 PUSH1 0x1 PUSH1 0xA0 SHL SUB DUP2 AND PUSH0 SWAP1 DUP2 MSTORE PUSH1 0x8 PUSH1 0x20 MSTORE PUSH1 0x40 DUP2 KECCAK256 SLOAD PUSH2 0x633 JUMP JUMPDEST PUSH2 0x14B9 PUSH2 0x1C3A JUMP JUMPDEST PUSH1 0x5 DUP1 SLOAD PUSH1 0xFF NOT AND PUSH1 0x1 OR SWAP1 SSTORE PUSH32 0x62E78CEA01BEE320CD4E420270B5EA74000D11B0C9F74754EBDBFC544B05A258 PUSH2 0x11CD CALLER SWAP1 JUMP JUMPDEST PUSH1 0x60 PUSH2 0x747 PUSH32 0x0 PUSH1 0x6 PUSH2 0x1C5E JUMP JUMPDEST PUSH1 0x60 PUSH2 0x747 PUSH32 0x0 PUSH1 0x7 PUSH2 0x1C5E JUMP JUMPDEST DUP1 SLOAD PUSH0 SWAP1 DUP1 ISZERO PUSH2 0x1577 JUMPI PUSH2 0x1561 DUP4 PUSH2 0x1135 PUSH1 0x1 DUP5 PUSH2 0x291B JUMP JUMPDEST SLOAD PUSH1 0x1 PUSH1 0x30 SHL SWAP1 DIV PUSH1 0x1 PUSH1 0x1 PUSH1 0xD0 SHL SUB AND PUSH2 0x6FA JUMP JUMPDEST PUSH0 SWAP4 SWAP3 POP POP POP JUMP JUMPDEST PUSH0 PUSH2 0x633 PUSH2 0x158B PUSH2 0xF3E JUMP JUMPDEST DUP4 PUSH1 0x40 MLOAD PUSH2 0x1901 PUSH1 0xF0 SHL DUP2 MSTORE PUSH1 0x2 DUP2 ADD SWAP3 SWAP1 SWAP3 MSTORE PUSH1 0x22 DUP3 ADD MSTORE PUSH1 0x42 SWAP1 KECCAK256 SWAP1 JUMP JUMPDEST PUSH0 PUSH0 PUSH0 PUSH0 PUSH2 0x15BB DUP9 DUP9 DUP9 DUP9 PUSH2 0x1D07 JUMP JUMPDEST SWAP3 POP SWAP3 POP SWAP3 POP PUSH2 0x15CB DUP3 DUP3 PUSH2 0x1DCF JUMP JUMPDEST POP SWAP1 SWAP7 SWAP6 POP POP POP POP POP POP JUMP JUMPDEST PUSH1 0x1 PUSH1 0x1 PUSH1 0xA0 SHL SUB DUP3 AND PUSH0 SWAP1 DUP2 MSTORE PUSH1 0x8 PUSH1 0x20 MSTORE PUSH1 0x40 SWAP1 KECCAK256 DUP1 SLOAD PUSH1 0x1 DUP2 ADD SWAP1 SWAP2 SSTORE DUP2 DUP2 EQ PUSH2 0xE60 JUMPI PUSH1 0x40 MLOAD PUSH4 0x1D4B623 PUSH1 0xE6 SHL DUP2 MSTORE PUSH1 0x1 PUSH1 0x1 PUSH1 0xA0 SHL SUB DUP5 AND PUSH1 0x4 DUP3 ADD MSTORE PUSH1 0x24 DUP2 ADD DUP3 SWAP1 MSTORE PUSH1 0x44 ADD PUSH2 0x7CE JUMP JUMPDEST DUP3 PUSH1 0x1 PUSH1 0x1 PUSH1 0xA0 SHL SUB AND EXTCODESIZE PUSH0 SUB PUSH2 0x165E JUMPI PUSH1 0x40 MLOAD PUSH4 0xDEB6D3ED PUSH1 0xE0 SHL DUP2 MSTORE PUSH1 0x1 PUSH1 0x1 PUSH1 0xA0 SHL SUB DUP5 AND PUSH1 0x4 DUP3 ADD MSTORE PUSH1 0x24 ADD PUSH2 0x7CE JUMP JUMPDEST PUSH1 0x40 MLOAD PUSH4 0x7B04A2D PUSH1 0xE4 SHL DUP2 MSTORE PUSH1 0x1 PUSH1 0x1 PUSH1 0xA0 SHL SUB DUP5 AND SWAP1 PUSH4 0x7B04A2D0 SWAP1 PUSH2 0x168E SWAP1 DUP8 SWAP1 DUP7 SWAP1 DUP7 SWAP1 PUSH1 0x4 ADD PUSH2 0x2985 JUMP JUMPDEST PUSH1 0x20 PUSH1 0x40 MLOAD DUP1 DUP4 SUB DUP2 PUSH0 DUP8 GAS CALL SWAP3 POP POP POP DUP1 ISZERO PUSH2 0x16C8 JUMPI POP PUSH1 0x40 DUP1 MLOAD PUSH1 0x1F RETURNDATASIZE SWAP1 DUP2 ADD PUSH1 0x1F NOT AND DUP3 ADD SWAP1 SWAP3 MSTORE PUSH2 0x16C5 SWAP2 DUP2 ADD SWAP1 PUSH2 0x296A JUMP JUMPDEST PUSH1 0x1 JUMPDEST PUSH2 0x1727 JUMPI RETURNDATASIZE DUP1 DUP1 ISZERO PUSH2 0x16F5 JUMPI PUSH1 0x40 MLOAD SWAP2 POP PUSH1 0x1F NOT PUSH1 0x3F RETURNDATASIZE ADD AND DUP3 ADD PUSH1 0x40 MSTORE RETURNDATASIZE DUP3 MSTORE RETURNDATASIZE PUSH0 PUSH1 0x20 DUP5 ADD RETURNDATACOPY PUSH2 0x16FA JUMP JUMPDEST PUSH1 0x60 SWAP2 POP JUMPDEST POP DUP1 MLOAD PUSH0 SUB PUSH2 0x12EA JUMPI PUSH1 0x40 MLOAD PUSH4 0xDEB6D3ED PUSH1 0xE0 SHL DUP2 MSTORE PUSH1 0x1 PUSH1 0x1 PUSH1 0xA0 SHL SUB DUP6 AND PUSH1 0x4 DUP3 ADD MSTORE PUSH1 0x24 ADD PUSH2 0x7CE JUMP JUMPDEST PUSH1 0x1 PUSH1 0x1 PUSH1 0xE0 SHL SUB NOT DUP2 AND PUSH4 0x7B04A2D PUSH1 0xE4 SHL EQ PUSH2 0x1330 JUMPI PUSH1 0x40 MLOAD PUSH4 0xDEB6D3ED PUSH1 0xE0 SHL DUP2 MSTORE PUSH1 0x1 PUSH1 0x1 PUSH1 0xA0 SHL SUB DUP6 AND PUSH1 0x4 DUP3 ADD MSTORE PUSH1 0x24 ADD PUSH2 0x7CE JUMP JUMPDEST PUSH1 0x40 DUP1 MLOAD DUP1 DUP3 ADD SWAP1 SWAP2 MSTORE PUSH0 DUP1 DUP3 MSTORE PUSH1 0x20 DUP3 ADD MSTORE PUSH1 0x1 PUSH1 0x1 PUSH1 0xA0 SHL SUB DUP4 AND PUSH0 SWAP1 DUP2 MSTORE PUSH1 0xA PUSH1 0x20 MSTORE PUSH1 0x40 SWAP1 KECCAK256 PUSH2 0x6FA SWAP1 DUP4 PUSH2 0x1E87 JUMP JUMPDEST PUSH1 0x1 PUSH1 0x1 PUSH1 0xA0 SHL SUB DUP5 AND PUSH2 0x17C0 JUMPI PUSH1 0x40 MLOAD PUSH4 0xE602DF05 PUSH1 0xE0 SHL DUP2 MSTORE PUSH0 PUSH1 0x4 DUP3 ADD MSTORE PUSH1 0x24 ADD PUSH2 0x7CE JUMP JUMPDEST PUSH1 0x1 PUSH1 0x1 PUSH1 0xA0 SHL SUB DUP4 AND PUSH2 0x17E9 JUMPI PUSH1 0x40 MLOAD PUSH4 0x4A1406B1 PUSH1 0xE1 SHL DUP2 MSTORE PUSH0 PUSH1 0x4 DUP3 ADD MSTORE PUSH1 0x24 ADD PUSH2 0x7CE JUMP JUMPDEST PUSH1 0x1 PUSH1 0x1 PUSH1 0xA0 SHL SUB DUP1 DUP6 AND PUSH0 SWAP1 DUP2 MSTORE PUSH1 0x1 PUSH1 0x20 SWAP1 DUP2 MSTORE PUSH1 0x40 DUP1 DUP4 KECCAK256 SWAP4 DUP8 AND DUP4 MSTORE SWAP3 SWAP1 MSTORE KECCAK256 DUP3 SWAP1 SSTORE DUP1 ISZERO PUSH2 0xEDB JUMPI DUP3 PUSH1 0x1 PUSH1 0x1 PUSH1 0xA0 SHL SUB AND DUP5 PUSH1 0x1 PUSH1 0x1 PUSH1 0xA0 SHL SUB AND PUSH32 0x8C5BE1E5EBEC7D5BD14F71427D1E84F3DD0314C0F7B2291E5B200AC8C7C3B925 DUP5 PUSH1 0x40 MLOAD PUSH2 0x185B SWAP2 DUP2 MSTORE PUSH1 0x20 ADD SWAP1 JUMP JUMPDEST PUSH1 0x40 MLOAD DUP1 SWAP2 SUB SWAP1 LOG3 POP POP POP POP JUMP JUMPDEST PUSH2 0xE60 DUP4 DUP4 DUP4 PUSH2 0x1EF4 JUMP JUMPDEST PUSH0 PUSH6 0xFFFFFFFFFFFF DUP3 GT ISZERO PUSH2 0x18A6 JUMPI PUSH1 0x40 MLOAD PUSH4 0x6DFCC65 PUSH1 0xE4 SHL DUP2 MSTORE PUSH1 0x30 PUSH1 0x4 DUP3 ADD MSTORE PUSH1 0x24 DUP2 ADD DUP4 SWAP1 MSTORE PUSH1 0x44 ADD PUSH2 0x7CE JUMP JUMPDEST POP SWAP1 JUMP JUMPDEST PUSH0 PUSH1 0x1 DUP3 GT PUSH2 0x18B7 JUMPI POP SWAP1 JUMP JUMPDEST DUP2 PUSH1 0x1 PUSH1 0x1 PUSH1 0x80 SHL DUP3 LT PUSH2 0x18D0 JUMPI PUSH1 0x80 SWAP2 SWAP1 SWAP2 SHR SWAP1 PUSH1 0x40 SHL JUMPDEST PUSH9 0x10000000000000000 DUP3 LT PUSH2 0x18EB JUMPI PUSH1 0x40 SWAP2 SWAP1 SWAP2 SHR SWAP1 PUSH1 0x20 SHL JUMPDEST PUSH5 0x100000000 DUP3 LT PUSH2 0x1902 JUMPI PUSH1 0x20 SWAP2 SWAP1 SWAP2 SHR SWAP1 PUSH1 0x10 SHL JUMPDEST PUSH3 0x10000 DUP3 LT PUSH2 0x1917 JUMPI PUSH1 0x10 SWAP2 SWAP1 SWAP2 SHR SWAP1 PUSH1 0x8 SHL JUMPDEST PUSH2 0x100 DUP3 LT PUSH2 0x192B JUMPI PUSH1 0x8 SWAP2 SWAP1 SWAP2 SHR SWAP1 PUSH1 0x4 SHL JUMPDEST PUSH1 0x10 DUP3 LT PUSH2 0x193E JUMPI PUSH1 0x4 SWAP2 SWAP1 SWAP2 SHR SWAP1 PUSH1 0x2 SHL JUMPDEST PUSH1 0x4 DUP3 LT PUSH2 0x194A JUMPI PUSH1 0x1 SHL JUMPDEST PUSH1 0x3 MUL PUSH1 0x1 SWAP1 DUP2 SHR SWAP1 DUP2 DUP6 DUP2 PUSH2 0x1962 JUMPI PUSH2 0x1962 PUSH2 0x29B4 JUMP JUMPDEST DIV DUP3 ADD SWAP1 SHR SWAP1 POP PUSH1 0x1 DUP2 DUP6 DUP2 PUSH2 0x197A JUMPI PUSH2 0x197A PUSH2 0x29B4 JUMP JUMPDEST DIV DUP3 ADD SWAP1 SHR SWAP1 POP PUSH1 0x1 DUP2 DUP6 DUP2 PUSH2 0x1992 JUMPI PUSH2 0x1992 PUSH2 0x29B4 JUMP JUMPDEST DIV DUP3 ADD SWAP1 SHR SWAP1 POP PUSH1 0x1 DUP2 DUP6 DUP2 PUSH2 0x19AA JUMPI PUSH2 0x19AA PUSH2 0x29B4 JUMP JUMPDEST DIV DUP3 ADD SWAP1 SHR SWAP1 POP PUSH1 0x1 DUP2 DUP6 DUP2 PUSH2 0x19C2 JUMPI PUSH2 0x19C2 PUSH2 0x29B4 JUMP JUMPDEST DIV DUP3 ADD SWAP1 SHR SWAP1 POP PUSH1 0x1 DUP2 DUP6 DUP2 PUSH2 0x19DA JUMPI PUSH2 0x19DA PUSH2 0x29B4 JUMP JUMPDEST DIV DUP3 ADD SWAP1 SHR SWAP1 POP PUSH2 0x19F9 DUP2 DUP6 DUP2 PUSH2 0x19F3 JUMPI PUSH2 0x19F3 PUSH2 0x29B4 JUMP JUMPDEST DIV DUP3 GT SWAP1 JUMP JUMPDEST SWAP1 SUB SWAP4 SWAP3 POP POP POP JUMP JUMPDEST PUSH0 JUMPDEST DUP2 DUP4 LT ISZERO PUSH2 0x1A59 JUMPI PUSH0 PUSH2 0x1A17 DUP5 DUP5 PUSH2 0x1F5A JUMP JUMPDEST PUSH0 DUP8 DUP2 MSTORE PUSH1 0x20 SWAP1 KECCAK256 SWAP1 SWAP2 POP PUSH6 0xFFFFFFFFFFFF DUP7 AND SWAP1 DUP3 ADD SLOAD PUSH6 0xFFFFFFFFFFFF AND GT ISZERO PUSH2 0x1A45 JUMPI DUP1 SWAP3 POP PUSH2 0x1A53 JUMP JUMPDEST PUSH2 0x1A50 DUP2 PUSH1 0x1 PUSH2 0x2908 JUMP JUMPDEST SWAP4 POP JUMPDEST POP PUSH2 0x1A04 JUMP JUMPDEST POP SWAP4 SWAP3 POP POP POP JUMP JUMPDEST PUSH1 0x5 SLOAD PUSH1 0xFF AND PUSH2 0x796 JUMPI PUSH1 0x40 MLOAD PUSH4 0x8DFC202B PUSH1 0xE0 SHL DUP2 MSTORE PUSH1 0x4 ADD PUSH1 0x40 MLOAD DUP1 SWAP2 SUB SWAP1 REVERT JUMPDEST PUSH1 0x1 PUSH1 0x1 PUSH1 0xA0 SHL SUB DUP2 AND PUSH0 SWAP1 DUP2 MSTORE PUSH1 0x20 DUP2 SWAP1 MSTORE PUSH1 0x40 DUP2 KECCAK256 SLOAD PUSH2 0x633 JUMP JUMPDEST DUP2 PUSH1 0x1 PUSH1 0x1 PUSH1 0xA0 SHL SUB AND DUP4 PUSH1 0x1 PUSH1 0x1 PUSH1 0xA0 SHL SUB AND EQ ISZERO DUP1 ISZERO PUSH2 0x1AC2 JUMPI POP PUSH0 DUP2 GT JUMPDEST ISZERO PUSH2 0xE60 JUMPI PUSH1 0x1 PUSH1 0x1 PUSH1 0xA0 SHL SUB DUP4 AND ISZERO PUSH2 0x1B69 JUMPI PUSH1 0x1 PUSH1 0x1 PUSH1 0xA0 SHL SUB DUP4 AND PUSH0 SWAP1 DUP2 MSTORE PUSH1 0xA PUSH1 0x20 MSTORE PUSH1 0x40 DUP2 KECCAK256 DUP2 SWAP1 PUSH2 0x1B04 SWAP1 PUSH2 0x1F74 PUSH2 0x1AFF DUP7 PUSH2 0x1F7F JUMP JUMPDEST PUSH2 0x1FB2 JUMP JUMPDEST PUSH1 0x1 PUSH1 0x1 PUSH1 0xD0 SHL SUB AND SWAP2 POP PUSH1 0x1 PUSH1 0x1 PUSH1 0xD0 SHL SUB AND SWAP2 POP DUP5 PUSH1 0x1 PUSH1 0x1 PUSH1 0xA0 SHL SUB AND PUSH32 0xDEC2BACDD2F05B59DE34DA9B523DFF8BE42E5E38E818C82FDB0BAE774387A724 DUP4 DUP4 PUSH1 0x40 MLOAD PUSH2 0x1B5E SWAP3 SWAP2 SWAP1 SWAP2 DUP3 MSTORE PUSH1 0x20 DUP3 ADD MSTORE PUSH1 0x40 ADD SWAP1 JUMP JUMPDEST PUSH1 0x40 MLOAD DUP1 SWAP2 SUB SWAP1 LOG2 POP POP JUMPDEST PUSH1 0x1 PUSH1 0x1 PUSH1 0xA0 SHL SUB DUP3 AND ISZERO PUSH2 0xE60 JUMPI PUSH1 0x1 PUSH1 0x1 PUSH1 0xA0 SHL SUB DUP3 AND PUSH0 SWAP1 DUP2 MSTORE PUSH1 0xA PUSH1 0x20 MSTORE PUSH1 0x40 DUP2 KECCAK256 DUP2 SWAP1 PUSH2 0x1BA1 SWAP1 PUSH2 0x1FEA PUSH2 0x1AFF DUP7 PUSH2 0x1F7F JUMP JUMPDEST PUSH1 0x1 PUSH1 0x1 PUSH1 0xD0 SHL SUB AND SWAP2 POP PUSH1 0x1 PUSH1 0x1 PUSH1 0xD0 SHL SUB AND SWAP2 POP DUP4 PUSH1 0x1 PUSH1 0x1 PUSH1 0xA0 SHL SUB AND PUSH32 0xDEC2BACDD2F05B59DE34DA9B523DFF8BE42E5E38E818C82FDB0BAE774387A724 DUP4 DUP4 PUSH1 0x40 MLOAD PUSH2 0x1BFB SWAP3 SWAP2 SWAP1 SWAP2 DUP3 MSTORE PUSH1 0x20 DUP3 ADD MSTORE PUSH1 0x40 ADD SWAP1 JUMP JUMPDEST PUSH1 0x40 MLOAD DUP1 SWAP2 SUB SWAP1 LOG2 POP POP POP POP POP JUMP JUMPDEST PUSH0 PUSH4 0xFFFFFFFF DUP3 GT ISZERO PUSH2 0x18A6 JUMPI PUSH1 0x40 MLOAD PUSH4 0x6DFCC65 PUSH1 0xE4 SHL DUP2 MSTORE PUSH1 0x20 PUSH1 0x4 DUP3 ADD MSTORE PUSH1 0x24 DUP2 ADD DUP4 SWAP1 MSTORE PUSH1 0x44 ADD PUSH2 0x7CE JUMP JUMPDEST PUSH1 0x5 SLOAD PUSH1 0xFF AND ISZERO PUSH2 0x796 JUMPI PUSH1 0x40 MLOAD PUSH4 0xD93C0665 PUSH1 0xE0 SHL DUP2 MSTORE PUSH1 0x4 ADD PUSH1 0x40 MLOAD DUP1 SWAP2 SUB SWAP1 REVERT JUMPDEST PUSH1 0x60 PUSH1 0xFF DUP4 EQ PUSH2 0x1C78 JUMPI PUSH2 0x1C71 DUP4 PUSH2 0x1FF5 JUMP JUMPDEST SWAP1 POP PUSH2 0x633 JUMP JUMPDEST DUP2 DUP1 SLOAD PUSH2 0x1C84 SWAP1 PUSH2 0x284D JUMP JUMPDEST DUP1 PUSH1 0x1F ADD PUSH1 0x20 DUP1 SWAP2 DIV MUL PUSH1 0x20 ADD PUSH1 0x40 MLOAD SWAP1 DUP2 ADD PUSH1 0x40 MSTORE DUP1 SWAP3 SWAP2 SWAP1 DUP2 DUP2 MSTORE PUSH1 0x20 ADD DUP3 DUP1 SLOAD PUSH2 0x1CB0 SWAP1 PUSH2 0x284D JUMP JUMPDEST DUP1 ISZERO PUSH2 0x1CFB JUMPI DUP1 PUSH1 0x1F LT PUSH2 0x1CD2 JUMPI PUSH2 0x100 DUP1 DUP4 SLOAD DIV MUL DUP4 MSTORE SWAP2 PUSH1 0x20 ADD SWAP2 PUSH2 0x1CFB JUMP JUMPDEST DUP3 ADD SWAP2 SWAP1 PUSH0 MSTORE PUSH1 0x20 PUSH0 KECCAK256 SWAP1 JUMPDEST DUP2 SLOAD DUP2 MSTORE SWAP1 PUSH1 0x1 ADD SWAP1 PUSH1 0x20 ADD DUP1 DUP4 GT PUSH2 0x1CDE JUMPI DUP3 SWAP1 SUB PUSH1 0x1F AND DUP3 ADD SWAP2 JUMPDEST POP POP POP POP POP SWAP1 POP PUSH2 0x633 JUMP JUMPDEST PUSH0 DUP1 DUP1 PUSH32 0x7FFFFFFFFFFFFFFFFFFFFFFFFFFFFFFF5D576E7357A4501DDFE92F46681B20A0 DUP5 GT ISZERO PUSH2 0x1D40 JUMPI POP PUSH0 SWAP2 POP PUSH1 0x3 SWAP1 POP DUP3 PUSH2 0x1DC5 JUMP JUMPDEST PUSH1 0x40 DUP1 MLOAD PUSH0 DUP1 DUP3 MSTORE PUSH1 0x20 DUP3 ADD DUP1 DUP5 MSTORE DUP11 SWAP1 MSTORE PUSH1 0xFF DUP10 AND SWAP3 DUP3 ADD SWAP3 SWAP1 SWAP3 MSTORE PUSH1 0x60 DUP2 ADD DUP8 SWAP1 MSTORE PUSH1 0x80 DUP2 ADD DUP7 SWAP1 MSTORE PUSH1 0x1 SWAP1 PUSH1 0xA0 ADD PUSH1 0x20 PUSH1 0x40 MLOAD PUSH1 0x20 DUP2 SUB SWAP1 DUP1 DUP5 SUB SWAP1 DUP6 GAS STATICCALL ISZERO DUP1 ISZERO PUSH2 0x1D91 JUMPI RETURNDATASIZE PUSH0 PUSH0 RETURNDATACOPY RETURNDATASIZE PUSH0 REVERT JUMPDEST POP POP PUSH1 0x40 MLOAD PUSH1 0x1F NOT ADD MLOAD SWAP2 POP POP PUSH1 0x1 PUSH1 0x1 PUSH1 0xA0 SHL SUB DUP2 AND PUSH2 0x1DBC JUMPI POP PUSH0 SWAP3 POP PUSH1 0x1 SWAP2 POP DUP3 SWAP1 POP PUSH2 0x1DC5 JUMP JUMPDEST SWAP3 POP PUSH0 SWAP2 POP DUP2 SWAP1 POP JUMPDEST SWAP5 POP SWAP5 POP SWAP5 SWAP2 POP POP JUMP JUMPDEST PUSH0 DUP3 PUSH1 0x3 DUP2 GT ISZERO PUSH2 0x1DE2 JUMPI PUSH2 0x1DE2 PUSH2 0x29C8 JUMP JUMPDEST SUB PUSH2 0x1DEB JUMPI POP POP JUMP JUMPDEST PUSH1 0x1 DUP3 PUSH1 0x3 DUP2 GT ISZERO PUSH2 0x1DFF JUMPI PUSH2 0x1DFF PUSH2 0x29C8 JUMP JUMPDEST SUB PUSH2 0x1E1D JUMPI PUSH1 0x40 MLOAD PUSH4 0xF645EEDF PUSH1 0xE0 SHL DUP2 MSTORE PUSH1 0x4 ADD PUSH1 0x40 MLOAD DUP1 SWAP2 SUB SWAP1 REVERT JUMPDEST PUSH1 0x2 DUP3 PUSH1 0x3 DUP2 GT ISZERO PUSH2 0x1E31 JUMPI PUSH2 0x1E31 PUSH2 0x29C8 JUMP JUMPDEST SUB PUSH2 0x1E52 JUMPI PUSH1 0x40 MLOAD PUSH4 0xFCE698F7 PUSH1 0xE0 SHL DUP2 MSTORE PUSH1 0x4 DUP2 ADD DUP3 SWAP1 MSTORE PUSH1 0x24 ADD PUSH2 0x7CE JUMP JUMPDEST PUSH1 0x3 DUP3 PUSH1 0x3 DUP2 GT ISZERO PUSH2 0x1E66 JUMPI PUSH2 0x1E66 PUSH2 0x29C8 JUMP JUMPDEST SUB PUSH2 0x7F6 JUMPI PUSH1 0x40 MLOAD PUSH4 0x35E2F383 PUSH1 0xE2 SHL DUP2 MSTORE PUSH1 0x4 DUP2 ADD DUP3 SWAP1 MSTORE PUSH1 0x24 ADD PUSH2 0x7CE JUMP JUMPDEST PUSH1 0x40 DUP1 MLOAD DUP1 DUP3 ADD SWAP1 SWAP2 MSTORE PUSH0 DUP1 DUP3 MSTORE PUSH1 0x20 DUP3 ADD MSTORE DUP3 PUSH0 ADD DUP3 PUSH4 0xFFFFFFFF AND DUP2 SLOAD DUP2 LT PUSH2 0x1EB4 JUMPI PUSH2 0x1EB4 PUSH2 0x29DC JUMP JUMPDEST PUSH0 SWAP2 DUP3 MSTORE PUSH1 0x20 SWAP2 DUP3 SWAP1 KECCAK256 PUSH1 0x40 DUP1 MLOAD DUP1 DUP3 ADD SWAP1 SWAP2 MSTORE SWAP2 ADD SLOAD PUSH6 0xFFFFFFFFFFFF DUP2 AND DUP3 MSTORE PUSH1 0x1 PUSH1 0x30 SHL SWAP1 DIV PUSH1 0x1 PUSH1 0x1 PUSH1 0xD0 SHL SUB AND SWAP2 DUP2 ADD SWAP2 SWAP1 SWAP2 MSTORE SWAP4 SWAP3 POP POP POP JUMP JUMPDEST PUSH2 0x1EFF DUP4 DUP4 DUP4 PUSH2 0x2032 JUMP JUMPDEST PUSH1 0x1 PUSH1 0x1 PUSH1 0xA0 SHL SUB DUP4 AND PUSH2 0x1F4F JUMPI PUSH0 PUSH2 0x1F17 PUSH1 0x2 SLOAD SWAP1 JUMP JUMPDEST SWAP1 POP PUSH1 0x1 PUSH1 0x1 PUSH1 0xD0 SHL SUB DUP1 DUP3 GT ISZERO PUSH2 0x1F4C JUMPI PUSH1 0x40 MLOAD PUSH4 0xE58AE93 PUSH1 0xE1 SHL DUP2 MSTORE PUSH1 0x4 DUP2 ADD DUP4 SWAP1 MSTORE PUSH1 0x24 DUP2 ADD DUP3 SWAP1 MSTORE PUSH1 0x44 ADD PUSH2 0x7CE JUMP JUMPDEST POP POP JUMPDEST PUSH2 0xE60 DUP4 DUP4 DUP4 PUSH2 0x2045 JUMP JUMPDEST PUSH0 PUSH2 0x1F68 PUSH1 0x2 DUP5 DUP5 XOR PUSH2 0x29F0 JUMP JUMPDEST PUSH2 0x6FA SWAP1 DUP5 DUP5 AND PUSH2 0x2908 JUMP JUMPDEST PUSH0 PUSH2 0x6FA DUP3 DUP5 PUSH2 0x2A0F JUMP JUMPDEST PUSH0 PUSH1 0x1 PUSH1 0x1 PUSH1 0xD0 SHL SUB DUP3 GT ISZERO PUSH2 0x18A6 JUMPI PUSH1 0x40 MLOAD PUSH4 0x6DFCC65 PUSH1 0xE4 SHL DUP2 MSTORE PUSH1 0xD0 PUSH1 0x4 DUP3 ADD MSTORE PUSH1 0x24 DUP2 ADD DUP4 SWAP1 MSTORE PUSH1 0x44 ADD PUSH2 0x7CE JUMP JUMPDEST PUSH0 PUSH0 PUSH2 0x1FDD PUSH2 0x1FBF PUSH2 0xAD1 JUMP JUMPDEST PUSH2 0x1FD5 PUSH2 0x1FCB DUP9 PUSH2 0x1548 JUMP JUMPDEST DUP7 DUP9 PUSH4 0xFFFFFFFF AND JUMP JUMPDEST DUP8 SWAP2 SWAP1 PUSH2 0x20BA JUMP JUMPDEST SWAP2 POP SWAP2 POP JUMPDEST SWAP4 POP SWAP4 SWAP2 POP POP JUMP JUMPDEST PUSH0 PUSH2 0x6FA DUP3 DUP5 PUSH2 0x2A2E JUMP JUMPDEST PUSH1 0x60 PUSH0 PUSH2 0x2001 DUP4 PUSH2 0x20C7 JUMP JUMPDEST PUSH1 0x40 DUP1 MLOAD PUSH1 0x20 DUP1 DUP3 MSTORE DUP2 DUP4 ADD SWAP1 SWAP3 MSTORE SWAP2 SWAP3 POP PUSH0 SWAP2 SWAP1 PUSH1 0x20 DUP3 ADD DUP2 DUP1 CALLDATASIZE DUP4 CALLDATACOPY POP POP POP SWAP2 DUP3 MSTORE POP PUSH1 0x20 DUP2 ADD SWAP3 SWAP1 SWAP3 MSTORE POP SWAP1 JUMP JUMPDEST PUSH2 0x203A PUSH2 0x1C3A JUMP JUMPDEST PUSH2 0xE60 DUP4 DUP4 DUP4 PUSH2 0x20EE JUMP JUMPDEST PUSH1 0x1 PUSH1 0x1 PUSH1 0xA0 SHL SUB DUP4 AND PUSH2 0x2067 JUMPI PUSH2 0x2064 PUSH1 0xB PUSH2 0x1FEA PUSH2 0x1AFF DUP5 PUSH2 0x1F7F JUMP JUMPDEST POP POP JUMPDEST PUSH1 0x1 PUSH1 0x1 PUSH1 0xA0 SHL SUB DUP3 AND PUSH2 0x2089 JUMPI PUSH2 0x2086 PUSH1 0xB PUSH2 0x1F74 PUSH2 0x1AFF DUP5 PUSH2 0x1F7F JUMP JUMPDEST POP POP JUMPDEST PUSH1 0x1 PUSH1 0x1 PUSH1 0xA0 SHL SUB DUP4 DUP2 AND PUSH0 SWAP1 DUP2 MSTORE PUSH1 0x9 PUSH1 0x20 MSTORE PUSH1 0x40 DUP1 DUP3 KECCAK256 SLOAD DUP6 DUP5 AND DUP4 MSTORE SWAP2 KECCAK256 SLOAD PUSH2 0xE60 SWAP3 SWAP2 DUP3 AND SWAP2 AND DUP4 PUSH2 0x1AA1 JUMP JUMPDEST PUSH0 DUP1 PUSH2 0x1FDD DUP6 DUP6 DUP6 PUSH2 0x2214 JUMP JUMPDEST PUSH0 PUSH1 0xFF DUP3 AND PUSH1 0x1F DUP2 GT ISZERO PUSH2 0x633 JUMPI PUSH1 0x40 MLOAD PUSH4 0x2CD44AC3 PUSH1 0xE2 SHL DUP2 MSTORE PUSH1 0x4 ADD PUSH1 0x40 MLOAD DUP1 SWAP2 SUB SWAP1 REVERT JUMPDEST PUSH1 0x1 PUSH1 0x1 PUSH1 0xA0 SHL SUB DUP4 AND PUSH2 0x2118 JUMPI DUP1 PUSH1 0x2 PUSH0 DUP3 DUP3 SLOAD PUSH2 0x210D SWAP2 SWAP1 PUSH2 0x2908 JUMP JUMPDEST SWAP1 SWAP2 SSTORE POP PUSH2 0x2188 SWAP1 POP JUMP JUMPDEST PUSH1 0x1 PUSH1 0x1 PUSH1 0xA0 SHL SUB DUP4 AND PUSH0 SWAP1 DUP2 MSTORE PUSH1 0x20 DUP2 SWAP1 MSTORE PUSH1 0x40 SWAP1 KECCAK256 SLOAD DUP2 DUP2 LT ISZERO PUSH2 0x216A JUMPI PUSH1 0x40 MLOAD PUSH4 0x391434E3 PUSH1 0xE2 SHL DUP2 MSTORE PUSH1 0x1 PUSH1 0x1 PUSH1 0xA0 SHL SUB DUP6 AND PUSH1 0x4 DUP3 ADD MSTORE PUSH1 0x24 DUP2 ADD DUP3 SWAP1 MSTORE PUSH1 0x44 DUP2 ADD DUP4 SWAP1 MSTORE PUSH1 0x64 ADD PUSH2 0x7CE JUMP JUMPDEST PUSH1 0x1 PUSH1 0x1 PUSH1 0xA0 SHL SUB DUP5 AND PUSH0 SWAP1 DUP2 MSTORE PUSH1 0x20 DUP2 SWAP1 MSTORE PUSH1 0x40 SWAP1 KECCAK256 SWAP1 DUP3 SWAP1 SUB SWAP1 SSTORE JUMPDEST PUSH1 0x1 PUSH1 0x1 PUSH1 0xA0 SHL SUB DUP3 AND PUSH2 0x21A4 JUMPI PUSH1 0x2 DUP1 SLOAD DUP3 SWAP1 SUB SWAP1 SSTORE PUSH2 0x21C2 JUMP JUMPDEST PUSH1 0x1 PUSH1 0x1 PUSH1 0xA0 SHL SUB DUP3 AND PUSH0 SWAP1 DUP2 MSTORE PUSH1 0x20 DUP2 SWAP1 MSTORE PUSH1 0x40 SWAP1 KECCAK256 DUP1 SLOAD DUP3 ADD SWAP1 SSTORE JUMPDEST DUP2 PUSH1 0x1 PUSH1 0x1 PUSH1 0xA0 SHL SUB AND DUP4 PUSH1 0x1 PUSH1 0x1 PUSH1 0xA0 SHL SUB AND PUSH32 0xDDF252AD1BE2C89B69C2B068FC378DAA952BA7F163C4A11628F55A4DF523B3EF DUP4 PUSH1 0x40 MLOAD PUSH2 0x2207 SWAP2 DUP2 MSTORE PUSH1 0x20 ADD SWAP1 JUMP JUMPDEST PUSH1 0x40 MLOAD DUP1 SWAP2 SUB SWAP1 LOG3 POP POP POP JUMP JUMPDEST DUP3 SLOAD PUSH0 SWAP1 DUP2 SWAP1 DUP1 ISZERO PUSH2 0x230A JUMPI PUSH0 PUSH2 0x2230 DUP8 PUSH2 0x1135 PUSH1 0x1 DUP6 PUSH2 0x291B JUMP JUMPDEST DUP1 SLOAD SWAP1 SWAP2 POP PUSH6 0xFFFFFFFFFFFF DUP1 DUP3 AND SWAP2 PUSH1 0x1 PUSH1 0x30 SHL SWAP1 DIV PUSH1 0x1 PUSH1 0x1 PUSH1 0xD0 SHL SUB AND SWAP1 DUP9 AND DUP3 GT ISZERO PUSH2 0x2273 JUMPI PUSH1 0x40 MLOAD PUSH4 0x2520601D PUSH1 0xE0 SHL DUP2 MSTORE PUSH1 0x4 ADD PUSH1 0x40 MLOAD DUP1 SWAP2 SUB SWAP1 REVERT JUMPDEST DUP8 PUSH6 0xFFFFFFFFFFFF AND DUP3 PUSH6 0xFFFFFFFFFFFF AND SUB PUSH2 0x22AC JUMPI DUP3 SLOAD PUSH6 0xFFFFFFFFFFFF AND PUSH1 0x1 PUSH1 0x30 SHL PUSH1 0x1 PUSH1 0x1 PUSH1 0xD0 SHL SUB DUP10 AND MUL OR DUP4 SSTORE PUSH2 0x22FC JUMP JUMPDEST PUSH1 0x40 DUP1 MLOAD DUP1 DUP3 ADD SWAP1 SWAP2 MSTORE PUSH6 0xFFFFFFFFFFFF DUP1 DUP11 AND DUP3 MSTORE PUSH1 0x1 PUSH1 0x1 PUSH1 0xD0 SHL SUB DUP1 DUP11 AND PUSH1 0x20 DUP1 DUP6 ADD SWAP2 DUP3 MSTORE DUP14 SLOAD PUSH1 0x1 DUP2 ADD DUP16 SSTORE PUSH0 DUP16 DUP2 MSTORE SWAP2 SWAP1 SWAP2 KECCAK256 SWAP5 MLOAD SWAP2 MLOAD SWAP1 SWAP3 AND PUSH1 0x1 PUSH1 0x30 SHL MUL SWAP3 AND SWAP2 SWAP1 SWAP2 OR SWAP2 ADD SSTORE JUMPDEST SWAP5 POP DUP6 SWAP4 POP PUSH2 0x1FE2 SWAP3 POP POP POP JUMP JUMPDEST POP POP PUSH1 0x40 DUP1 MLOAD DUP1 DUP3 ADD SWAP1 SWAP2 MSTORE PUSH6 0xFFFFFFFFFFFF DUP1 DUP6 AND DUP3 MSTORE PUSH1 0x1 PUSH1 0x1 PUSH1 0xD0 SHL SUB DUP1 DUP6 AND PUSH1 0x20 DUP1 DUP6 ADD SWAP2 DUP3 MSTORE DUP9 SLOAD PUSH1 0x1 DUP2 ADD DUP11 SSTORE PUSH0 DUP11 DUP2 MSTORE SWAP2 DUP3 KECCAK256 SWAP6 MLOAD SWAP3 MLOAD SWAP1 SWAP4 AND PUSH1 0x1 PUSH1 0x30 SHL MUL SWAP2 SWAP1 SWAP4 AND OR SWAP3 ADD SWAP2 SWAP1 SWAP2 SSTORE SWAP1 POP DUP2 PUSH2 0x1FE2 JUMP JUMPDEST PUSH1 0x1 PUSH1 0x1 PUSH1 0xE0 SHL SUB NOT DUP2 AND DUP2 EQ PUSH2 0x804 JUMPI PUSH0 PUSH0 REVERT JUMPDEST PUSH0 PUSH1 0x20 DUP3 DUP5 SUB SLT ISZERO PUSH2 0x2389 JUMPI PUSH0 PUSH0 REVERT JUMPDEST DUP2 CALLDATALOAD PUSH2 0x6FA DUP2 PUSH2 0x2364 JUMP JUMPDEST PUSH0 DUP2 MLOAD DUP1 DUP5 MSTORE DUP1 PUSH1 0x20 DUP5 ADD PUSH1 0x20 DUP7 ADD MCOPY PUSH0 PUSH1 0x20 DUP3 DUP7 ADD ADD MSTORE PUSH1 0x20 PUSH1 0x1F NOT PUSH1 0x1F DUP4 ADD AND DUP6 ADD ADD SWAP2 POP POP SWAP3 SWAP2 POP POP JUMP JUMPDEST PUSH1 0x20 DUP2 MSTORE PUSH0 PUSH2 0x6FA PUSH1 0x20 DUP4 ADD DUP5 PUSH2 0x2394 JUMP JUMPDEST PUSH1 0x1 PUSH1 0x1 PUSH1 0xA0 SHL SUB DUP2 AND DUP2 EQ PUSH2 0x804 JUMPI PUSH0 PUSH0 REVERT JUMPDEST PUSH0 PUSH0 PUSH1 0x40 DUP4 DUP6 SUB SLT ISZERO PUSH2 0x23F9 JUMPI PUSH0 PUSH0 REVERT JUMPDEST DUP3 CALLDATALOAD PUSH2 0x2404 DUP2 PUSH2 0x23D4 JUMP JUMPDEST SWAP5 PUSH1 0x20 SWAP4 SWAP1 SWAP4 ADD CALLDATALOAD SWAP4 POP POP POP JUMP JUMPDEST PUSH0 PUSH0 PUSH0 PUSH1 0x60 DUP5 DUP7 SUB SLT ISZERO PUSH2 0x2424 JUMPI PUSH0 PUSH0 REVERT JUMPDEST DUP4 CALLDATALOAD PUSH2 0x242F DUP2 PUSH2 0x23D4 JUMP JUMPDEST SWAP3 POP PUSH1 0x20 DUP5 ADD CALLDATALOAD PUSH2 0x243F DUP2 PUSH2 0x23D4 JUMP JUMPDEST SWAP3 SWAP6 SWAP3 SWAP5 POP POP POP PUSH1 0x40 SWAP2 SWAP1 SWAP2 ADD CALLDATALOAD SWAP1 JUMP JUMPDEST PUSH4 0x4E487B71 PUSH1 0xE0 SHL PUSH0 MSTORE PUSH1 0x41 PUSH1 0x4 MSTORE PUSH1 0x24 PUSH0 REVERT JUMPDEST PUSH0 DUP3 PUSH1 0x1F DUP4 ADD SLT PUSH2 0x2473 JUMPI PUSH0 PUSH0 REVERT JUMPDEST DUP2 CALLDATALOAD PUSH8 0xFFFFFFFFFFFFFFFF DUP2 GT ISZERO PUSH2 0x248D JUMPI PUSH2 0x248D PUSH2 0x2450 JUMP JUMPDEST PUSH1 0x40 MLOAD PUSH1 0x1F DUP3 ADD PUSH1 0x1F NOT SWAP1 DUP2 AND PUSH1 0x3F ADD AND DUP2 ADD PUSH8 0xFFFFFFFFFFFFFFFF DUP2 GT DUP3 DUP3 LT OR ISZERO PUSH2 0x24BC JUMPI PUSH2 0x24BC PUSH2 0x2450 JUMP JUMPDEST PUSH1 0x40 MSTORE DUP2 DUP2 MSTORE DUP4 DUP3 ADD PUSH1 0x20 ADD DUP6 LT ISZERO PUSH2 0x24D3 JUMPI PUSH0 PUSH0 REVERT JUMPDEST DUP2 PUSH1 0x20 DUP6 ADD PUSH1 0x20 DUP4 ADD CALLDATACOPY PUSH0 SWAP2 DUP2 ADD PUSH1 0x20 ADD SWAP2 SWAP1 SWAP2 MSTORE SWAP4 SWAP3 POP POP POP JUMP JUMPDEST PUSH0 PUSH0 PUSH0 PUSH1 0x60 DUP5 DUP7 SUB SLT ISZERO PUSH2 0x2501 JUMPI PUSH0 PUSH0 REVERT JUMPDEST DUP4 CALLDATALOAD PUSH2 0x250C DUP2 PUSH2 0x23D4 JUMP JUMPDEST SWAP3 POP PUSH1 0x20 DUP5 ADD CALLDATALOAD SWAP2 POP PUSH1 0x40 DUP5 ADD CALLDATALOAD PUSH8 0xFFFFFFFFFFFFFFFF DUP2 GT ISZERO PUSH2 0x252E JUMPI PUSH0 PUSH0 REVERT JUMPDEST PUSH2 0x253A DUP7 DUP3 DUP8 ADD PUSH2 0x2464 JUMP JUMPDEST SWAP2 POP POP SWAP3 POP SWAP3 POP SWAP3 JUMP JUMPDEST PUSH0 PUSH1 0x20 DUP3 DUP5 SUB SLT ISZERO PUSH2 0x2554 JUMPI PUSH0 PUSH0 REVERT JUMPDEST POP CALLDATALOAD SWAP2 SWAP1 POP JUMP JUMPDEST PUSH0 PUSH1 0x20 DUP3 DUP5 SUB SLT ISZERO PUSH2 0x256B JUMPI PUSH0 PUSH0 REVERT JUMPDEST DUP2 CALLDATALOAD PUSH2 0x6FA DUP2 PUSH2 0x23D4 JUMP JUMPDEST PUSH0 PUSH0 PUSH0 PUSH0 PUSH0 PUSH1 0x80 DUP7 DUP9 SUB SLT ISZERO PUSH2 0x258A JUMPI PUSH0 PUSH0 REVERT JUMPDEST DUP6 CALLDATALOAD PUSH2 0x2595 DUP2 PUSH2 0x23D4 JUMP JUMPDEST SWAP5 POP PUSH1 0x20 DUP7 ADD CALLDATALOAD PUSH2 0x25A5 DUP2 PUSH2 0x23D4 JUMP JUMPDEST SWAP4 POP PUSH1 0x40 DUP7 ADD CALLDATALOAD SWAP3 POP PUSH1 0x60 DUP7 ADD CALLDATALOAD PUSH8 0xFFFFFFFFFFFFFFFF DUP2 GT ISZERO PUSH2 0x25C7 JUMPI PUSH0 PUSH0 REVERT JUMPDEST DUP7 ADD PUSH1 0x1F DUP2 ADD DUP9 SGT PUSH2 0x25D7 JUMPI PUSH0 PUSH0 REVERT JUMPDEST DUP1 CALLDATALOAD PUSH8 0xFFFFFFFFFFFFFFFF DUP2 GT ISZERO PUSH2 0x25ED JUMPI PUSH0 PUSH0 REVERT JUMPDEST DUP9 PUSH1 0x20 DUP3 DUP5 ADD ADD GT ISZERO PUSH2 0x25FE JUMPI PUSH0 PUSH0 REVERT JUMPDEST SWAP6 SWAP9 SWAP5 SWAP8 POP SWAP3 SWAP6 POP POP POP PUSH1 0x20 ADD SWAP2 SWAP1 JUMP JUMPDEST PUSH1 0xFF PUSH1 0xF8 SHL DUP9 AND DUP2 MSTORE PUSH1 0xE0 PUSH1 0x20 DUP3 ADD MSTORE PUSH0 PUSH2 0x262D PUSH1 0xE0 DUP4 ADD DUP10 PUSH2 0x2394 JUMP JUMPDEST DUP3 DUP2 SUB PUSH1 0x40 DUP5 ADD MSTORE PUSH2 0x263F DUP2 DUP10 PUSH2 0x2394 JUMP JUMPDEST PUSH1 0x60 DUP5 ADD DUP9 SWAP1 MSTORE PUSH1 0x1 PUSH1 0x1 PUSH1 0xA0 SHL SUB DUP8 AND PUSH1 0x80 DUP6 ADD MSTORE PUSH1 0xA0 DUP5 ADD DUP7 SWAP1 MSTORE DUP4 DUP2 SUB PUSH1 0xC0 DUP6 ADD MSTORE DUP5 MLOAD DUP1 DUP3 MSTORE PUSH1 0x20 DUP1 DUP8 ADD SWAP4 POP SWAP1 SWAP2 ADD SWAP1 PUSH0 JUMPDEST DUP2 DUP2 LT ISZERO PUSH2 0x2694 JUMPI DUP4 MLOAD DUP4 MSTORE PUSH1 0x20 SWAP4 DUP5 ADD SWAP4 SWAP1 SWAP3 ADD SWAP2 PUSH1 0x1 ADD PUSH2 0x2676 JUMP JUMPDEST POP SWAP1 SWAP12 SWAP11 POP POP POP POP POP POP POP POP POP POP POP JUMP JUMPDEST PUSH0 PUSH0 PUSH0 PUSH0 PUSH1 0x80 DUP6 DUP8 SUB SLT ISZERO PUSH2 0x26B8 JUMPI PUSH0 PUSH0 REVERT JUMPDEST DUP5 CALLDATALOAD PUSH2 0x26C3 DUP2 PUSH2 0x23D4 JUMP JUMPDEST SWAP4 POP PUSH1 0x20 DUP6 ADD CALLDATALOAD PUSH2 0x26D3 DUP2 PUSH2 0x23D4 JUMP JUMPDEST SWAP3 POP PUSH1 0x40 DUP6 ADD CALLDATALOAD SWAP2 POP PUSH1 0x60 DUP6 ADD CALLDATALOAD PUSH8 0xFFFFFFFFFFFFFFFF DUP2 GT ISZERO PUSH2 0x26F5 JUMPI PUSH0 PUSH0 REVERT JUMPDEST PUSH2 0x2701 DUP8 DUP3 DUP9 ADD PUSH2 0x2464 JUMP JUMPDEST SWAP2 POP POP SWAP3 SWAP6 SWAP2 SWAP5 POP SWAP3 POP JUMP JUMPDEST DUP1 CALLDATALOAD PUSH1 0xFF DUP2 AND DUP2 EQ PUSH2 0x271D JUMPI PUSH0 PUSH0 REVERT JUMPDEST SWAP2 SWAP1 POP JUMP JUMPDEST PUSH0 PUSH0 PUSH0 PUSH0 PUSH0 PUSH0 PUSH1 0xC0 DUP8 DUP10 SUB SLT ISZERO PUSH2 0x2737 JUMPI PUSH0 PUSH0 REVERT JUMPDEST DUP7 CALLDATALOAD PUSH2 0x2742 DUP2 PUSH2 0x23D4 JUMP JUMPDEST SWAP6 POP PUSH1 0x20 DUP8 ADD CALLDATALOAD SWAP5 POP PUSH1 0x40 DUP8 ADD CALLDATALOAD SWAP4 POP PUSH2 0x275E PUSH1 0x60 DUP9 ADD PUSH2 0x270D JUMP JUMPDEST SWAP6 SWAP9 SWAP5 SWAP8 POP SWAP3 SWAP6 PUSH1 0x80 DUP2 ADD CALLDATALOAD SWAP5 PUSH1 0xA0 SWAP1 SWAP2 ADD CALLDATALOAD SWAP4 POP SWAP2 POP POP JUMP JUMPDEST PUSH0 PUSH0 PUSH0 PUSH0 PUSH0 PUSH0 PUSH0 PUSH1 0xE0 DUP9 DUP11 SUB SLT ISZERO PUSH2 0x278E JUMPI PUSH0 PUSH0 REVERT JUMPDEST DUP8 CALLDATALOAD PUSH2 0x2799 DUP2 PUSH2 0x23D4 JUMP JUMPDEST SWAP7 POP PUSH1 0x20 DUP9 ADD CALLDATALOAD PUSH2 0x27A9 DUP2 PUSH2 0x23D4 JUMP JUMPDEST SWAP6 POP PUSH1 0x40 DUP9 ADD CALLDATALOAD SWAP5 POP PUSH1 0x60 DUP9 ADD CALLDATALOAD SWAP4 POP PUSH2 0x27C5 PUSH1 0x80 DUP10 ADD PUSH2 0x270D JUMP JUMPDEST SWAP7 SWAP10 SWAP6 SWAP9 POP SWAP4 SWAP7 SWAP3 SWAP6 SWAP5 PUSH1 0xA0 DUP5 ADD CALLDATALOAD SWAP5 POP PUSH1 0xC0 SWAP1 SWAP4 ADD CALLDATALOAD SWAP3 SWAP2 POP POP JUMP JUMPDEST PUSH0 PUSH0 PUSH1 0x40 DUP4 DUP6 SUB SLT ISZERO PUSH2 0x27F3 JUMPI PUSH0 PUSH0 REVERT JUMPDEST DUP3 CALLDATALOAD PUSH2 0x27FE DUP2 PUSH2 0x23D4 JUMP JUMPDEST SWAP2 POP PUSH1 0x20 DUP4 ADD CALLDATALOAD PUSH2 0x280E DUP2 PUSH2 0x23D4 JUMP JUMPDEST DUP1 SWAP2 POP POP SWAP3 POP SWAP3 SWAP1 POP JUMP JUMPDEST PUSH0 PUSH0 PUSH1 0x40 DUP4 DUP6 SUB SLT ISZERO PUSH2 0x282A JUMPI PUSH0 PUSH0 REVERT JUMPDEST DUP3 CALLDATALOAD PUSH2 0x2835 DUP2 PUSH2 0x23D4 JUMP JUMPDEST SWAP2 POP PUSH1 0x20 DUP4 ADD CALLDATALOAD PUSH4 0xFFFFFFFF DUP2 AND DUP2 EQ PUSH2 0x280E JUMPI PUSH0 PUSH0 REVERT JUMPDEST PUSH1 0x1 DUP2 DUP2 SHR SWAP1 DUP3 AND DUP1 PUSH2 0x2861 JUMPI PUSH1 0x7F DUP3 AND SWAP2 POP JUMPDEST PUSH1 0x20 DUP3 LT DUP2 SUB PUSH2 0x287F JUMPI PUSH4 0x4E487B71 PUSH1 0xE0 SHL PUSH0 MSTORE PUSH1 0x22 PUSH1 0x4 MSTORE PUSH1 0x24 PUSH0 REVERT JUMPDEST POP SWAP2 SWAP1 POP JUMP JUMPDEST PUSH1 0x1 PUSH1 0x1 PUSH1 0xA0 SHL SUB DUP8 DUP2 AND DUP3 MSTORE DUP7 AND PUSH1 0x20 DUP3 ADD MSTORE PUSH1 0x40 DUP2 ADD DUP6 SWAP1 MSTORE PUSH1 0x60 DUP2 ADD DUP5 SWAP1 MSTORE PUSH1 0xA0 PUSH1 0x80 DUP3 ADD DUP2 SWAP1 MSTORE DUP2 ADD DUP3 SWAP1 MSTORE DUP2 DUP4 PUSH1 0xC0 DUP4 ADD CALLDATACOPY PUSH0 DUP2 DUP4 ADD PUSH1 0xC0 SWAP1 DUP2 ADD SWAP2 SWAP1 SWAP2 MSTORE PUSH1 0x1F SWAP1 SWAP3 ADD PUSH1 0x1F NOT AND ADD ADD SWAP6 SWAP5 POP POP POP POP POP JUMP JUMPDEST PUSH0 PUSH1 0x20 DUP3 DUP5 SUB SLT ISZERO PUSH2 0x28ED JUMPI PUSH0 PUSH0 REVERT JUMPDEST POP MLOAD SWAP2 SWAP1 POP JUMP JUMPDEST PUSH4 0x4E487B71 PUSH1 0xE0 SHL PUSH0 MSTORE PUSH1 0x11 PUSH1 0x4 MSTORE PUSH1 0x24 PUSH0 REVERT JUMPDEST DUP1 DUP3 ADD DUP1 DUP3 GT ISZERO PUSH2 0x633 JUMPI PUSH2 0x633 PUSH2 0x28F4 JUMP JUMPDEST DUP2 DUP2 SUB DUP2 DUP2 GT ISZERO PUSH2 0x633 JUMPI PUSH2 0x633 PUSH2 0x28F4 JUMP JUMPDEST PUSH1 0x1 PUSH1 0x1 PUSH1 0xA0 SHL SUB DUP6 DUP2 AND DUP3 MSTORE DUP5 AND PUSH1 0x20 DUP3 ADD MSTORE PUSH1 0x40 DUP2 ADD DUP4 SWAP1 MSTORE PUSH1 0x80 PUSH1 0x60 DUP3 ADD DUP2 SWAP1 MSTORE PUSH0 SWAP1 PUSH2 0x2960 SWAP1 DUP4 ADD DUP5 PUSH2 0x2394 JUMP JUMPDEST SWAP7 SWAP6 POP POP POP POP POP POP JUMP JUMPDEST PUSH0 PUSH1 0x20 DUP3 DUP5 SUB SLT ISZERO PUSH2 0x297A JUMPI PUSH0 PUSH0 REVERT JUMPDEST DUP2 MLOAD PUSH2 0x6FA DUP2 PUSH2 0x2364 JUMP JUMPDEST PUSH1 0x1 DUP1 PUSH1 0xA0 SHL SUB DUP5 AND DUP2 MSTORE DUP3 PUSH1 0x20 DUP3 ADD MSTORE PUSH1 0x60 PUSH1 0x40 DUP3 ADD MSTORE PUSH0 PUSH2 0x29AB PUSH1 0x60 DUP4 ADD DUP5 PUSH2 0x2394 JUMP JUMPDEST SWAP6 SWAP5 POP POP POP POP POP JUMP JUMPDEST PUSH4 0x4E487B71 PUSH1 0xE0 SHL PUSH0 MSTORE PUSH1 0x12 PUSH1 0x4 MSTORE PUSH1 0x24 PUSH0 REVERT JUMPDEST PUSH4 0x4E487B71 PUSH1 0xE0 SHL PUSH0 MSTORE PUSH1 0x21 PUSH1 0x4 MSTORE PUSH1 0x24 PUSH0 REVERT JUMPDEST PUSH4 0x4E487B71 PUSH1 0xE0 SHL PUSH0 MSTORE PUSH1 0x32 PUSH1 0x4 MSTORE PUSH1 0x24 PUSH0 REVERT JUMPDEST PUSH0 DUP3 PUSH2 0x2A0A JUMPI PUSH4 0x4E487B71 PUSH1 0xE0 SHL PUSH0 MSTORE PUSH1 0x12 PUSH1 0x4 MSTORE PUSH1 0x24 PUSH0 REVERT JUMPDEST POP DIV SWAP1 JUMP JUMPDEST PUSH1 0x1 PUSH1 0x1 PUSH1 0xD0 SHL SUB DUP3 DUP2 AND DUP3 DUP3 AND SUB SWAP1 DUP2 GT ISZERO PUSH2 0x633 JUMPI PUSH2 0x633 PUSH2 0x28F4 JUMP JUMPDEST PUSH1 0x1 PUSH1 0x1 PUSH1 0xD0 SHL SUB DUP2 DUP2 AND DUP4 DUP3 AND ADD SWAP1 DUP2 GT ISZERO PUSH2 0x633 JUMPI PUSH2 0x633 PUSH2 0x28F4 JUMP INVALID LOG2 PUSH5 0x6970667358 0x22 SLT KECCAK256 REVERT 0x24 EQ BYTE SWAP13 DUP10 0x4B SELFDESTRUCT PREVRANDAO PUSH8 0xE43EB6789BA6F99B 0xCB DUP2 PUSH24 0x9DFA1C976E186A09D7E0D964736F6C634300081C00330000 "},"methodIdentifiers":{"CLOCK_MODE()":"4bf5d7e9","DOMAIN_SEPARATOR()":"3644e515","allowance(address,address)":"dd62ed3e","approve(address,uint256)":"095ea7b3","approveAndCall(address,uint256)":"3177029f","approveAndCall(address,uint256,bytes)":"cae9ca51","balanceOf(address)":"70a08231","burn(uint256)":"42966c68","burnFrom(address,uint256)":"79cc6790","checkpoints(address,uint32)":"f1127ed8","clock()":"91ddadf4","decimals()":"313ce567","delegate(address)":"5c19a95c","delegateBySig(address,uint256,uint256,uint8,bytes32,bytes32)":"c3cda520","delegates(address)":"587cde1e","eip712Domain()":"84b0196e","flashFee(address,uint256)":"d9d98ce4","flashLoan(address,address,uint256,bytes)":"5cffe9de","getPastTotalSupply(uint256)":"8e539e8c","getPastVotes(address,uint256)":"3a46b1a8","getVotes(address)":"9ab24eb0","maxFlashLoan(address)":"613255ab","mint(address,uint256)":"40c10f19","name()":"06fdde03","nonces(address)":"7ecebe00","numCheckpoints(address)":"6fcfff45","owner()":"8da5cb5b","pause()":"8456cb59","paused()":"5c975abb","permit(address,address,uint256,uint256,uint8,bytes32,bytes32)":"d505accf","renounceOwnership()":"715018a6","supportsInterface(bytes4)":"01ffc9a7","symbol()":"95d89b41","totalSupply()":"18160ddd","transfer(address,uint256)":"a9059cbb","transferAndCall(address,uint256)":"1296ee62","transferAndCall(address,uint256,bytes)":"4000aea0","transferFrom(address,address,uint256)":"23b872dd","transferFromAndCall(address,address,uint256)":"d8fbe994","transferFromAndCall(address,address,uint256,bytes)":"c1d34b89","transferOwnership(address)":"f2fde38b","unpause()":"3f4ba83a"}}}}}