{
  "_format": "hh3-artifact-1",
  "contractName": "TokenFactory",
  "sourceName": "contracts/TokenFactory.sol",
  "abi": [
    {
      "inputs": [],
      "stateMutability": "nonpayable",
      "type": "constructor"
    },
    {
      "inputs": [
        {
          "internalType": "address",
          "name": "target",
          "type": "address"
        }
      ],
      "name": "AddressEmptyCode",
      "type": "error"
    },
    {
      "inputs": [
        {
          "internalType": "address",
          "name": "implementation",
          "type": "address"
        }
      ],
      "name": "ERC1967InvalidImplementation",
      "type": "error"
    },
    {
      "inputs": [],
      "name": "ERC1967NonPayable",
      "type": "error"
    },
    {
      "inputs": [],
      "name": "FailedCall",
      "type": "error"
    },
    {
      "inputs": [],
      "name": "InvalidInitialization",
      "type": "error"
    },
    {
      "inputs": [],
      "name": "NotInitializing",
      "type": "error"
    },
    {
      "inputs": [
        {
          "internalType": "address",
          "name": "owner",
          "type": "address"
        }
      ],
      "name": "OwnableInvalidOwner",
      "type": "error"
    },
    {
      "inputs": [
        {
          "internalType": "address",
          "name": "account",
          "type": "address"
        }
      ],
      "name": "OwnableUnauthorizedAccount",
      "type": "error"
    },
    {
      "inputs": [],
      "name": "ReentrancyGuardReentrantCall",
      "type": "error"
    },
    {
      "inputs": [],
      "name": "UUPSUnauthorizedCallContext",
      "type": "error"
    },
    {
      "inputs": [
        {
          "internalType": "bytes32",
          "name": "slot",
          "type": "bytes32"
        }
      ],
      "name": "UUPSUnsupportedProxiableUUID",
      "type": "error"
    },
    {
      "anonymous": false,
      "inputs": [
        {
          "indexed": false,
          "internalType": "uint64",
          "name": "version",
          "type": "uint64"
        }
      ],
      "name": "Initialized",
      "type": "event"
    },
    {
      "anonymous": false,
      "inputs": [
        {
          "indexed": true,
          "internalType": "address",
          "name": "previousOwner",
          "type": "address"
        },
        {
          "indexed": true,
          "internalType": "address",
          "name": "newOwner",
          "type": "address"
        }
      ],
      "name": "OwnershipTransferred",
      "type": "event"
    },
    {
      "anonymous": false,
      "inputs": [
        {
          "indexed": true,
          "internalType": "address",
          "name": "tokenAddress",
          "type": "address"
        }
      ],
      "name": "TokenCreated",
      "type": "event"
    },
    {
      "anonymous": false,
      "inputs": [
        {
          "indexed": true,
          "internalType": "address",
          "name": "implementation",
          "type": "address"
        }
      ],
      "name": "Upgraded",
      "type": "event"
    },
    {
      "inputs": [],
      "name": "UPGRADE_INTERFACE_VERSION",
      "outputs": [
        {
          "internalType": "string",
          "name": "",
          "type": "string"
        }
      ],
      "stateMutability": "view",
      "type": "function"
    },
    {
      "inputs": [
        {
          "internalType": "string",
          "name": "name",
          "type": "string"
        },
        {
          "internalType": "string",
          "name": "symbol",
          "type": "string"
        }
      ],
      "name": "createToken",
      "outputs": [],
      "stateMutability": "nonpayable",
      "type": "function"
    },
    {
      "inputs": [
        {
          "internalType": "address",
          "name": "",
          "type": "address"
        }
      ],
      "name": "createdTokens",
      "outputs": [
        {
          "internalType": "address",
          "name": "token",
          "type": "address"
        },
        {
          "internalType": "address",
          "name": "beacon",
          "type": "address"
        }
      ],
      "stateMutability": "view",
      "type": "function"
    },
    {
      "inputs": [
        {
          "internalType": "address",
          "name": "_tokenBeaconAddress",
          "type": "address"
        }
      ],
      "name": "initialize",
      "outputs": [],
      "stateMutability": "nonpayable",
      "type": "function"
    },
    {
      "inputs": [
        {
          "internalType": "address",
          "name": "tokenAddress",
          "type": "address"
        },
        {
          "internalType": "address",
          "name": "to",
          "type": "address"
        },
        {
          "internalType": "uint256",
          "name": "amount",
          "type": "uint256"
        }
      ],
      "name": "mintTokens",
      "outputs": [],
      "stateMutability": "nonpayable",
      "type": "function"
    },
    {
      "inputs": [],
      "name": "owner",
      "outputs": [
        {
          "internalType": "address",
          "name": "",
          "type": "address"
        }
      ],
      "stateMutability": "view",
      "type": "function"
    },
    {
      "inputs": [],
      "name": "proxiableUUID",
      "outputs": [
        {
          "internalType": "bytes32",
          "name": "",
          "type": "bytes32"
        }
      ],
      "stateMutability": "view",
      "type": "function"
    },
    {
      "inputs": [],
      "name": "renounceOwnership",
      "outputs": [],
      "stateMutability": "nonpayable",
      "type": "function"
    },
    {
      "inputs": [],
      "name": "tokenBeaconAddress",
      "outputs": [
        {
          "internalType": "address",
          "name": "",
          "type": "address"
        }
      ],
      "stateMutability": "view",
      "type": "function"
    },
    {
      "inputs": [
        {
          "internalType": "address",
          "name": "newOwner",
          "type": "address"
        }
      ],
      "name": "transferOwnership",
      "outputs": [],
      "stateMutability": "nonpayable",
      "type": "function"
    },
    {
      "inputs": [
        {
          "internalType": "address",
          "name": "newImplementation",
          "type": "address"
        },
        {
          "internalType": "bytes",
          "name": "data",
          "type": "bytes"
        }
      ],
      "name": "upgradeToAndCall",
      "outputs": [],
      "stateMutability": "payable",
      "type": "function"
    }
  ],
  "bytecode": "0x60a060405230608052348015610013575f5ffd5b5061001c610021565b6100d3565b7ff0c57e16840df040f15088dc2f81fe391c3923bec73e23a9662efc9c229c6a00805468010000000000000000900460ff16156100715760405163f92ee8a960e01b815260040160405180910390fd5b80546001600160401b03908116146100d05780546001600160401b0319166001600160401b0390811782556040519081527fc7f505b2f371ae2175ee4913f4499e1f2633a7b5936321eed1cdaeb6115181d29060200160405180910390a15b50565b6080516113ee6100f95f395f81816106a7015281816106d0015261080f01526113ee5ff3fe60806040526004361061009a575f3560e01c8063715018a611610062578063715018a61461014e5780638da5cb5b14610162578063ad3cb1cc1461019e578063b3126103146101db578063c4d66de81461023a578063f2fde38b14610259575f5ffd5b80632f2f2d561461009e5780634f1ef286146100bf57806352d1902d146100d25780636ae4d1fa146100f95780636fc98ee11461012f575b5f5ffd5b3480156100a9575f5ffd5b506100bd6100b8366004610c20565b610278565b005b6100bd6100cd366004610ca0565b610407565b3480156100dd575f5ffd5b506100e6610422565b6040519081526020015b60405180910390f35b348015610104575f5ffd5b505f54610117906001600160a01b031681565b6040516001600160a01b0390911681526020016100f0565b34801561013a575f5ffd5b506100bd610149366004610cf4565b61043d565b348015610159575f5ffd5b506100bd6104c5565b34801561016d575f5ffd5b507f9016d09d72d40fdae2fd8ceac6b6234c7706214fd39c1cd1e609a0528c199300546001600160a01b0316610117565b3480156101a9575f5ffd5b506101ce604051806040016040528060058152602001640352e302e360dc1b81525081565b6040516100f09190610d5b565b3480156101e6575f5ffd5b5061021a6101f5366004610d6d565b600160208190525f918252604090912080549101546001600160a01b03918216911682565b604080516001600160a01b039384168152929091166020830152016100f0565b348015610245575f5ffd5b506100bd610254366004610d6d565b6104d8565b348015610264575f5ffd5b506100bd610273366004610d6d565b610610565b610280610652565b5f634cd88b7660e01b838360405160240161029c929190610d86565b60408051601f198184030181529181526020820180516001600160e01b03166001600160e01b0319909416939093179092525f80549251919350916001600160a01b03169083906102ec90610b6a565b6102f7929190610daa565b604051809103905ff080158015610310573d5f5f3e3d5ffd5b506040805180820182526001600160a01b038381168083525f80548316602080860191825283835260019081905291869020945185549085166001600160a01b031991821617865590519490910180549490931693169290921790559051637e51dad560e11b81523060048201529192509063fca3b5aa906024015f604051808303815f87803b1580156103a2575f5ffd5b505af11580156103b4573d5f5f3e3d5ffd5b50506040516001600160a01b03841692507f2e2b3f61b70d2d131b2a807371103cc98d51adcaa5e9a8f9c32658ad8426e74e91505f90a2505061040360015f5160206113995f395f51905f5255565b5050565b61040f61069c565b61041882610740565b6104038282610748565b5f61042b610804565b505f5160206113795f395f51905f5290565b610445610652565b61044d61084d565b604051633c37699760e21b81526001600160a01b0383811660048301526024820183905284169063f0dda65c906044015f604051808303815f87803b158015610494575f5ffd5b505af11580156104a6573d5f5f3e3d5ffd5b505050506104c060015f5160206113995f395f51905f5255565b505050565b6104cd61084d565b6104d65f6108a8565b565b7ff0c57e16840df040f15088dc2f81fe391c3923bec73e23a9662efc9c229c6a008054600160401b810460ff16159067ffffffffffffffff165f8115801561051d5750825b90505f8267ffffffffffffffff1660011480156105395750303b155b905081158015610547575080155b156105655760405163f92ee8a960e01b815260040160405180910390fd5b845467ffffffffffffffff19166001178555831561058f57845460ff60401b1916600160401b1785555b61059833610918565b6105a0610929565b6105a8610931565b5f80546001600160a01b0319166001600160a01b038816179055831561060857845460ff60401b19168555604051600181527fc7f505b2f371ae2175ee4913f4499e1f2633a7b5936321eed1cdaeb6115181d29060200160405180910390a15b505050505050565b61061861084d565b6001600160a01b03811661064657604051631e4fbdf760e01b81525f60048201526024015b60405180910390fd5b61064f816108a8565b50565b5f5160206113995f395f51905f5280546001190161068357604051633ee5aeb560e01b815260040160405180910390fd5b60029055565b60015f5160206113995f395f51905f5255565b306001600160a01b037f000000000000000000000000000000000000000000000000000000000000000016148061072257507f00000000000000000000000000000000000000000000000000000000000000006001600160a01b03166107165f5160206113795f395f51905f52546001600160a01b031690565b6001600160a01b031614155b156104d65760405163703e46dd60e11b815260040160405180910390fd5b61064f61084d565b816001600160a01b03166352d1902d6040518163ffffffff1660e01b8152600401602060405180830381865afa9250505080156107a2575060408051601f3d908101601f1916820190925261079f91810190610dd5565b60015b6107ca57604051634c9c8ce360e01b81526001600160a01b038316600482015260240161063d565b5f5160206113795f395f51905f5281146107fa57604051632a87526960e21b81526004810182905260240161063d565b6104c08383610941565b306001600160a01b037f000000000000000000000000000000000000000000000000000000000000000016146104d65760405163703e46dd60e11b815260040160405180910390fd5b3361087f7f9016d09d72d40fdae2fd8ceac6b6234c7706214fd39c1cd1e609a0528c199300546001600160a01b031690565b6001600160a01b0316146104d65760405163118cdaa760e01b815233600482015260240161063d565b7f9016d09d72d40fdae2fd8ceac6b6234c7706214fd39c1cd1e609a0528c19930080546001600160a01b031981166001600160a01b03848116918217845560405192169182907f8be0079c531659141344cd1fd0a4f28419497f9722a3daafe3b4186f6b6457e0905f90a3505050565b610920610996565b61064f816109df565b6104d6610996565b610939610996565b6104d66109e7565b61094a826109ef565b6040516001600160a01b038316907fbc7cd75a20ee27fd9adebab32041f755214dbc6bffa90cc0225b39da2e5c2d3b905f90a280511561098e576104c08282610a52565b610403610ac4565b7ff0c57e16840df040f15088dc2f81fe391c3923bec73e23a9662efc9c229c6a0054600160401b900460ff166104d657604051631afcd79f60e31b815260040160405180910390fd5b610618610996565b610689610996565b806001600160a01b03163b5f03610a2457604051634c9c8ce360e01b81526001600160a01b038216600482015260240161063d565b5f5160206113795f395f51905f5280546001600160a01b0319166001600160a01b0392909216919091179055565b60605f5f846001600160a01b031684604051610a6e9190610dec565b5f60405180830381855af49150503d805f8114610aa6576040519150601f19603f3d011682016040523d82523d5f602084013e610aab565b606091505b5091509150610abb858383610ae3565b95945050505050565b34156104d65760405163b398979f60e01b815260040160405180910390fd5b606082610af857610af382610b42565b610b3b565b8151158015610b0f57506001600160a01b0384163b155b15610b3857604051639996b31560e01b81526001600160a01b038516600482015260240161063d565b50805b9392505050565b805115610b5157805160208201fd5b60405163d6bda27560e01b815260040160405180910390fd5b61057680610e0383390190565b634e487b7160e01b5f52604160045260245ffd5b5f5f67ffffffffffffffff841115610ba557610ba5610b77565b50604051601f19601f85018116603f0116810181811067ffffffffffffffff82111715610bd457610bd4610b77565b604052838152905080828401851015610beb575f5ffd5b838360208301375f60208583010152509392505050565b5f82601f830112610c11575f5ffd5b610b3b83833560208501610b8b565b5f5f60408385031215610c31575f5ffd5b823567ffffffffffffffff811115610c47575f5ffd5b610c5385828601610c02565b925050602083013567ffffffffffffffff811115610c6f575f5ffd5b610c7b85828601610c02565b9150509250929050565b80356001600160a01b0381168114610c9b575f5ffd5b919050565b5f5f60408385031215610cb1575f5ffd5b610cba83610c85565b9150602083013567ffffffffffffffff811115610cd5575f5ffd5b8301601f81018513610ce5575f5ffd5b610c7b85823560208401610b8b565b5f5f5f60608486031215610d06575f5ffd5b610d0f84610c85565b9250610d1d60208501610c85565b9150604084013590509250925092565b5f81518084528060208401602086015e5f602082860101526020601f19601f83011685010191505092915050565b602081525f610b3b6020830184610d2d565b5f60208284031215610d7d575f5ffd5b610b3b82610c85565b604081525f610d986040830185610d2d565b8281036020840152610abb8185610d2d565b6001600160a01b03831681526040602082018190525f90610dcd90830184610d2d565b949350505050565b5f60208284031215610de5575f5ffd5b5051919050565b5f82518060208501845e5f92019182525091905056fe60a060405260405161057638038061057683398101604081905261002291610353565b61002c828261003e565b506001600160a01b0316608052610444565b610047826100fb565b6040516001600160a01b038316907f1cf3b03a6cf19fa2baba4df148e9dcabedea7f8a5c07840e207e5c089be95d3e905f90a28051156100ef576100ea826001600160a01b0316635c60da1b6040518163ffffffff1660e01b8152600401602060405180830381865afa1580156100c0573d5f5f3e3d5ffd5b505050506040513d601f19601f820116820180604052508101906100e49190610415565b82610209565b505050565b6100f761027c565b5050565b806001600160a01b03163b5f0361013557604051631933b43b60e21b81526001600160a01b03821660048201526024015b60405180910390fd5b807fa3f0ad74e5423aebfd80d3ef4346578335a9a72aeaee59ff6cb3582b35133d5080546001600160a01b0319166001600160a01b0392831617905560408051635c60da1b60e01b815290515f92841691635c60da1b9160048083019260209291908290030181865afa1580156101ae573d5f5f3e3d5ffd5b505050506040513d601f19601f820116820180604052508101906101d29190610415565b9050806001600160a01b03163b5f036100f757604051634c9c8ce360e01b81526001600160a01b038216600482015260240161012c565b60605f5f846001600160a01b031684604051610225919061042e565b5f60405180830381855af49150503d805f811461025d576040519150601f19603f3d011682016040523d82523d5f602084013e610262565b606091505b50909250905061027385838361029d565b95945050505050565b341561029b5760405163b398979f60e01b815260040160405180910390fd5b565b6060826102b2576102ad826102fc565b6102f5565b81511580156102c957506001600160a01b0384163b155b156102f257604051639996b31560e01b81526001600160a01b038516600482015260240161012c565b50805b9392505050565b80511561030b57805160208201fd5b60405163d6bda27560e01b815260040160405180910390fd5b80516001600160a01b038116811461033a575f5ffd5b919050565b634e487b7160e01b5f52604160045260245ffd5b5f5f60408385031215610364575f5ffd5b61036d83610324565b60208401519092506001600160401b03811115610388575f5ffd5b8301601f81018513610398575f5ffd5b80516001600160401b038111156103b1576103b161033f565b604051601f8201601f19908116603f011681016001600160401b03811182821017156103df576103df61033f565b6040528181528282016020018710156103f6575f5ffd5b8160208401602083015e5f602083830101528093505050509250929050565b5f60208284031215610425575f5ffd5b6102f582610324565b5f82518060208501845e5f920191825250919050565b60805161011b61045b5f395f601d015261011b5ff3fe6080604052600a600c565b005b60186014601a565b609d565b565b5f7f00000000000000000000000000000000000000000000000000000000000000006001600160a01b0316635c60da1b6040518163ffffffff1660e01b8152600401602060405180830381865afa1580156076573d5f5f3e3d5ffd5b505050506040513d601f19601f820116820180604052508101906098919060ba565b905090565b365f5f375f5f365f845af43d5f5f3e80801560b6573d5ff35b3d5ffd5b5f6020828403121560c9575f5ffd5b81516001600160a01b038116811460de575f5ffd5b939250505056fea2646970667358221220c6d6ef537c8571798336619f5c83af516530d894a4a5fd947491bf44fdc809e264736f6c634300081c0033360894a13ba1a3210667c828492db98dca3e2076cc3735a920a3ca505d382bbc9b779b17422d0df92223018b32b4d1fa46e071723d6817e2486d003becc55f00a2646970667358221220007d97b83cc3ef8208b878db177e8758f18007fab24ba2bc7072ca834b93bac664736f6c634300081c0033",
  "linkReferences": {},
  "deployedLinkReferences": {},
  "immutableReferences": {
    "482": [
      {
        "length": 32,
        "start": 1703
      },
      {
        "length": 32,
        "start": 1744
      },
      {
        "length": 32,
        "start": 2063
      }
    ]
  },
  "inputSourceName": "project/contracts/TokenFactory.sol",
  "buildInfoId": "solc-0_8_28-dd54ad5ed6b96b4906db171ef18637c2aeae4a89"
}