{
  "_format": "hh3-artifact-1",
  "contractName": "TokenFactory",
  "sourceName": "contracts/TokenFactory.sol",
  "abi": [
    {
      "inputs": [],
      "stateMutability": "nonpayable",
      "type": "constructor"
    },
    {
      "inputs": [],
      "name": "InvalidInitialization",
      "type": "error"
    },
    {
      "inputs": [],
      "name": "NotInitializing",
      "type": "error"
    },
    {
      "inputs": [
        {
          "internalType": "address",
          "name": "owner",
          "type": "address"
        }
      ],
      "name": "OwnableInvalidOwner",
      "type": "error"
    },
    {
      "inputs": [
        {
          "internalType": "address",
          "name": "account",
          "type": "address"
        }
      ],
      "name": "OwnableUnauthorizedAccount",
      "type": "error"
    },
    {
      "inputs": [],
      "name": "ReentrancyGuardReentrantCall",
      "type": "error"
    },
    {
      "anonymous": false,
      "inputs": [
        {
          "indexed": false,
          "internalType": "uint64",
          "name": "version",
          "type": "uint64"
        }
      ],
      "name": "Initialized",
      "type": "event"
    },
    {
      "anonymous": false,
      "inputs": [
        {
          "indexed": true,
          "internalType": "address",
          "name": "previousOwner",
          "type": "address"
        },
        {
          "indexed": true,
          "internalType": "address",
          "name": "newOwner",
          "type": "address"
        }
      ],
      "name": "OwnershipTransferred",
      "type": "event"
    },
    {
      "anonymous": false,
      "inputs": [
        {
          "indexed": true,
          "internalType": "address",
          "name": "tokenAddress",
          "type": "address"
        }
      ],
      "name": "TokenCreated",
      "type": "event"
    },
    {
      "inputs": [
        {
          "internalType": "address",
          "name": "tokenAddress",
          "type": "address"
        },
        {
          "internalType": "uint256",
          "name": "amount",
          "type": "uint256"
        }
      ],
      "name": "burnTokens",
      "outputs": [],
      "stateMutability": "nonpayable",
      "type": "function"
    },
    {
      "inputs": [
        {
          "internalType": "string",
          "name": "name",
          "type": "string"
        },
        {
          "internalType": "string",
          "name": "symbol",
          "type": "string"
        }
      ],
      "name": "createToken",
      "outputs": [],
      "stateMutability": "nonpayable",
      "type": "function"
    },
    {
      "inputs": [
        {
          "internalType": "address",
          "name": "",
          "type": "address"
        }
      ],
      "name": "createdTokens",
      "outputs": [
        {
          "internalType": "address",
          "name": "token",
          "type": "address"
        },
        {
          "internalType": "address",
          "name": "beacon",
          "type": "address"
        }
      ],
      "stateMutability": "view",
      "type": "function"
    },
    {
      "inputs": [
        {
          "internalType": "address",
          "name": "_tokenBeaconAddress",
          "type": "address"
        }
      ],
      "name": "initialize",
      "outputs": [],
      "stateMutability": "nonpayable",
      "type": "function"
    },
    {
      "inputs": [
        {
          "internalType": "address",
          "name": "tokenAddress",
          "type": "address"
        },
        {
          "internalType": "address",
          "name": "to",
          "type": "address"
        },
        {
          "internalType": "uint256",
          "name": "amount",
          "type": "uint256"
        }
      ],
      "name": "mintTokens",
      "outputs": [],
      "stateMutability": "nonpayable",
      "type": "function"
    },
    {
      "inputs": [],
      "name": "owner",
      "outputs": [
        {
          "internalType": "address",
          "name": "",
          "type": "address"
        }
      ],
      "stateMutability": "view",
      "type": "function"
    },
    {
      "inputs": [],
      "name": "renounceOwnership",
      "outputs": [],
      "stateMutability": "nonpayable",
      "type": "function"
    },
    {
      "inputs": [],
      "name": "tokenBeaconAddress",
      "outputs": [
        {
          "internalType": "address",
          "name": "",
          "type": "address"
        }
      ],
      "stateMutability": "view",
      "type": "function"
    },
    {
      "inputs": [
        {
          "internalType": "address",
          "name": "newOwner",
          "type": "address"
        }
      ],
      "name": "transferOwnership",
      "outputs": [],
      "stateMutability": "nonpayable",
      "type": "function"
    }
  ],
  "bytecode": "0x6080604052348015600e575f5ffd5b5060156019565b60c9565b7ff0c57e16840df040f15088dc2f81fe391c3923bec73e23a9662efc9c229c6a00805468010000000000000000900460ff161560685760405163f92ee8a960e01b815260040160405180910390fd5b80546001600160401b039081161460c65780546001600160401b0319166001600160401b0390811782556040519081527fc7f505b2f371ae2175ee4913f4499e1f2633a7b5936321eed1cdaeb6115181d29060200160405180910390a15b50565b610f55806100d65f395ff3fe608060405234801561000f575f5ffd5b5060043610610090575f3560e01c8063715018a611610063578063715018a6146100fe5780638da5cb5b14610106578063b312610314610136578063c4d66de814610189578063f2fde38b1461019c575f5ffd5b80630d1118ce146100945780632f2f2d56146100a95780636ae4d1fa146100bc5780636fc98ee1146100eb575b5f5ffd5b6100a76100a236600461077d565b6101af565b005b6100a76100b7366004610844565b61022e565b5f546100ce906001600160a01b031681565b6040516001600160a01b0390911681526020015b60405180910390f35b6100a76100f93660046108a9565b6103b9565b6100a7610441565b7f9016d09d72d40fdae2fd8ceac6b6234c7706214fd39c1cd1e609a0528c199300546001600160a01b03166100ce565b6101696101443660046108e3565b600160208190525f918252604090912080549101546001600160a01b03918216911682565b604080516001600160a01b039384168152929091166020830152016100e2565b6100a76101973660046108e3565b610454565b6100a76101aa3660046108e3565b610584565b6101b76105c6565b6101bf6105fd565b604051630852cd8d60e31b8152600481018290526001600160a01b038316906342966c68906024015f604051808303815f87803b1580156101fe575f5ffd5b505af1158015610210573d5f5f3e3d5ffd5b5050505061022a60015f516020610f005f395f51905f5255565b5050565b6102366105c6565b5f634cd88b7660e01b8383604051602401610252929190610931565b60408051601f198184030181529181526020820180516001600160e01b03166001600160e01b0319909416939093179092525f80549251919350916001600160a01b03169083906102a290610755565b6102ad92919061095e565b604051809103905ff0801580156102c6573d5f5f3e3d5ffd5b506040805180820182526001600160a01b038381168083525f80548316602080860191825283835260019081905291869020945185549085166001600160a01b031991821617865590519490910180549490931693169290921790559051637e51dad560e11b81523060048201529192509063fca3b5aa906024015f604051808303815f87803b158015610358575f5ffd5b505af115801561036a573d5f5f3e3d5ffd5b50506040516001600160a01b03841692507f2e2b3f61b70d2d131b2a807371103cc98d51adcaa5e9a8f9c32658ad8426e74e91505f90a2505061022a60015f516020610f005f395f51905f5255565b6103c16105c6565b6103c96105fd565b604051633c37699760e21b81526001600160a01b0383811660048301526024820183905284169063f0dda65c906044015f604051808303815f87803b158015610410575f5ffd5b505af1158015610422573d5f5f3e3d5ffd5b5050505061043c60015f516020610f005f395f51905f5255565b505050565b6104496105fd565b6104525f61066b565b565b7ff0c57e16840df040f15088dc2f81fe391c3923bec73e23a9662efc9c229c6a008054600160401b810460ff16159067ffffffffffffffff165f811580156104995750825b90505f8267ffffffffffffffff1660011480156104b55750303b155b9050811580156104c3575080155b156104e15760405163f92ee8a960e01b815260040160405180910390fd5b845467ffffffffffffffff19166001178555831561050b57845460ff60401b1916600160401b1785555b610514336106db565b61051c6106ec565b5f80546001600160a01b0319166001600160a01b038816179055831561057c57845460ff60401b19168555604051600181527fc7f505b2f371ae2175ee4913f4499e1f2633a7b5936321eed1cdaeb6115181d29060200160405180910390a15b505050505050565b61058c6105fd565b6001600160a01b0381166105ba57604051631e4fbdf760e01b81525f60048201526024015b60405180910390fd5b6105c38161066b565b50565b5f516020610f005f395f51905f528054600119016105f757604051633ee5aeb560e01b815260040160405180910390fd5b60029055565b3361062f7f9016d09d72d40fdae2fd8ceac6b6234c7706214fd39c1cd1e609a0528c199300546001600160a01b031690565b6001600160a01b0316146104525760405163118cdaa760e01b81523360048201526024016105b1565b60015f516020610f005f395f51905f5255565b7f9016d09d72d40fdae2fd8ceac6b6234c7706214fd39c1cd1e609a0528c19930080546001600160a01b031981166001600160a01b03848116918217845560405192169182907f8be0079c531659141344cd1fd0a4f28419497f9722a3daafe3b4186f6b6457e0905f90a3505050565b6106e36106fc565b6105c381610745565b6106f46106fc565b61045261074d565b7ff0c57e16840df040f15088dc2f81fe391c3923bec73e23a9662efc9c229c6a0054600160401b900460ff1661045257604051631afcd79f60e31b815260040160405180910390fd5b61058c6106fc565b6106586106fc565b6105768061098a83390190565b80356001600160a01b0381168114610778575f5ffd5b919050565b5f5f6040838503121561078e575f5ffd5b61079783610762565b946020939093013593505050565b634e487b7160e01b5f52604160045260245ffd5b5f82601f8301126107c8575f5ffd5b813567ffffffffffffffff8111156107e2576107e26107a5565b604051601f8201601f19908116603f0116810167ffffffffffffffff81118282101715610811576108116107a5565b604052818152838201602001851015610828575f5ffd5b816020850160208301375f918101602001919091529392505050565b5f5f60408385031215610855575f5ffd5b823567ffffffffffffffff81111561086b575f5ffd5b610877858286016107b9565b925050602083013567ffffffffffffffff811115610893575f5ffd5b61089f858286016107b9565b9150509250929050565b5f5f5f606084860312156108bb575f5ffd5b6108c484610762565b92506108d260208501610762565b929592945050506040919091013590565b5f602082840312156108f3575f5ffd5b6108fc82610762565b9392505050565b5f81518084528060208401602086015e5f602082860101526020601f19601f83011685010191505092915050565b604081525f6109436040830185610903565b82810360208401526109558185610903565b95945050505050565b6001600160a01b03831681526040602082018190525f9061098190830184610903565b94935050505056fe60a060405260405161057638038061057683398101604081905261002291610353565b61002c828261003e565b506001600160a01b0316608052610444565b610047826100fb565b6040516001600160a01b038316907f1cf3b03a6cf19fa2baba4df148e9dcabedea7f8a5c07840e207e5c089be95d3e905f90a28051156100ef576100ea826001600160a01b0316635c60da1b6040518163ffffffff1660e01b8152600401602060405180830381865afa1580156100c0573d5f5f3e3d5ffd5b505050506040513d601f19601f820116820180604052508101906100e49190610415565b82610209565b505050565b6100f761027c565b5050565b806001600160a01b03163b5f0361013557604051631933b43b60e21b81526001600160a01b03821660048201526024015b60405180910390fd5b807fa3f0ad74e5423aebfd80d3ef4346578335a9a72aeaee59ff6cb3582b35133d5080546001600160a01b0319166001600160a01b0392831617905560408051635c60da1b60e01b815290515f92841691635c60da1b9160048083019260209291908290030181865afa1580156101ae573d5f5f3e3d5ffd5b505050506040513d601f19601f820116820180604052508101906101d29190610415565b9050806001600160a01b03163b5f036100f757604051634c9c8ce360e01b81526001600160a01b038216600482015260240161012c565b60605f5f846001600160a01b031684604051610225919061042e565b5f60405180830381855af49150503d805f811461025d576040519150601f19603f3d011682016040523d82523d5f602084013e610262565b606091505b50909250905061027385838361029d565b95945050505050565b341561029b5760405163b398979f60e01b815260040160405180910390fd5b565b6060826102b2576102ad826102fc565b6102f5565b81511580156102c957506001600160a01b0384163b155b156102f257604051639996b31560e01b81526001600160a01b038516600482015260240161012c565b50805b9392505050565b80511561030b57805160208201fd5b60405163d6bda27560e01b815260040160405180910390fd5b80516001600160a01b038116811461033a575f5ffd5b919050565b634e487b7160e01b5f52604160045260245ffd5b5f5f60408385031215610364575f5ffd5b61036d83610324565b60208401519092506001600160401b03811115610388575f5ffd5b8301601f81018513610398575f5ffd5b80516001600160401b038111156103b1576103b161033f565b604051601f8201601f19908116603f011681016001600160401b03811182821017156103df576103df61033f565b6040528181528282016020018710156103f6575f5ffd5b8160208401602083015e5f602083830101528093505050509250929050565b5f60208284031215610425575f5ffd5b6102f582610324565b5f82518060208501845e5f920191825250919050565b60805161011b61045b5f395f601d015261011b5ff3fe6080604052600a600c565b005b60186014601a565b609d565b565b5f7f00000000000000000000000000000000000000000000000000000000000000006001600160a01b0316635c60da1b6040518163ffffffff1660e01b8152600401602060405180830381865afa1580156076573d5f5f3e3d5ffd5b505050506040513d601f19601f820116820180604052508101906098919060ba565b905090565b365f5f375f5f365f845af43d5f5f3e80801560b6573d5ff35b3d5ffd5b5f6020828403121560c9575f5ffd5b81516001600160a01b038116811460de575f5ffd5b939250505056fea2646970667358221220897824a4a067e59d11870ba106699d71e9bcf270083809866dc65685f88df7c964736f6c634300081c00339b779b17422d0df92223018b32b4d1fa46e071723d6817e2486d003becc55f00a264697066735822122027540ae78c4ac27f63417a8e8e3f197a9f147e043a2945d9b1f2d5c4ae13f3d064736f6c634300081c0033",
  "linkReferences": {},
  "deployedLinkReferences": {},
  "immutableReferences": {},
  "inputSourceName": "project/contracts/TokenFactory.sol",
  "buildInfoId": "solc-0_8_28-73f76596be5d9a06c69e53f66068a195e8a45a1a"
}