{
  "_format": "hh3-artifact-1",
  "contractName": "TokenFactory",
  "sourceName": "contracts/TokenFactory.sol",
  "abi": [
    {
      "inputs": [],
      "stateMutability": "nonpayable",
      "type": "constructor"
    },
    {
      "inputs": [
        {
          "internalType": "address",
          "name": "target",
          "type": "address"
        }
      ],
      "name": "AddressEmptyCode",
      "type": "error"
    },
    {
      "inputs": [
        {
          "internalType": "address",
          "name": "implementation",
          "type": "address"
        }
      ],
      "name": "ERC1967InvalidImplementation",
      "type": "error"
    },
    {
      "inputs": [],
      "name": "ERC1967NonPayable",
      "type": "error"
    },
    {
      "inputs": [],
      "name": "FailedCall",
      "type": "error"
    },
    {
      "inputs": [],
      "name": "InvalidInitialization",
      "type": "error"
    },
    {
      "inputs": [],
      "name": "NotInitializing",
      "type": "error"
    },
    {
      "inputs": [
        {
          "internalType": "address",
          "name": "owner",
          "type": "address"
        }
      ],
      "name": "OwnableInvalidOwner",
      "type": "error"
    },
    {
      "inputs": [
        {
          "internalType": "address",
          "name": "account",
          "type": "address"
        }
      ],
      "name": "OwnableUnauthorizedAccount",
      "type": "error"
    },
    {
      "inputs": [],
      "name": "ReentrancyGuardReentrantCall",
      "type": "error"
    },
    {
      "inputs": [],
      "name": "UUPSUnauthorizedCallContext",
      "type": "error"
    },
    {
      "inputs": [
        {
          "internalType": "bytes32",
          "name": "slot",
          "type": "bytes32"
        }
      ],
      "name": "UUPSUnsupportedProxiableUUID",
      "type": "error"
    },
    {
      "anonymous": false,
      "inputs": [
        {
          "indexed": false,
          "internalType": "uint64",
          "name": "version",
          "type": "uint64"
        }
      ],
      "name": "Initialized",
      "type": "event"
    },
    {
      "anonymous": false,
      "inputs": [
        {
          "indexed": true,
          "internalType": "address",
          "name": "previousOwner",
          "type": "address"
        },
        {
          "indexed": true,
          "internalType": "address",
          "name": "newOwner",
          "type": "address"
        }
      ],
      "name": "OwnershipTransferred",
      "type": "event"
    },
    {
      "anonymous": false,
      "inputs": [
        {
          "indexed": true,
          "internalType": "address",
          "name": "tokenAddress",
          "type": "address"
        }
      ],
      "name": "TokenCreated",
      "type": "event"
    },
    {
      "anonymous": false,
      "inputs": [
        {
          "indexed": true,
          "internalType": "address",
          "name": "implementation",
          "type": "address"
        }
      ],
      "name": "Upgraded",
      "type": "event"
    },
    {
      "inputs": [],
      "name": "UPGRADE_INTERFACE_VERSION",
      "outputs": [
        {
          "internalType": "string",
          "name": "",
          "type": "string"
        }
      ],
      "stateMutability": "view",
      "type": "function"
    },
    {
      "inputs": [
        {
          "internalType": "address",
          "name": "tokenAddress",
          "type": "address"
        },
        {
          "internalType": "uint256",
          "name": "amount",
          "type": "uint256"
        }
      ],
      "name": "burnTokens",
      "outputs": [],
      "stateMutability": "nonpayable",
      "type": "function"
    },
    {
      "inputs": [
        {
          "internalType": "string",
          "name": "name",
          "type": "string"
        },
        {
          "internalType": "string",
          "name": "symbol",
          "type": "string"
        }
      ],
      "name": "createToken",
      "outputs": [],
      "stateMutability": "nonpayable",
      "type": "function"
    },
    {
      "inputs": [
        {
          "internalType": "address",
          "name": "",
          "type": "address"
        }
      ],
      "name": "createdTokens",
      "outputs": [
        {
          "internalType": "address",
          "name": "token",
          "type": "address"
        },
        {
          "internalType": "address",
          "name": "beacon",
          "type": "address"
        }
      ],
      "stateMutability": "view",
      "type": "function"
    },
    {
      "inputs": [
        {
          "internalType": "address",
          "name": "_tokenBeaconAddress",
          "type": "address"
        }
      ],
      "name": "initialize",
      "outputs": [],
      "stateMutability": "nonpayable",
      "type": "function"
    },
    {
      "inputs": [
        {
          "internalType": "address",
          "name": "tokenAddress",
          "type": "address"
        },
        {
          "internalType": "address",
          "name": "to",
          "type": "address"
        },
        {
          "internalType": "uint256",
          "name": "amount",
          "type": "uint256"
        }
      ],
      "name": "mintTokens",
      "outputs": [],
      "stateMutability": "nonpayable",
      "type": "function"
    },
    {
      "inputs": [],
      "name": "owner",
      "outputs": [
        {
          "internalType": "address",
          "name": "",
          "type": "address"
        }
      ],
      "stateMutability": "view",
      "type": "function"
    },
    {
      "inputs": [],
      "name": "proxiableUUID",
      "outputs": [
        {
          "internalType": "bytes32",
          "name": "",
          "type": "bytes32"
        }
      ],
      "stateMutability": "view",
      "type": "function"
    },
    {
      "inputs": [],
      "name": "renounceOwnership",
      "outputs": [],
      "stateMutability": "nonpayable",
      "type": "function"
    },
    {
      "inputs": [],
      "name": "tokenBeaconAddress",
      "outputs": [
        {
          "internalType": "address",
          "name": "",
          "type": "address"
        }
      ],
      "stateMutability": "view",
      "type": "function"
    },
    {
      "inputs": [
        {
          "internalType": "address",
          "name": "newOwner",
          "type": "address"
        }
      ],
      "name": "transferOwnership",
      "outputs": [],
      "stateMutability": "nonpayable",
      "type": "function"
    },
    {
      "inputs": [
        {
          "internalType": "address",
          "name": "newImplementation",
          "type": "address"
        },
        {
          "internalType": "bytes",
          "name": "data",
          "type": "bytes"
        }
      ],
      "name": "upgradeToAndCall",
      "outputs": [],
      "stateMutability": "payable",
      "type": "function"
    }
  ],
  "bytecode": "0x60a060405230608052348015610013575f5ffd5b5061001c610021565b6100d3565b7ff0c57e16840df040f15088dc2f81fe391c3923bec73e23a9662efc9c229c6a00805468010000000000000000900460ff16156100715760405163f92ee8a960e01b815260040160405180910390fd5b80546001600160401b03908116146100d05780546001600160401b0319166001600160401b0390811782556040519081527fc7f505b2f371ae2175ee4913f4499e1f2633a7b5936321eed1cdaeb6115181d29060200160405180910390a15b50565b6080516114bc6100f95f395f81816107a7015281816107d0015261090f01526114bc5ff3fe6080604052600436106100a5575f3560e01c8063715018a611610062578063715018a6146101785780638da5cb5b1461018c578063ad3cb1cc146101c8578063b312610314610205578063c4d66de814610264578063f2fde38b14610283575f5ffd5b80630d1118ce146100a95780632f2f2d56146100ca5780634f1ef286146100e957806352d1902d146100fc5780636ae4d1fa146101235780636fc98ee114610159575b5f5ffd5b3480156100b4575f5ffd5b506100c86100c3366004610c37565b6102a2565b005b3480156100d5575f5ffd5b506100c86100e4366004610d08565b610321565b6100c86100f7366004610d6d565b6104ac565b348015610107575f5ffd5b506101106104c7565b6040519081526020015b60405180910390f35b34801561012e575f5ffd5b505f54610141906001600160a01b031681565b6040516001600160a01b03909116815260200161011a565b348015610164575f5ffd5b506100c8610173366004610dc1565b6104e2565b348015610183575f5ffd5b506100c861056a565b348015610197575f5ffd5b507f9016d09d72d40fdae2fd8ceac6b6234c7706214fd39c1cd1e609a0528c199300546001600160a01b0316610141565b3480156101d3575f5ffd5b506101f8604051806040016040528060058152602001640352e302e360dc1b81525081565b60405161011a9190610e29565b348015610210575f5ffd5b5061024461021f366004610e3b565b600160208190525f918252604090912080549101546001600160a01b03918216911682565b604080516001600160a01b0393841681529290911660208301520161011a565b34801561026f575f5ffd5b506100c861027e366004610e3b565b61057d565b34801561028e575f5ffd5b506100c861029d366004610e3b565b6106b5565b6102aa6106f7565b6102b261072e565b604051630852cd8d60e31b8152600481018290526001600160a01b038316906342966c68906024015f604051808303815f87803b1580156102f1575f5ffd5b505af1158015610303573d5f5f3e3d5ffd5b5050505061031d60015f5160206114675f395f51905f5255565b5050565b6103296106f7565b5f634cd88b7660e01b8383604051602401610345929190610e54565b60408051601f198184030181529181526020820180516001600160e01b03166001600160e01b0319909416939093179092525f80549251919350916001600160a01b031690839061039590610c0f565b6103a0929190610e78565b604051809103905ff0801580156103b9573d5f5f3e3d5ffd5b506040805180820182526001600160a01b038381168083525f80548316602080860191825283835260019081905291869020945185549085166001600160a01b031991821617865590519490910180549490931693169290921790559051637e51dad560e11b81523060048201529192509063fca3b5aa906024015f604051808303815f87803b15801561044b575f5ffd5b505af115801561045d573d5f5f3e3d5ffd5b50506040516001600160a01b03841692507f2e2b3f61b70d2d131b2a807371103cc98d51adcaa5e9a8f9c32658ad8426e74e91505f90a2505061031d60015f5160206114675f395f51905f5255565b6104b461079c565b6104bd82610840565b61031d8282610848565b5f6104d0610904565b505f5160206114475f395f51905f5290565b6104ea6106f7565b6104f261072e565b604051633c37699760e21b81526001600160a01b0383811660048301526024820183905284169063f0dda65c906044015f604051808303815f87803b158015610539575f5ffd5b505af115801561054b573d5f5f3e3d5ffd5b5050505061056560015f5160206114675f395f51905f5255565b505050565b61057261072e565b61057b5f61094d565b565b7ff0c57e16840df040f15088dc2f81fe391c3923bec73e23a9662efc9c229c6a008054600160401b810460ff16159067ffffffffffffffff165f811580156105c25750825b90505f8267ffffffffffffffff1660011480156105de5750303b155b9050811580156105ec575080155b1561060a5760405163f92ee8a960e01b815260040160405180910390fd5b845467ffffffffffffffff19166001178555831561063457845460ff60401b1916600160401b1785555b61063d336109bd565b6106456109ce565b61064d6109d6565b5f80546001600160a01b0319166001600160a01b03881617905583156106ad57845460ff60401b19168555604051600181527fc7f505b2f371ae2175ee4913f4499e1f2633a7b5936321eed1cdaeb6115181d29060200160405180910390a15b505050505050565b6106bd61072e565b6001600160a01b0381166106eb57604051631e4fbdf760e01b81525f60048201526024015b60405180910390fd5b6106f48161094d565b50565b5f5160206114675f395f51905f5280546001190161072857604051633ee5aeb560e01b815260040160405180910390fd5b60029055565b336107607f9016d09d72d40fdae2fd8ceac6b6234c7706214fd39c1cd1e609a0528c199300546001600160a01b031690565b6001600160a01b03161461057b5760405163118cdaa760e01b81523360048201526024016106e2565b60015f5160206114675f395f51905f5255565b306001600160a01b037f000000000000000000000000000000000000000000000000000000000000000016148061082257507f00000000000000000000000000000000000000000000000000000000000000006001600160a01b03166108165f5160206114475f395f51905f52546001600160a01b031690565b6001600160a01b031614155b1561057b5760405163703e46dd60e11b815260040160405180910390fd5b6106f461072e565b816001600160a01b03166352d1902d6040518163ffffffff1660e01b8152600401602060405180830381865afa9250505080156108a2575060408051601f3d908101601f1916820190925261089f91810190610ea3565b60015b6108ca57604051634c9c8ce360e01b81526001600160a01b03831660048201526024016106e2565b5f5160206114475f395f51905f5281146108fa57604051632a87526960e21b8152600481018290526024016106e2565b61056583836109e6565b306001600160a01b037f0000000000000000000000000000000000000000000000000000000000000000161461057b5760405163703e46dd60e11b815260040160405180910390fd5b7f9016d09d72d40fdae2fd8ceac6b6234c7706214fd39c1cd1e609a0528c19930080546001600160a01b031981166001600160a01b03848116918217845560405192169182907f8be0079c531659141344cd1fd0a4f28419497f9722a3daafe3b4186f6b6457e0905f90a3505050565b6109c5610a3b565b6106f481610a84565b61057b610a3b565b6109de610a3b565b61057b610a8c565b6109ef82610a94565b6040516001600160a01b038316907fbc7cd75a20ee27fd9adebab32041f755214dbc6bffa90cc0225b39da2e5c2d3b905f90a2805115610a33576105658282610af7565b61031d610b69565b7ff0c57e16840df040f15088dc2f81fe391c3923bec73e23a9662efc9c229c6a0054600160401b900460ff1661057b57604051631afcd79f60e31b815260040160405180910390fd5b6106bd610a3b565b610789610a3b565b806001600160a01b03163b5f03610ac957604051634c9c8ce360e01b81526001600160a01b03821660048201526024016106e2565b5f5160206114475f395f51905f5280546001600160a01b0319166001600160a01b0392909216919091179055565b60605f5f846001600160a01b031684604051610b139190610eba565b5f60405180830381855af49150503d805f8114610b4b576040519150601f19603f3d011682016040523d82523d5f602084013e610b50565b606091505b5091509150610b60858383610b88565b95945050505050565b341561057b5760405163b398979f60e01b815260040160405180910390fd5b606082610b9d57610b9882610be7565b610be0565b8151158015610bb457506001600160a01b0384163b155b15610bdd57604051639996b31560e01b81526001600160a01b03851660048201526024016106e2565b50805b9392505050565b805115610bf657805160208201fd5b60405163d6bda27560e01b815260040160405180910390fd5b61057680610ed183390190565b80356001600160a01b0381168114610c32575f5ffd5b919050565b5f5f60408385031215610c48575f5ffd5b610c5183610c1c565b946020939093013593505050565b634e487b7160e01b5f52604160045260245ffd5b5f5f67ffffffffffffffff841115610c8d57610c8d610c5f565b50604051601f19601f85018116603f0116810181811067ffffffffffffffff82111715610cbc57610cbc610c5f565b604052838152905080828401851015610cd3575f5ffd5b838360208301375f60208583010152509392505050565b5f82601f830112610cf9575f5ffd5b610be083833560208501610c73565b5f5f60408385031215610d19575f5ffd5b823567ffffffffffffffff811115610d2f575f5ffd5b610d3b85828601610cea565b925050602083013567ffffffffffffffff811115610d57575f5ffd5b610d6385828601610cea565b9150509250929050565b5f5f60408385031215610d7e575f5ffd5b610d8783610c1c565b9150602083013567ffffffffffffffff811115610da2575f5ffd5b8301601f81018513610db2575f5ffd5b610d6385823560208401610c73565b5f5f5f60608486031215610dd3575f5ffd5b610ddc84610c1c565b9250610dea60208501610c1c565b929592945050506040919091013590565b5f81518084528060208401602086015e5f602082860101526020601f19601f83011685010191505092915050565b602081525f610be06020830184610dfb565b5f60208284031215610e4b575f5ffd5b610be082610c1c565b604081525f610e666040830185610dfb565b8281036020840152610b608185610dfb565b6001600160a01b03831681526040602082018190525f90610e9b90830184610dfb565b949350505050565b5f60208284031215610eb3575f5ffd5b5051919050565b5f82518060208501845e5f92019182525091905056fe60a060405260405161057638038061057683398101604081905261002291610353565b61002c828261003e565b506001600160a01b0316608052610444565b610047826100fb565b6040516001600160a01b038316907f1cf3b03a6cf19fa2baba4df148e9dcabedea7f8a5c07840e207e5c089be95d3e905f90a28051156100ef576100ea826001600160a01b0316635c60da1b6040518163ffffffff1660e01b8152600401602060405180830381865afa1580156100c0573d5f5f3e3d5ffd5b505050506040513d601f19601f820116820180604052508101906100e49190610415565b82610209565b505050565b6100f761027c565b5050565b806001600160a01b03163b5f0361013557604051631933b43b60e21b81526001600160a01b03821660048201526024015b60405180910390fd5b807fa3f0ad74e5423aebfd80d3ef4346578335a9a72aeaee59ff6cb3582b35133d5080546001600160a01b0319166001600160a01b0392831617905560408051635c60da1b60e01b815290515f92841691635c60da1b9160048083019260209291908290030181865afa1580156101ae573d5f5f3e3d5ffd5b505050506040513d601f19601f820116820180604052508101906101d29190610415565b9050806001600160a01b03163b5f036100f757604051634c9c8ce360e01b81526001600160a01b038216600482015260240161012c565b60605f5f846001600160a01b031684604051610225919061042e565b5f60405180830381855af49150503d805f811461025d576040519150601f19603f3d011682016040523d82523d5f602084013e610262565b606091505b50909250905061027385838361029d565b95945050505050565b341561029b5760405163b398979f60e01b815260040160405180910390fd5b565b6060826102b2576102ad826102fc565b6102f5565b81511580156102c957506001600160a01b0384163b155b156102f257604051639996b31560e01b81526001600160a01b038516600482015260240161012c565b50805b9392505050565b80511561030b57805160208201fd5b60405163d6bda27560e01b815260040160405180910390fd5b80516001600160a01b038116811461033a575f5ffd5b919050565b634e487b7160e01b5f52604160045260245ffd5b5f5f60408385031215610364575f5ffd5b61036d83610324565b60208401519092506001600160401b03811115610388575f5ffd5b8301601f81018513610398575f5ffd5b80516001600160401b038111156103b1576103b161033f565b604051601f8201601f19908116603f011681016001600160401b03811182821017156103df576103df61033f565b6040528181528282016020018710156103f6575f5ffd5b8160208401602083015e5f602083830101528093505050509250929050565b5f60208284031215610425575f5ffd5b6102f582610324565b5f82518060208501845e5f920191825250919050565b60805161011b61045b5f395f601d015261011b5ff3fe6080604052600a600c565b005b60186014601a565b609d565b565b5f7f00000000000000000000000000000000000000000000000000000000000000006001600160a01b0316635c60da1b6040518163ffffffff1660e01b8152600401602060405180830381865afa1580156076573d5f5f3e3d5ffd5b505050506040513d601f19601f820116820180604052508101906098919060ba565b905090565b365f5f375f5f365f845af43d5f5f3e80801560b6573d5ff35b3d5ffd5b5f6020828403121560c9575f5ffd5b81516001600160a01b038116811460de575f5ffd5b939250505056fea2646970667358221220c6d6ef537c8571798336619f5c83af516530d894a4a5fd947491bf44fdc809e264736f6c634300081c0033360894a13ba1a3210667c828492db98dca3e2076cc3735a920a3ca505d382bbc9b779b17422d0df92223018b32b4d1fa46e071723d6817e2486d003becc55f00a264697066735822122044ae93df3d9098ef2bb88d18c17d9a39a8ba1e3cfdb319c2f2bd7e27de7dde4964736f6c634300081c0033",
  "linkReferences": {},
  "deployedLinkReferences": {},
  "immutableReferences": {
    "482": [
      {
        "length": 32,
        "start": 1959
      },
      {
        "length": 32,
        "start": 2000
      },
      {
        "length": 32,
        "start": 2319
      }
    ]
  },
  "inputSourceName": "project/contracts/TokenFactory.sol",
  "buildInfoId": "solc-0_8_28-89384e2b8952e72d1b04ce4c1bf57e52e834dbb8"
}