{
  "_format": "hh3-artifact-1",
  "contractName": "Token",
  "sourceName": "contracts/Token.sol",
  "abi": [
    {
      "inputs": [],
      "stateMutability": "nonpayable",
      "type": "constructor"
    },
    {
      "inputs": [
        {
          "internalType": "address",
          "name": "spender",
          "type": "address"
        },
        {
          "internalType": "uint256",
          "name": "allowance",
          "type": "uint256"
        },
        {
          "internalType": "uint256",
          "name": "needed",
          "type": "uint256"
        }
      ],
      "name": "ERC20InsufficientAllowance",
      "type": "error"
    },
    {
      "inputs": [
        {
          "internalType": "address",
          "name": "sender",
          "type": "address"
        },
        {
          "internalType": "uint256",
          "name": "balance",
          "type": "uint256"
        },
        {
          "internalType": "uint256",
          "name": "needed",
          "type": "uint256"
        }
      ],
      "name": "ERC20InsufficientBalance",
      "type": "error"
    },
    {
      "inputs": [
        {
          "internalType": "address",
          "name": "approver",
          "type": "address"
        }
      ],
      "name": "ERC20InvalidApprover",
      "type": "error"
    },
    {
      "inputs": [
        {
          "internalType": "address",
          "name": "receiver",
          "type": "address"
        }
      ],
      "name": "ERC20InvalidReceiver",
      "type": "error"
    },
    {
      "inputs": [
        {
          "internalType": "address",
          "name": "sender",
          "type": "address"
        }
      ],
      "name": "ERC20InvalidSender",
      "type": "error"
    },
    {
      "inputs": [
        {
          "internalType": "address",
          "name": "spender",
          "type": "address"
        }
      ],
      "name": "ERC20InvalidSpender",
      "type": "error"
    },
    {
      "inputs": [],
      "name": "InvalidInitialization",
      "type": "error"
    },
    {
      "inputs": [],
      "name": "NotInitializing",
      "type": "error"
    },
    {
      "inputs": [],
      "name": "OnlyMinter",
      "type": "error"
    },
    {
      "inputs": [
        {
          "internalType": "address",
          "name": "owner",
          "type": "address"
        }
      ],
      "name": "OwnableInvalidOwner",
      "type": "error"
    },
    {
      "inputs": [
        {
          "internalType": "address",
          "name": "account",
          "type": "address"
        }
      ],
      "name": "OwnableUnauthorizedAccount",
      "type": "error"
    },
    {
      "anonymous": false,
      "inputs": [
        {
          "indexed": true,
          "internalType": "address",
          "name": "owner",
          "type": "address"
        },
        {
          "indexed": true,
          "internalType": "address",
          "name": "spender",
          "type": "address"
        },
        {
          "indexed": false,
          "internalType": "uint256",
          "name": "value",
          "type": "uint256"
        }
      ],
      "name": "Approval",
      "type": "event"
    },
    {
      "anonymous": false,
      "inputs": [
        {
          "indexed": false,
          "internalType": "uint64",
          "name": "version",
          "type": "uint64"
        }
      ],
      "name": "Initialized",
      "type": "event"
    },
    {
      "anonymous": false,
      "inputs": [
        {
          "indexed": true,
          "internalType": "address",
          "name": "previousOwner",
          "type": "address"
        },
        {
          "indexed": true,
          "internalType": "address",
          "name": "newOwner",
          "type": "address"
        }
      ],
      "name": "OwnershipTransferred",
      "type": "event"
    },
    {
      "anonymous": false,
      "inputs": [
        {
          "indexed": true,
          "internalType": "address",
          "name": "from",
          "type": "address"
        },
        {
          "indexed": true,
          "internalType": "address",
          "name": "to",
          "type": "address"
        },
        {
          "indexed": false,
          "internalType": "uint256",
          "name": "value",
          "type": "uint256"
        }
      ],
      "name": "Transfer",
      "type": "event"
    },
    {
      "inputs": [
        {
          "internalType": "address",
          "name": "owner",
          "type": "address"
        },
        {
          "internalType": "address",
          "name": "spender",
          "type": "address"
        }
      ],
      "name": "allowance",
      "outputs": [
        {
          "internalType": "uint256",
          "name": "",
          "type": "uint256"
        }
      ],
      "stateMutability": "view",
      "type": "function"
    },
    {
      "inputs": [
        {
          "internalType": "address",
          "name": "spender",
          "type": "address"
        },
        {
          "internalType": "uint256",
          "name": "value",
          "type": "uint256"
        }
      ],
      "name": "approve",
      "outputs": [
        {
          "internalType": "bool",
          "name": "",
          "type": "bool"
        }
      ],
      "stateMutability": "nonpayable",
      "type": "function"
    },
    {
      "inputs": [
        {
          "internalType": "address",
          "name": "account",
          "type": "address"
        }
      ],
      "name": "balanceOf",
      "outputs": [
        {
          "internalType": "uint256",
          "name": "",
          "type": "uint256"
        }
      ],
      "stateMutability": "view",
      "type": "function"
    },
    {
      "inputs": [
        {
          "internalType": "uint256",
          "name": "value",
          "type": "uint256"
        }
      ],
      "name": "burn",
      "outputs": [],
      "stateMutability": "nonpayable",
      "type": "function"
    },
    {
      "inputs": [
        {
          "internalType": "address",
          "name": "account",
          "type": "address"
        },
        {
          "internalType": "uint256",
          "name": "value",
          "type": "uint256"
        }
      ],
      "name": "burnFrom",
      "outputs": [],
      "stateMutability": "nonpayable",
      "type": "function"
    },
    {
      "inputs": [
        {
          "internalType": "address",
          "name": "from",
          "type": "address"
        },
        {
          "internalType": "uint256",
          "name": "amount",
          "type": "uint256"
        }
      ],
      "name": "burnTokens",
      "outputs": [],
      "stateMutability": "nonpayable",
      "type": "function"
    },
    {
      "inputs": [],
      "name": "decimals",
      "outputs": [
        {
          "internalType": "uint8",
          "name": "",
          "type": "uint8"
        }
      ],
      "stateMutability": "view",
      "type": "function"
    },
    {
      "inputs": [
        {
          "internalType": "string",
          "name": "name",
          "type": "string"
        },
        {
          "internalType": "string",
          "name": "symbol",
          "type": "string"
        }
      ],
      "name": "initialize",
      "outputs": [],
      "stateMutability": "nonpayable",
      "type": "function"
    },
    {
      "inputs": [
        {
          "internalType": "address",
          "name": "to",
          "type": "address"
        },
        {
          "internalType": "uint256",
          "name": "amount",
          "type": "uint256"
        }
      ],
      "name": "mintTokens",
      "outputs": [],
      "stateMutability": "nonpayable",
      "type": "function"
    },
    {
      "inputs": [],
      "name": "name",
      "outputs": [
        {
          "internalType": "string",
          "name": "",
          "type": "string"
        }
      ],
      "stateMutability": "view",
      "type": "function"
    },
    {
      "inputs": [],
      "name": "owner",
      "outputs": [
        {
          "internalType": "address",
          "name": "",
          "type": "address"
        }
      ],
      "stateMutability": "view",
      "type": "function"
    },
    {
      "inputs": [],
      "name": "renounceOwnership",
      "outputs": [],
      "stateMutability": "nonpayable",
      "type": "function"
    },
    {
      "inputs": [
        {
          "internalType": "address",
          "name": "minter",
          "type": "address"
        }
      ],
      "name": "setMinter",
      "outputs": [],
      "stateMutability": "nonpayable",
      "type": "function"
    },
    {
      "inputs": [],
      "name": "symbol",
      "outputs": [
        {
          "internalType": "string",
          "name": "",
          "type": "string"
        }
      ],
      "stateMutability": "view",
      "type": "function"
    },
    {
      "inputs": [],
      "name": "totalSupply",
      "outputs": [
        {
          "internalType": "uint256",
          "name": "",
          "type": "uint256"
        }
      ],
      "stateMutability": "view",
      "type": "function"
    },
    {
      "inputs": [
        {
          "internalType": "address",
          "name": "to",
          "type": "address"
        },
        {
          "internalType": "uint256",
          "name": "value",
          "type": "uint256"
        }
      ],
      "name": "transfer",
      "outputs": [
        {
          "internalType": "bool",
          "name": "",
          "type": "bool"
        }
      ],
      "stateMutability": "nonpayable",
      "type": "function"
    },
    {
      "inputs": [
        {
          "internalType": "address",
          "name": "from",
          "type": "address"
        },
        {
          "internalType": "address",
          "name": "to",
          "type": "address"
        },
        {
          "internalType": "uint256",
          "name": "value",
          "type": "uint256"
        }
      ],
      "name": "transferFrom",
      "outputs": [
        {
          "internalType": "bool",
          "name": "",
          "type": "bool"
        }
      ],
      "stateMutability": "nonpayable",
      "type": "function"
    },
    {
      "inputs": [
        {
          "internalType": "address",
          "name": "newOwner",
          "type": "address"
        }
      ],
      "name": "transferOwnership",
      "outputs": [],
      "stateMutability": "nonpayable",
      "type": "function"
    }
  ],
  "bytecode": "0x6080604052348015600e575f5ffd5b5060156019565b60c9565b7ff0c57e16840df040f15088dc2f81fe391c3923bec73e23a9662efc9c229c6a00805468010000000000000000900460ff161560685760405163f92ee8a960e01b815260040160405180910390fd5b80546001600160401b039081161460c65780546001600160401b0319166001600160401b0390811782556040519081527fc7f505b2f371ae2175ee4913f4499e1f2633a7b5936321eed1cdaeb6115181d29060200160405180910390a15b50565b610f35806100d65f395ff3fe608060405234801561000f575f5ffd5b5060043610610111575f3560e01c8063715018a61161009e578063a9059cbb1161006e578063a9059cbb14610275578063dd62ed3e14610288578063f0dda65c1461029b578063f2fde38b146102ae578063fca3b5aa146102c1575f5ffd5b8063715018a61461021857806379cc6790146102205780638da5cb5b1461023357806395d89b411461026d575f5ffd5b806323b872dd116100e457806323b872dd1461019c578063313ce567146101af57806342966c68146101be5780634cd88b76146101d157806370a08231146101e4575f5ffd5b806306fdde0314610115578063095ea7b3146101335780630d1118ce1461015657806318160ddd1461016b575b5f5ffd5b61011d6102d4565b60405161012a9190610b6b565b60405180910390f35b610146610141366004610bbb565b610394565b604051901515815260200161012a565b610169610164366004610bbb565b6103ad565b005b7f52c63247e1f47db19d5ce0460030c497f067ca4cebf71ba98eeadabe20bace02545b60405190815260200161012a565b6101466101aa366004610be3565b6103e5565b6040516012815260200161012a565b6101696101cc366004610c1d565b610408565b6101696101df366004610cd3565b610415565b61018e6101f2366004610d38565b6001600160a01b03165f9081525f516020610ee05f395f51905f52602052604090205490565b610169610519565b61016961022e366004610bbb565b61052c565b7f9016d09d72d40fdae2fd8ceac6b6234c7706214fd39c1cd1e609a0528c199300546040516001600160a01b03909116815260200161012a565b61011d610537565b610146610283366004610bbb565b610575565b61018e610296366004610d58565b610582565b6101696102a9366004610bbb565b6105cb565b6101696102bc366004610d38565b6105ff565b6101696102cf366004610d38565b61063e565b7f52c63247e1f47db19d5ce0460030c497f067ca4cebf71ba98eeadabe20bace0380546060915f516020610ee05f395f51905f529161031290610d89565b80601f016020809104026020016040519081016040528092919081815260200182805461033e90610d89565b80156103895780601f1061036057610100808354040283529160200191610389565b820191905f5260205f20905b81548152906001019060200180831161036c57829003601f168201915b505050505091505090565b5f336103a1818585610667565b60019150505b92915050565b5f546001600160a01b031633146103d757604051639cdc2ed560e01b815260040160405180910390fd5b6103e18282610679565b5050565b5f336103f28582856106ad565b6103fd858585610711565b506001949350505050565b6104123382610679565b50565b5f61041e61076e565b805490915060ff600160401b820416159067ffffffffffffffff165f811580156104455750825b90505f8267ffffffffffffffff1660011480156104615750303b155b90508115801561046f575080155b1561048d5760405163f92ee8a960e01b815260040160405180910390fd5b845467ffffffffffffffff1916600117855583156104b757845460ff60401b1916600160401b1785555b6104c18787610796565b6104ca336107a8565b831561051057845460ff60401b19168555604051600181527fc7f505b2f371ae2175ee4913f4499e1f2633a7b5936321eed1cdaeb6115181d29060200160405180910390a15b50505050505050565b6105216107b9565b61052a5f610814565b565b6103d78233836106ad565b7f52c63247e1f47db19d5ce0460030c497f067ca4cebf71ba98eeadabe20bace0480546060915f516020610ee05f395f51905f529161031290610d89565b5f336103a1818585610711565b6001600160a01b039182165f9081527f52c63247e1f47db19d5ce0460030c497f067ca4cebf71ba98eeadabe20bace016020908152604080832093909416825291909152205490565b5f546001600160a01b031633146105f557604051639cdc2ed560e01b815260040160405180910390fd5b6103e18282610884565b6106076107b9565b6001600160a01b03811661063557604051631e4fbdf760e01b81525f60048201526024015b60405180910390fd5b61041281610814565b6106466107b9565b5f80546001600160a01b0319166001600160a01b0392909216919091179055565b61067483838360016108b8565b505050565b6001600160a01b0382166106a257604051634b637e8f60e11b81525f600482015260240161062c565b6103e1825f8361099c565b5f6106b88484610582565b90505f1981101561070b57818110156106fd57604051637dc7a0d960e11b81526001600160a01b0384166004820152602481018290526044810183905260640161062c565b61070b84848484035f6108b8565b50505050565b6001600160a01b03831661073a57604051634b637e8f60e11b81525f600482015260240161062c565b6001600160a01b0382166107635760405163ec442f0560e01b81525f600482015260240161062c565b61067483838361099c565b5f807ff0c57e16840df040f15088dc2f81fe391c3923bec73e23a9662efc9c229c6a006103a7565b61079e610ad5565b6103e18282610afa565b6107b0610ad5565b61041281610b4a565b336107eb7f9016d09d72d40fdae2fd8ceac6b6234c7706214fd39c1cd1e609a0528c199300546001600160a01b031690565b6001600160a01b03161461052a5760405163118cdaa760e01b815233600482015260240161062c565b7f9016d09d72d40fdae2fd8ceac6b6234c7706214fd39c1cd1e609a0528c19930080546001600160a01b031981166001600160a01b03848116918217845560405192169182907f8be0079c531659141344cd1fd0a4f28419497f9722a3daafe3b4186f6b6457e0905f90a3505050565b6001600160a01b0382166108ad5760405163ec442f0560e01b81525f600482015260240161062c565b6103e15f838361099c565b5f516020610ee05f395f51905f526001600160a01b0385166108ef5760405163e602df0560e01b81525f600482015260240161062c565b6001600160a01b03841661091857604051634a1406b160e11b81525f600482015260240161062c565b6001600160a01b038086165f9081526001830160209081526040808320938816835292905220839055811561099557836001600160a01b0316856001600160a01b03167f8c5be1e5ebec7d5bd14f71427d1e84f3dd0314c0f7b2291e5b200ac8c7c3b9258560405161098c91815260200190565b60405180910390a35b5050505050565b5f516020610ee05f395f51905f526001600160a01b0384166109d65781816002015f8282546109cb9190610dc1565b90915550610a469050565b6001600160a01b0384165f9081526020829052604090205482811015610a285760405163391434e360e21b81526001600160a01b0386166004820152602481018290526044810184905260640161062c565b6001600160a01b0385165f9081526020839052604090209083900390555b6001600160a01b038316610a64576002810180548390039055610a82565b6001600160a01b0383165f9081526020829052604090208054830190555b826001600160a01b0316846001600160a01b03167fddf252ad1be2c89b69c2b068fc378daa952ba7f163c4a11628f55a4df523b3ef84604051610ac791815260200190565b60405180910390a350505050565b610add610b52565b61052a57604051631afcd79f60e31b815260040160405180910390fd5b610b02610ad5565b5f516020610ee05f395f51905f527f52c63247e1f47db19d5ce0460030c497f067ca4cebf71ba98eeadabe20bace03610b3b8482610e24565b506004810161070b8382610e24565b610607610ad5565b5f610b5b61076e565b54600160401b900460ff16919050565b602081525f82518060208401528060208501604085015e5f604082850101526040601f19601f83011684010191505092915050565b80356001600160a01b0381168114610bb6575f5ffd5b919050565b5f5f60408385031215610bcc575f5ffd5b610bd583610ba0565b946020939093013593505050565b5f5f5f60608486031215610bf5575f5ffd5b610bfe84610ba0565b9250610c0c60208501610ba0565b929592945050506040919091013590565b5f60208284031215610c2d575f5ffd5b5035919050565b634e487b7160e01b5f52604160045260245ffd5b5f82601f830112610c57575f5ffd5b813567ffffffffffffffff811115610c7157610c71610c34565b604051601f8201601f19908116603f0116810167ffffffffffffffff81118282101715610ca057610ca0610c34565b604052818152838201602001851015610cb7575f5ffd5b816020850160208301375f918101602001919091529392505050565b5f5f60408385031215610ce4575f5ffd5b823567ffffffffffffffff811115610cfa575f5ffd5b610d0685828601610c48565b925050602083013567ffffffffffffffff811115610d22575f5ffd5b610d2e85828601610c48565b9150509250929050565b5f60208284031215610d48575f5ffd5b610d5182610ba0565b9392505050565b5f5f60408385031215610d69575f5ffd5b610d7283610ba0565b9150610d8060208401610ba0565b90509250929050565b600181811c90821680610d9d57607f821691505b602082108103610dbb57634e487b7160e01b5f52602260045260245ffd5b50919050565b808201808211156103a757634e487b7160e01b5f52601160045260245ffd5b601f82111561067457805f5260205f20601f840160051c81016020851015610e055750805b601f840160051c820191505b81811015610995575f8155600101610e11565b815167ffffffffffffffff811115610e3e57610e3e610c34565b610e5281610e4c8454610d89565b84610de0565b6020601f821160018114610e84575f8315610e6d5750848201515b5f19600385901b1c1916600184901b178455610995565b5f84815260208120601f198516915b82811015610eb35787850151825560209485019460019092019101610e93565b5084821015610ed057868401515f19600387901b60f8161c191681555b50505050600190811b0190555056fe52c63247e1f47db19d5ce0460030c497f067ca4cebf71ba98eeadabe20bace00a2646970667358221220c877c945ad9a9b9499f433f98ab0869f14dcd9c2d2819069533321430f6fecc764736f6c634300081c0033",
  "linkReferences": {},
  "deployedLinkReferences": {},
  "immutableReferences": {},
  "inputSourceName": "project/contracts/Token.sol",
  "buildInfoId": "solc-0_8_28-fef4916f23a173069507454847a308269cc07ab8"
}