{
  "_format": "hh3-artifact-1",
  "contractName": "Token",
  "sourceName": "contracts/Token.sol",
  "abi": [
    {
      "inputs": [],
      "stateMutability": "nonpayable",
      "type": "constructor"
    },
    {
      "inputs": [
        {
          "internalType": "address",
          "name": "spender",
          "type": "address"
        },
        {
          "internalType": "uint256",
          "name": "allowance",
          "type": "uint256"
        },
        {
          "internalType": "uint256",
          "name": "needed",
          "type": "uint256"
        }
      ],
      "name": "ERC20InsufficientAllowance",
      "type": "error"
    },
    {
      "inputs": [
        {
          "internalType": "address",
          "name": "sender",
          "type": "address"
        },
        {
          "internalType": "uint256",
          "name": "balance",
          "type": "uint256"
        },
        {
          "internalType": "uint256",
          "name": "needed",
          "type": "uint256"
        }
      ],
      "name": "ERC20InsufficientBalance",
      "type": "error"
    },
    {
      "inputs": [
        {
          "internalType": "address",
          "name": "approver",
          "type": "address"
        }
      ],
      "name": "ERC20InvalidApprover",
      "type": "error"
    },
    {
      "inputs": [
        {
          "internalType": "address",
          "name": "receiver",
          "type": "address"
        }
      ],
      "name": "ERC20InvalidReceiver",
      "type": "error"
    },
    {
      "inputs": [
        {
          "internalType": "address",
          "name": "sender",
          "type": "address"
        }
      ],
      "name": "ERC20InvalidSender",
      "type": "error"
    },
    {
      "inputs": [
        {
          "internalType": "address",
          "name": "spender",
          "type": "address"
        }
      ],
      "name": "ERC20InvalidSpender",
      "type": "error"
    },
    {
      "inputs": [],
      "name": "InvalidInitialization",
      "type": "error"
    },
    {
      "inputs": [],
      "name": "NotInitializing",
      "type": "error"
    },
    {
      "inputs": [],
      "name": "OnlyMinter",
      "type": "error"
    },
    {
      "inputs": [
        {
          "internalType": "address",
          "name": "owner",
          "type": "address"
        }
      ],
      "name": "OwnableInvalidOwner",
      "type": "error"
    },
    {
      "inputs": [
        {
          "internalType": "address",
          "name": "account",
          "type": "address"
        }
      ],
      "name": "OwnableUnauthorizedAccount",
      "type": "error"
    },
    {
      "anonymous": false,
      "inputs": [
        {
          "indexed": true,
          "internalType": "address",
          "name": "owner",
          "type": "address"
        },
        {
          "indexed": true,
          "internalType": "address",
          "name": "spender",
          "type": "address"
        },
        {
          "indexed": false,
          "internalType": "uint256",
          "name": "value",
          "type": "uint256"
        }
      ],
      "name": "Approval",
      "type": "event"
    },
    {
      "anonymous": false,
      "inputs": [
        {
          "indexed": false,
          "internalType": "uint64",
          "name": "version",
          "type": "uint64"
        }
      ],
      "name": "Initialized",
      "type": "event"
    },
    {
      "anonymous": false,
      "inputs": [
        {
          "indexed": true,
          "internalType": "address",
          "name": "previousOwner",
          "type": "address"
        },
        {
          "indexed": true,
          "internalType": "address",
          "name": "newOwner",
          "type": "address"
        }
      ],
      "name": "OwnershipTransferred",
      "type": "event"
    },
    {
      "anonymous": false,
      "inputs": [
        {
          "indexed": true,
          "internalType": "address",
          "name": "from",
          "type": "address"
        },
        {
          "indexed": true,
          "internalType": "address",
          "name": "to",
          "type": "address"
        },
        {
          "indexed": false,
          "internalType": "uint256",
          "name": "value",
          "type": "uint256"
        }
      ],
      "name": "Transfer",
      "type": "event"
    },
    {
      "inputs": [
        {
          "internalType": "address",
          "name": "owner",
          "type": "address"
        },
        {
          "internalType": "address",
          "name": "spender",
          "type": "address"
        }
      ],
      "name": "allowance",
      "outputs": [
        {
          "internalType": "uint256",
          "name": "",
          "type": "uint256"
        }
      ],
      "stateMutability": "view",
      "type": "function"
    },
    {
      "inputs": [
        {
          "internalType": "address",
          "name": "spender",
          "type": "address"
        },
        {
          "internalType": "uint256",
          "name": "value",
          "type": "uint256"
        }
      ],
      "name": "approve",
      "outputs": [
        {
          "internalType": "bool",
          "name": "",
          "type": "bool"
        }
      ],
      "stateMutability": "nonpayable",
      "type": "function"
    },
    {
      "inputs": [
        {
          "internalType": "address",
          "name": "account",
          "type": "address"
        }
      ],
      "name": "balanceOf",
      "outputs": [
        {
          "internalType": "uint256",
          "name": "",
          "type": "uint256"
        }
      ],
      "stateMutability": "view",
      "type": "function"
    },
    {
      "inputs": [
        {
          "internalType": "uint256",
          "name": "value",
          "type": "uint256"
        }
      ],
      "name": "burn",
      "outputs": [],
      "stateMutability": "nonpayable",
      "type": "function"
    },
    {
      "inputs": [
        {
          "internalType": "address",
          "name": "account",
          "type": "address"
        },
        {
          "internalType": "uint256",
          "name": "value",
          "type": "uint256"
        }
      ],
      "name": "burnFrom",
      "outputs": [],
      "stateMutability": "nonpayable",
      "type": "function"
    },
    {
      "inputs": [],
      "name": "decimals",
      "outputs": [
        {
          "internalType": "uint8",
          "name": "",
          "type": "uint8"
        }
      ],
      "stateMutability": "view",
      "type": "function"
    },
    {
      "inputs": [
        {
          "internalType": "string",
          "name": "name",
          "type": "string"
        },
        {
          "internalType": "string",
          "name": "symbol",
          "type": "string"
        }
      ],
      "name": "initialize",
      "outputs": [],
      "stateMutability": "nonpayable",
      "type": "function"
    },
    {
      "inputs": [
        {
          "internalType": "address",
          "name": "to",
          "type": "address"
        },
        {
          "internalType": "uint256",
          "name": "amount",
          "type": "uint256"
        }
      ],
      "name": "mintTokens",
      "outputs": [],
      "stateMutability": "nonpayable",
      "type": "function"
    },
    {
      "inputs": [],
      "name": "name",
      "outputs": [
        {
          "internalType": "string",
          "name": "",
          "type": "string"
        }
      ],
      "stateMutability": "view",
      "type": "function"
    },
    {
      "inputs": [],
      "name": "owner",
      "outputs": [
        {
          "internalType": "address",
          "name": "",
          "type": "address"
        }
      ],
      "stateMutability": "view",
      "type": "function"
    },
    {
      "inputs": [],
      "name": "renounceOwnership",
      "outputs": [],
      "stateMutability": "nonpayable",
      "type": "function"
    },
    {
      "inputs": [
        {
          "internalType": "address",
          "name": "minter",
          "type": "address"
        }
      ],
      "name": "setMinter",
      "outputs": [],
      "stateMutability": "nonpayable",
      "type": "function"
    },
    {
      "inputs": [],
      "name": "symbol",
      "outputs": [
        {
          "internalType": "string",
          "name": "",
          "type": "string"
        }
      ],
      "stateMutability": "view",
      "type": "function"
    },
    {
      "inputs": [],
      "name": "totalSupply",
      "outputs": [
        {
          "internalType": "uint256",
          "name": "",
          "type": "uint256"
        }
      ],
      "stateMutability": "view",
      "type": "function"
    },
    {
      "inputs": [
        {
          "internalType": "address",
          "name": "to",
          "type": "address"
        },
        {
          "internalType": "uint256",
          "name": "value",
          "type": "uint256"
        }
      ],
      "name": "transfer",
      "outputs": [
        {
          "internalType": "bool",
          "name": "",
          "type": "bool"
        }
      ],
      "stateMutability": "nonpayable",
      "type": "function"
    },
    {
      "inputs": [
        {
          "internalType": "address",
          "name": "from",
          "type": "address"
        },
        {
          "internalType": "address",
          "name": "to",
          "type": "address"
        },
        {
          "internalType": "uint256",
          "name": "value",
          "type": "uint256"
        }
      ],
      "name": "transferFrom",
      "outputs": [
        {
          "internalType": "bool",
          "name": "",
          "type": "bool"
        }
      ],
      "stateMutability": "nonpayable",
      "type": "function"
    },
    {
      "inputs": [
        {
          "internalType": "address",
          "name": "newOwner",
          "type": "address"
        }
      ],
      "name": "transferOwnership",
      "outputs": [],
      "stateMutability": "nonpayable",
      "type": "function"
    }
  ],
  "bytecode": "0x6080604052348015600e575f5ffd5b5060156019565b60c9565b7ff0c57e16840df040f15088dc2f81fe391c3923bec73e23a9662efc9c229c6a00805468010000000000000000900460ff161560685760405163f92ee8a960e01b815260040160405180910390fd5b80546001600160401b039081161460c65780546001600160401b0319166001600160401b0390811782556040519081527fc7f505b2f371ae2175ee4913f4499e1f2633a7b5936321eed1cdaeb6115181d29060200160405180910390a15b50565b610eed806100d65f395ff3fe608060405234801561000f575f5ffd5b5060043610610106575f3560e01c8063715018a61161009e578063a9059cbb1161006e578063a9059cbb14610257578063dd62ed3e1461026a578063f0dda65c1461027d578063f2fde38b14610290578063fca3b5aa146102a3575f5ffd5b8063715018a6146101fa57806379cc6790146102025780638da5cb5b1461021557806395d89b411461024f575f5ffd5b8063313ce567116100d9578063313ce5671461018f57806342966c681461019e5780634cd88b76146101b357806370a08231146101c6575f5ffd5b806306fdde031461010a578063095ea7b31461012857806318160ddd1461014b57806323b872dd1461017c575b5f5ffd5b6101126102b6565b60405161011f9190610b23565b60405180910390f35b61013b610136366004610b73565b610376565b604051901515815260200161011f565b7f52c63247e1f47db19d5ce0460030c497f067ca4cebf71ba98eeadabe20bace02545b60405190815260200161011f565b61013b61018a366004610b9b565b61038f565b6040516012815260200161011f565b6101b16101ac366004610bd5565b6103b2565b005b6101b16101c1366004610c8b565b6103bf565b61016e6101d4366004610cf0565b6001600160a01b03165f9081525f516020610e985f395f51905f52602052604090205490565b6101b16104c3565b6101b1610210366004610b73565b6104d6565b7f9016d09d72d40fdae2fd8ceac6b6234c7706214fd39c1cd1e609a0528c199300546040516001600160a01b03909116815260200161011f565b6101126104ef565b61013b610265366004610b73565b61052d565b61016e610278366004610d10565b61053a565b6101b161028b366004610b73565b610583565b6101b161029e366004610cf0565b6105b7565b6101b16102b1366004610cf0565b6105f6565b7f52c63247e1f47db19d5ce0460030c497f067ca4cebf71ba98eeadabe20bace0380546060915f516020610e985f395f51905f52916102f490610d41565b80601f016020809104026020016040519081016040528092919081815260200182805461032090610d41565b801561036b5780601f106103425761010080835404028352916020019161036b565b820191905f5260205f20905b81548152906001019060200180831161034e57829003601f168201915b505050505091505090565b5f3361038381858561061f565b60019150505b92915050565b5f3361039c858285610631565b6103a7858585610695565b506001949350505050565b6103bc33826106f2565b50565b5f6103c8610726565b805490915060ff600160401b820416159067ffffffffffffffff165f811580156103ef5750825b90505f8267ffffffffffffffff16600114801561040b5750303b155b905081158015610419575080155b156104375760405163f92ee8a960e01b815260040160405180910390fd5b845467ffffffffffffffff19166001178555831561046157845460ff60401b1916600160401b1785555b61046b878761074e565b61047433610760565b83156104ba57845460ff60401b19168555604051600181527fc7f505b2f371ae2175ee4913f4499e1f2633a7b5936321eed1cdaeb6115181d29060200160405180910390a15b50505050505050565b6104cb610771565b6104d45f6107cc565b565b6104e1823383610631565b6104eb82826106f2565b5050565b7f52c63247e1f47db19d5ce0460030c497f067ca4cebf71ba98eeadabe20bace0480546060915f516020610e985f395f51905f52916102f490610d41565b5f33610383818585610695565b6001600160a01b039182165f9081527f52c63247e1f47db19d5ce0460030c497f067ca4cebf71ba98eeadabe20bace016020908152604080832093909416825291909152205490565b5f546001600160a01b031633146105ad57604051639cdc2ed560e01b815260040160405180910390fd5b6104eb828261083c565b6105bf610771565b6001600160a01b0381166105ed57604051631e4fbdf760e01b81525f60048201526024015b60405180910390fd5b6103bc816107cc565b6105fe610771565b5f80546001600160a01b0319166001600160a01b0392909216919091179055565b61062c8383836001610870565b505050565b5f61063c848461053a565b90505f1981101561068f578181101561068157604051637dc7a0d960e11b81526001600160a01b038416600482015260248101829052604481018390526064016105e4565b61068f84848484035f610870565b50505050565b6001600160a01b0383166106be57604051634b637e8f60e11b81525f60048201526024016105e4565b6001600160a01b0382166106e75760405163ec442f0560e01b81525f60048201526024016105e4565b61062c838383610954565b6001600160a01b03821661071b57604051634b637e8f60e11b81525f60048201526024016105e4565b6104eb825f83610954565b5f807ff0c57e16840df040f15088dc2f81fe391c3923bec73e23a9662efc9c229c6a00610389565b610756610a8d565b6104eb8282610ab2565b610768610a8d565b6103bc81610b02565b336107a37f9016d09d72d40fdae2fd8ceac6b6234c7706214fd39c1cd1e609a0528c199300546001600160a01b031690565b6001600160a01b0316146104d45760405163118cdaa760e01b81523360048201526024016105e4565b7f9016d09d72d40fdae2fd8ceac6b6234c7706214fd39c1cd1e609a0528c19930080546001600160a01b031981166001600160a01b03848116918217845560405192169182907f8be0079c531659141344cd1fd0a4f28419497f9722a3daafe3b4186f6b6457e0905f90a3505050565b6001600160a01b0382166108655760405163ec442f0560e01b81525f60048201526024016105e4565b6104eb5f8383610954565b5f516020610e985f395f51905f526001600160a01b0385166108a75760405163e602df0560e01b81525f60048201526024016105e4565b6001600160a01b0384166108d057604051634a1406b160e11b81525f60048201526024016105e4565b6001600160a01b038086165f9081526001830160209081526040808320938816835292905220839055811561094d57836001600160a01b0316856001600160a01b03167f8c5be1e5ebec7d5bd14f71427d1e84f3dd0314c0f7b2291e5b200ac8c7c3b9258560405161094491815260200190565b60405180910390a35b5050505050565b5f516020610e985f395f51905f526001600160a01b03841661098e5781816002015f8282546109839190610d79565b909155506109fe9050565b6001600160a01b0384165f90815260208290526040902054828110156109e05760405163391434e360e21b81526001600160a01b038616600482015260248101829052604481018490526064016105e4565b6001600160a01b0385165f9081526020839052604090209083900390555b6001600160a01b038316610a1c576002810180548390039055610a3a565b6001600160a01b0383165f9081526020829052604090208054830190555b826001600160a01b0316846001600160a01b03167fddf252ad1be2c89b69c2b068fc378daa952ba7f163c4a11628f55a4df523b3ef84604051610a7f91815260200190565b60405180910390a350505050565b610a95610b0a565b6104d457604051631afcd79f60e31b815260040160405180910390fd5b610aba610a8d565b5f516020610e985f395f51905f527f52c63247e1f47db19d5ce0460030c497f067ca4cebf71ba98eeadabe20bace03610af38482610ddc565b506004810161068f8382610ddc565b6105bf610a8d565b5f610b13610726565b54600160401b900460ff16919050565b602081525f82518060208401528060208501604085015e5f604082850101526040601f19601f83011684010191505092915050565b80356001600160a01b0381168114610b6e575f5ffd5b919050565b5f5f60408385031215610b84575f5ffd5b610b8d83610b58565b946020939093013593505050565b5f5f5f60608486031215610bad575f5ffd5b610bb684610b58565b9250610bc460208501610b58565b929592945050506040919091013590565b5f60208284031215610be5575f5ffd5b5035919050565b634e487b7160e01b5f52604160045260245ffd5b5f82601f830112610c0f575f5ffd5b813567ffffffffffffffff811115610c2957610c29610bec565b604051601f8201601f19908116603f0116810167ffffffffffffffff81118282101715610c5857610c58610bec565b604052818152838201602001851015610c6f575f5ffd5b816020850160208301375f918101602001919091529392505050565b5f5f60408385031215610c9c575f5ffd5b823567ffffffffffffffff811115610cb2575f5ffd5b610cbe85828601610c00565b925050602083013567ffffffffffffffff811115610cda575f5ffd5b610ce685828601610c00565b9150509250929050565b5f60208284031215610d00575f5ffd5b610d0982610b58565b9392505050565b5f5f60408385031215610d21575f5ffd5b610d2a83610b58565b9150610d3860208401610b58565b90509250929050565b600181811c90821680610d5557607f821691505b602082108103610d7357634e487b7160e01b5f52602260045260245ffd5b50919050565b8082018082111561038957634e487b7160e01b5f52601160045260245ffd5b601f82111561062c57805f5260205f20601f840160051c81016020851015610dbd5750805b601f840160051c820191505b8181101561094d575f8155600101610dc9565b815167ffffffffffffffff811115610df657610df6610bec565b610e0a81610e048454610d41565b84610d98565b6020601f821160018114610e3c575f8315610e255750848201515b5f19600385901b1c1916600184901b17845561094d565b5f84815260208120601f198516915b82811015610e6b5787850151825560209485019460019092019101610e4b565b5084821015610e8857868401515f19600387901b60f8161c191681555b50505050600190811b0190555056fe52c63247e1f47db19d5ce0460030c497f067ca4cebf71ba98eeadabe20bace00a2646970667358221220bddfcc57daf55d65982c1a50165e4aa1d5baf2d83c3554a303897a7a4292325564736f6c634300081c0033",
  "linkReferences": {},
  "deployedLinkReferences": {},
  "immutableReferences": {},
  "inputSourceName": "project/contracts/Token.sol",
  "buildInfoId": "solc-0_8_28-fb49a9197a8fe2f93caa7d75f0bfe869bd22cb0c"
}