{
    "contractName": "Token",
    "abi": [
        {
            "inputs": [
                {
                    "internalType": "string",
                    "name": "name_",
                    "type": "string"
                },
                {
                    "internalType": "string",
                    "name": "symbol_",
                    "type": "string"
                },
                {
                    "internalType": "address",
                    "name": "paymentToken_",
                    "type": "address"
                },
                {
                    "internalType": "address",
                    "name": "treasury_",
                    "type": "address"
                },
                {
                    "internalType": "uint256",
                    "name": "endTime_",
                    "type": "uint256"
                },
                {
                    "internalType": "uint256",
                    "name": "slope_",
                    "type": "uint256"
                },
                {
                    "internalType": "uint256",
                    "name": "basePrice_",
                    "type": "uint256"
                },
                {
                    "internalType": "uint256",
                    "name": "feeBps_",
                    "type": "uint256"
                }
            ],
            "stateMutability": "nonpayable",
            "type": "constructor"
        },
        {
            "inputs": [
                {
                    "internalType": "address",
                    "name": "spender",
                    "type": "address"
                },
                {
                    "internalType": "uint256",
                    "name": "allowance",
                    "type": "uint256"
                },
                {
                    "internalType": "uint256",
                    "name": "needed",
                    "type": "uint256"
                }
            ],
            "name": "ERC20InsufficientAllowance",
            "type": "error"
        },
        {
            "inputs": [
                {
                    "internalType": "address",
                    "name": "sender",
                    "type": "address"
                },
                {
                    "internalType": "uint256",
                    "name": "balance",
                    "type": "uint256"
                },
                {
                    "internalType": "uint256",
                    "name": "needed",
                    "type": "uint256"
                }
            ],
            "name": "ERC20InsufficientBalance",
            "type": "error"
        },
        {
            "inputs": [
                {
                    "internalType": "address",
                    "name": "approver",
                    "type": "address"
                }
            ],
            "name": "ERC20InvalidApprover",
            "type": "error"
        },
        {
            "inputs": [
                {
                    "internalType": "address",
                    "name": "receiver",
                    "type": "address"
                }
            ],
            "name": "ERC20InvalidReceiver",
            "type": "error"
        },
        {
            "inputs": [
                {
                    "internalType": "address",
                    "name": "sender",
                    "type": "address"
                }
            ],
            "name": "ERC20InvalidSender",
            "type": "error"
        },
        {
            "inputs": [
                {
                    "internalType": "address",
                    "name": "spender",
                    "type": "address"
                }
            ],
            "name": "ERC20InvalidSpender",
            "type": "error"
        },
        {
            "inputs": [],
            "name": "InsufficientAllowance",
            "type": "error"
        },
        {
            "inputs": [],
            "name": "InvalidAmount",
            "type": "error"
        },
        {
            "inputs": [],
            "name": "InvalidFee",
            "type": "error"
        },
        {
            "inputs": [],
            "name": "InvalidPaymentToken",
            "type": "error"
        },
        {
            "inputs": [],
            "name": "InvalidTreasury",
            "type": "error"
        },
        {
            "inputs": [],
            "name": "NotEnoughFunds",
            "type": "error"
        },
        {
            "inputs": [
                {
                    "internalType": "address",
                    "name": "owner",
                    "type": "address"
                }
            ],
            "name": "OwnableInvalidOwner",
            "type": "error"
        },
        {
            "inputs": [
                {
                    "internalType": "address",
                    "name": "account",
                    "type": "address"
                }
            ],
            "name": "OwnableUnauthorizedAccount",
            "type": "error"
        },
        {
            "inputs": [],
            "name": "ReentrancyGuardReentrantCall",
            "type": "error"
        },
        {
            "inputs": [
                {
                    "internalType": "address",
                    "name": "token",
                    "type": "address"
                }
            ],
            "name": "SafeERC20FailedOperation",
            "type": "error"
        },
        {
            "inputs": [],
            "name": "SaleEnded",
            "type": "error"
        },
        {
            "anonymous": false,
            "inputs": [
                {
                    "indexed": true,
                    "internalType": "address",
                    "name": "owner",
                    "type": "address"
                },
                {
                    "indexed": true,
                    "internalType": "address",
                    "name": "spender",
                    "type": "address"
                },
                {
                    "indexed": false,
                    "internalType": "uint256",
                    "name": "value",
                    "type": "uint256"
                }
            ],
            "name": "Approval",
            "type": "event"
        },
        {
            "anonymous": false,
            "inputs": [
                {
                    "indexed": false,
                    "internalType": "uint256",
                    "name": "newSlope",
                    "type": "uint256"
                },
                {
                    "indexed": false,
                    "internalType": "uint256",
                    "name": "newBasePrice",
                    "type": "uint256"
                }
            ],
            "name": "CurveUpdated",
            "type": "event"
        },
        {
            "anonymous": false,
            "inputs": [
                {
                    "indexed": true,
                    "internalType": "address",
                    "name": "previousOwner",
                    "type": "address"
                },
                {
                    "indexed": true,
                    "internalType": "address",
                    "name": "newOwner",
                    "type": "address"
                }
            ],
            "name": "OwnershipTransferred",
            "type": "event"
        },
        {
            "anonymous": false,
            "inputs": [
                {
                    "indexed": true,
                    "internalType": "address",
                    "name": "buyer",
                    "type": "address"
                },
                {
                    "indexed": false,
                    "internalType": "uint256",
                    "name": "amount",
                    "type": "uint256"
                },
                {
                    "indexed": false,
                    "internalType": "uint256",
                    "name": "cost",
                    "type": "uint256"
                },
                {
                    "indexed": false,
                    "internalType": "uint256",
                    "name": "feePaid",
                    "type": "uint256"
                },
                {
                    "indexed": true,
                    "internalType": "address",
                    "name": "seller",
                    "type": "address"
                }
            ],
            "name": "Purchased",
            "type": "event"
        },
        {
            "anonymous": false,
            "inputs": [
                {
                    "indexed": true,
                    "internalType": "address",
                    "name": "from",
                    "type": "address"
                },
                {
                    "indexed": true,
                    "internalType": "address",
                    "name": "to",
                    "type": "address"
                },
                {
                    "indexed": false,
                    "internalType": "uint256",
                    "name": "value",
                    "type": "uint256"
                }
            ],
            "name": "Transfer",
            "type": "event"
        },
        {
            "inputs": [
                {
                    "internalType": "address",
                    "name": "owner",
                    "type": "address"
                },
                {
                    "internalType": "address",
                    "name": "spender",
                    "type": "address"
                }
            ],
            "name": "allowance",
            "outputs": [
                {
                    "internalType": "uint256",
                    "name": "",
                    "type": "uint256"
                }
            ],
            "stateMutability": "view",
            "type": "function"
        },
        {
            "inputs": [
                {
                    "internalType": "address",
                    "name": "spender",
                    "type": "address"
                },
                {
                    "internalType": "uint256",
                    "name": "value",
                    "type": "uint256"
                }
            ],
            "name": "approve",
            "outputs": [
                {
                    "internalType": "bool",
                    "name": "",
                    "type": "bool"
                }
            ],
            "stateMutability": "nonpayable",
            "type": "function"
        },
        {
            "inputs": [
                {
                    "internalType": "address",
                    "name": "account",
                    "type": "address"
                }
            ],
            "name": "balanceOf",
            "outputs": [
                {
                    "internalType": "uint256",
                    "name": "",
                    "type": "uint256"
                }
            ],
            "stateMutability": "view",
            "type": "function"
        },
        {
            "inputs": [],
            "name": "basePrice",
            "outputs": [
                {
                    "internalType": "uint256",
                    "name": "",
                    "type": "uint256"
                }
            ],
            "stateMutability": "view",
            "type": "function"
        },
        {
            "inputs": [
                {
                    "internalType": "uint256",
                    "name": "amount",
                    "type": "uint256"
                }
            ],
            "name": "buy",
            "outputs": [],
            "stateMutability": "nonpayable",
            "type": "function"
        },
        {
            "inputs": [],
            "name": "decimals",
            "outputs": [
                {
                    "internalType": "uint8",
                    "name": "",
                    "type": "uint8"
                }
            ],
            "stateMutability": "pure",
            "type": "function"
        },
        {
            "inputs": [],
            "name": "endTime",
            "outputs": [
                {
                    "internalType": "uint256",
                    "name": "",
                    "type": "uint256"
                }
            ],
            "stateMutability": "view",
            "type": "function"
        },
        {
            "inputs": [],
            "name": "feeBps",
            "outputs": [
                {
                    "internalType": "uint256",
                    "name": "",
                    "type": "uint256"
                }
            ],
            "stateMutability": "view",
            "type": "function"
        },
        {
            "inputs": [
                {
                    "internalType": "uint256",
                    "name": "soldAmount",
                    "type": "uint256"
                },
                {
                    "internalType": "uint256",
                    "name": "amountToBuy",
                    "type": "uint256"
                }
            ],
            "name": "getCost",
            "outputs": [
                {
                    "internalType": "uint256",
                    "name": "",
                    "type": "uint256"
                }
            ],
            "stateMutability": "view",
            "type": "function"
        },
        {
            "inputs": [],
            "name": "name",
            "outputs": [
                {
                    "internalType": "string",
                    "name": "",
                    "type": "string"
                }
            ],
            "stateMutability": "view",
            "type": "function"
        },
        {
            "inputs": [],
            "name": "owner",
            "outputs": [
                {
                    "internalType": "address",
                    "name": "",
                    "type": "address"
                }
            ],
            "stateMutability": "view",
            "type": "function"
        },
        {
            "inputs": [],
            "name": "paymentToken",
            "outputs": [
                {
                    "internalType": "contract IERC20",
                    "name": "",
                    "type": "address"
                }
            ],
            "stateMutability": "view",
            "type": "function"
        },
        {
            "inputs": [],
            "name": "renounceOwnership",
            "outputs": [],
            "stateMutability": "nonpayable",
            "type": "function"
        },
        {
            "inputs": [],
            "name": "scale",
            "outputs": [
                {
                    "internalType": "uint256",
                    "name": "",
                    "type": "uint256"
                }
            ],
            "stateMutability": "view",
            "type": "function"
        },
        {
            "inputs": [],
            "name": "slope",
            "outputs": [
                {
                    "internalType": "uint256",
                    "name": "",
                    "type": "uint256"
                }
            ],
            "stateMutability": "view",
            "type": "function"
        },
        {
            "inputs": [],
            "name": "symbol",
            "outputs": [
                {
                    "internalType": "string",
                    "name": "",
                    "type": "string"
                }
            ],
            "stateMutability": "view",
            "type": "function"
        },
        {
            "inputs": [],
            "name": "tokensSold",
            "outputs": [
                {
                    "internalType": "uint256",
                    "name": "",
                    "type": "uint256"
                }
            ],
            "stateMutability": "view",
            "type": "function"
        },
        {
            "inputs": [],
            "name": "totalSupply",
            "outputs": [
                {
                    "internalType": "uint256",
                    "name": "",
                    "type": "uint256"
                }
            ],
            "stateMutability": "view",
            "type": "function"
        },
        {
            "inputs": [
                {
                    "internalType": "address",
                    "name": "to",
                    "type": "address"
                },
                {
                    "internalType": "uint256",
                    "name": "value",
                    "type": "uint256"
                }
            ],
            "name": "transfer",
            "outputs": [
                {
                    "internalType": "bool",
                    "name": "",
                    "type": "bool"
                }
            ],
            "stateMutability": "nonpayable",
            "type": "function"
        },
        {
            "inputs": [
                {
                    "internalType": "address",
                    "name": "from",
                    "type": "address"
                },
                {
                    "internalType": "address",
                    "name": "to",
                    "type": "address"
                },
                {
                    "internalType": "uint256",
                    "name": "value",
                    "type": "uint256"
                }
            ],
            "name": "transferFrom",
            "outputs": [
                {
                    "internalType": "bool",
                    "name": "",
                    "type": "bool"
                }
            ],
            "stateMutability": "nonpayable",
            "type": "function"
        },
        {
            "inputs": [
                {
                    "internalType": "address",
                    "name": "newOwner",
                    "type": "address"
                }
            ],
            "name": "transferOwnership",
            "outputs": [],
            "stateMutability": "nonpayable",
            "type": "function"
        },
        {
            "inputs": [],
            "name": "treasury",
            "outputs": [
                {
                    "internalType": "address",
                    "name": "",
                    "type": "address"
                }
            ],
            "stateMutability": "view",
            "type": "function"
        }
    ],
    "bytecode": "6101206040523461049e5761142e8038038061001a816104a2565b9283398101906101008183031261049e5780516001600160401b03811161049e57826100479183016104c7565b602082015190926001600160401b03821161049e576100679183016104c7565b61007360408301610518565b9261008060608401610518565b60808401519060a08501519360e060c08701519601519380519060018060401b0382116103a15760035490600182811c92168015610494575b60208310146103835781601f849311610426575b50602090601f83116001146103c0575f926103b5575b50508160011b915f199060031b1c1916176003555b8051906001600160401b0382116103a15760045490600182811c92168015610397575b60208310146103835781601f849311610315575b50602090601f83116001146102af575f926102a4575b50508160011b915f199060031b1c1916176004555b33156102915760058054336001600160a01b0319821681179092556040519791906001600160a01b03167f8be0079c531659141344cd1fd0a4f28419497f9722a3daafe3b4186f6b6457e05f80a360016006556001600160a01b03168015610282576001600160a01b0382161561027357428311156102645761271084116102555760805260a05260c05260e0526007556008555f600955600161010052610f01908161052d82396080518181816102970152610879015260a05181818161044a01526107c3015260c0518181816102380152610826015260e05181818161039a01526108bf0152610100518181816101250152610bf10152f35b6358d620b360e01b5f5260045ffd5b630bd8a3eb60e01b5f5260045ffd5b6302979eb960e31b5f5260045ffd5b6356e7ec5f60e01b5f5260045ffd5b631e4fbdf760e01b5f525f60045260245ffd5b015190505f80610145565b60045f9081528281209350601f198516905b8181106102fd57509084600195949392106102e5575b505050811b0160045561015a565b01515f1960f88460031b161c191690555f80806102d7565b929360206001819287860151815501950193016102c1565b60045f529091507f8a35acfbc15ff81a39ae7d344fd709f28e8600b4aa8c65c6b64bfe7fe36bd19b601f840160051c81019160208510610379575b90601f859493920160051c01905b81811061036b575061012f565b5f815584935060010161035e565b9091508190610350565b634e487b7160e01b5f52602260045260245ffd5b91607f169161011b565b634e487b7160e01b5f52604160045260245ffd5b015190505f806100e3565b60035f9081528281209350601f198516905b81811061040e57509084600195949392106103f6575b505050811b016003556100f8565b01515f1960f88460031b161c191690555f80806103e8565b929360206001819287860151815501950193016103d2565b60035f529091507fc2575a0e9e593c00f959f8c92f12db2869c3395a3b0502d05e2516446f71f85b601f840160051c8101916020851061048a575b90601f859493920160051c01905b81811061047c57506100cd565b5f815584935060010161046f565b9091508190610461565b91607f16916100b9565b5f80fd5b6040519190601f01601f191682016001600160401b038111838210176103a157604052565b81601f8201121561049e578051906001600160401b0382116103a1576104f6601f8301601f19166020016104a2565b928284526020838301011161049e57815f9260208093018386015e8301015290565b51906001600160a01b038216820361049e5756fe6080806040526004361015610012575f80fd5b5f3560e01c90816306fdde0314610a6057508063095ea7b3146109de57806318160ddd146109c157806323b872dd146108e257806324a9d853146108a85780633013ce2914610864578063313ce567146108495780633197cbb61461080f578063518ab2a8146107f257806361d027b3146107ae57806370a0823114610777578063715018a61461071c57806383caf275146106ff5780638da5cb5b146106d757806395d89b41146105d3578063a7c18c14146105aa578063a9059cbb14610579578063c7876ea41461055c578063d96a094a14610222578063dd62ed3e146101d2578063f2fde38b1461014c5763f51e181a1461010e575f80fd5b34610148575f3660031901126101485760206040517f00000000000000000000000000000000000000000000000000000000000000008152f35b5f80fd5b3461014857602036600319011261014857610165610b42565b61016d610cf7565b6001600160a01b031680156101bf57600580546001600160a01b0319811683179091556001600160a01b03167f8be0079c531659141344cd1fd0a4f28419497f9722a3daafe3b4186f6b6457e05f80a3005b631e4fbdf760e01b5f525f60045260245ffd5b34610148576040366003190112610148576101eb610b42565b6101f3610b58565b6001600160a01b039182165f908152600160209081526040808320949093168252928352819020549051908152f35b34610148576020366003190112610148576004357f0000000000000000000000000000000000000000000000000000000000000000421161054d5760026006541461053e576002600655801561052f57600954906102808183610bb1565b6040516370a0823160e01b815233600482015290927f0000000000000000000000000000000000000000000000000000000000000000916001600160a01b03831690602081602481855afa80156104e05786915f916104fa575b50106104eb57602060449160405192838092636eb1769f60e11b82523360048301523060248301525afa80156104e05785915f916104ab575b501061049c578261032391610ba4565b600955670de0b6b3a76400008202828104670de0b6b3a7640000036104755733156104895761035481600254610ba4565b600255335f525f60205260405f208181540190556040519081525f7fddf252ad1be2c89b69c2b068fc378daa952ba7f163c4a11628f55a4df523b3ef60203393a36103bf7f000000000000000000000000000000000000000000000000000000000000000084610d1e565b908184038481116104755782610444575b828503610423575b505060018060a01b036005541692604051928352602083015260408201527f25eac5783506476870e6e92210ff98e510dde71793a190d77d19ca2ceaf6024d60603392a36001600655005b60055461043d926001600160a01b03909116903390610e34565b83806103d8565b610470837f00000000000000000000000000000000000000000000000000000000000000003385610e34565b6103d0565b634e487b7160e01b5f52601160045260245ffd5b63ec442f0560e01b5f525f60045260245ffd5b6313be252b60e01b5f5260045ffd5b9150506020813d6020116104d8575b816104c760209383610b6e565b810103126101485784905186610313565b3d91506104ba565b6040513d5f823e3d90fd5b631036b5ad60e31b5f5260045ffd5b9150506020813d602011610527575b8161051660209383610b6e565b8101031261014857859051876102da565b3d9150610509565b63162908e360e11b5f5260045ffd5b633ee5aeb560e01b5f5260045ffd5b630bd8a3eb60e01b5f5260045ffd5b34610148575f366003190112610148576020600854604051908152f35b346101485760403660031901126101485761059f610595610b42565b6024359033610c4d565b602060405160018152f35b346101485760403660031901126101485760206105cb602435600435610bb1565b604051908152f35b34610148575f366003190112610148576040515f6004548060011c906001811680156106cd575b6020831081146106b9578285529081156106955750600114610637575b6106338361062781850382610b6e565b60405191829182610b18565b0390f35b91905060045f527f8a35acfbc15ff81a39ae7d344fd709f28e8600b4aa8c65c6b64bfe7fe36bd19b915f905b80821061067b57509091508101602001610627610617565b919260018160209254838588010152019101909291610663565b60ff191660208086019190915291151560051b840190910191506106279050610617565b634e487b7160e01b5f52602260045260245ffd5b91607f16916105fa565b34610148575f366003190112610148576005546040516001600160a01b039091168152602090f35b34610148575f366003190112610148576020600754604051908152f35b34610148575f36600319011261014857610734610cf7565b600580546001600160a01b031981169091555f906001600160a01b03167f8be0079c531659141344cd1fd0a4f28419497f9722a3daafe3b4186f6b6457e08280a3005b34610148576020366003190112610148576001600160a01b03610798610b42565b165f525f602052602060405f2054604051908152f35b34610148575f366003190112610148576040517f00000000000000000000000000000000000000000000000000000000000000006001600160a01b03168152602090f35b34610148575f366003190112610148576020600954604051908152f35b34610148575f3660031901126101485760206040517f00000000000000000000000000000000000000000000000000000000000000008152f35b34610148575f36600319011261014857602060405160128152f35b34610148575f366003190112610148576040517f00000000000000000000000000000000000000000000000000000000000000006001600160a01b03168152602090f35b34610148575f3660031901126101485760206040517f00000000000000000000000000000000000000000000000000000000000000008152f35b34610148576060366003190112610148576108fb610b42565b610903610b58565b6001600160a01b0382165f818152600160209081526040808320338452909152902054909260443592915f198110610941575b5061059f9350610c4d565b8381106109a65784156109935733156109805761059f945f52600160205260405f2060018060a01b0333165f526020528360405f209103905584610936565b634a1406b160e11b5f525f60045260245ffd5b63e602df0560e01b5f525f60045260245ffd5b8390637dc7a0d960e11b5f523360045260245260445260645ffd5b34610148575f366003190112610148576020600254604051908152f35b34610148576040366003190112610148576109f7610b42565b602435903315610993576001600160a01b031690811561098057335f52600160205260405f20825f526020528060405f20556040519081527f8c5be1e5ebec7d5bd14f71427d1e84f3dd0314c0f7b2291e5b200ac8c7c3b92560203392a3602060405160018152f35b34610148575f366003190112610148575f6003548060011c90600181168015610b0e575b6020831081146106b9578285529081156106955750600114610ab0576106338361062781850382610b6e565b91905060035f527fc2575a0e9e593c00f959f8c92f12db2869c3395a3b0502d05e2516446f71f85b915f905b808210610af457509091508101602001610627610617565b919260018160209254838588010152019101909291610adc565b91607f1691610a84565b602060409281835280519182918282860152018484015e5f828201840152601f01601f1916010190565b600435906001600160a01b038216820361014857565b602435906001600160a01b038216820361014857565b90601f8019910116810190811067ffffffffffffffff821117610b9057604052565b634e487b7160e01b5f52604160045260245ffd5b9190820180921161047557565b8115610c47576001600160ff1b03811681036104755781610bd49160011b610ba4565b6001810180911161047557610be99082610d87565b6007549091907f00000000000000000000000000000000000000000000000000000000000000006001600160ff1b038116810361047557610c35610c3e92610c44958360011b91610db4565b92600854610db4565b90610ba4565b90565b50505f90565b6001600160a01b0316908115610ce4576001600160a01b031691821561048957815f525f60205260405f2054818110610ccb57817fddf252ad1be2c89b69c2b068fc378daa952ba7f163c4a11628f55a4df523b3ef92602092855f525f84520360405f2055845f525f825260405f20818154019055604051908152a3565b8263391434e360e21b5f5260045260245260445260645ffd5b634b637e8f60e11b5f525f60045260245ffd5b6005546001600160a01b03163303610d0b57565b63118cdaa760e01b5f523360045260245ffd5b808202905f198382099082808310920391808303928361271011156101485714610d7c577fbc01a36e2eb1c432ca57a786c226809d495182a9930be0ded288ce703afb7e9193612710910990828211900360fc1b910360041c170290565b505061271091500490565b808202915f19818309838082109103818103600111156101485714610daf5760019109900390565b505090565b91818302915f19818509938380861095039480860395868511156101485714610e2c579082910981805f03168092046002816003021880820260020302808202600203028082026002030280820260020302808202600203028091026002030293600183805f03040190848311900302920304170290565b505091500490565b6040516323b872dd60e01b60208083019182526001600160a01b039485166024840152949093166044820152606480820195909552938452925f9190610e7b608482610b6e565b519082855af1156104e0575f513d610ec257506001600160a01b0381163b155b610ea25750565b635274afe760e01b5f9081526001600160a01b0391909116600452602490fd5b60011415610e9b56fea2646970667358221220653180ab3e67b178eee3789539eb4351cd374508c25436516d64d12795f835d664736f6c634300081e0033",
    "sourcePath": "d:/work/cyberk/blockchain-2026/members/thiennv/b6/contracts/Token.sol",
    "compiler": {
        "name": "solc",
        "version": "0.8.30+commit.73712a01"
    },
    "functionHashes": {
        "allowance(address,address)": "dd62ed3e",
        "approve(address,uint256)": "095ea7b3",
        "balanceOf(address)": "70a08231",
        "basePrice()": "c7876ea4",
        "buy(uint256)": "d96a094a",
        "decimals()": "313ce567",
        "endTime()": "3197cbb6",
        "feeBps()": "24a9d853",
        "getCost(uint256,uint256)": "a7c18c14",
        "name()": "06fdde03",
        "owner()": "8da5cb5b",
        "paymentToken()": "3013ce29",
        "renounceOwnership()": "715018a6",
        "scale()": "f51e181a",
        "slope()": "83caf275",
        "symbol()": "95d89b41",
        "tokensSold()": "518ab2a8",
        "totalSupply()": "18160ddd",
        "transfer(address,uint256)": "a9059cbb",
        "transferFrom(address,address,uint256)": "23b872dd",
        "transferOwnership(address)": "f2fde38b",
        "treasury()": "61d027b3"
    },
    "gasEstimates": {
        "creation": {
            "codeDepositCost": "768200",
            "executionCost": "infinite",
            "totalCost": "infinite"
        },
        "external": {
            "allowance(address,address)": "2991",
            "approve(address,uint256)": "24325",
            "balanceOf(address)": "2625",
            "basePrice()": "2630",
            "buy(uint256)": "infinite",
            "decimals()": "285",
            "endTime()": "infinite",
            "feeBps()": "infinite",
            "getCost(uint256,uint256)": "infinite",
            "name()": "infinite",
            "owner()": "2566",
            "paymentToken()": "infinite",
            "renounceOwnership()": "28302",
            "scale()": "infinite",
            "slope()": "2520",
            "symbol()": "infinite",
            "tokensSold()": "2432",
            "totalSupply()": "2300",
            "transfer(address,uint256)": "51106",
            "transferFrom(address,address,uint256)": "75523",
            "transferOwnership(address)": "28611",
            "treasury()": "infinite"
        }
    }
}