{
  "_format": "hh3-artifact-1",
  "contractName": "TokenFactoryV2",
  "sourceName": "contracts/TokenFactoryV2.sol",
  "abi": [
    {
      "inputs": [],
      "stateMutability": "nonpayable",
      "type": "constructor"
    },
    {
      "inputs": [
        {
          "internalType": "address",
          "name": "target",
          "type": "address"
        }
      ],
      "name": "AddressEmptyCode",
      "type": "error"
    },
    {
      "inputs": [
        {
          "internalType": "address",
          "name": "implementation",
          "type": "address"
        }
      ],
      "name": "ERC1967InvalidImplementation",
      "type": "error"
    },
    {
      "inputs": [],
      "name": "ERC1967NonPayable",
      "type": "error"
    },
    {
      "inputs": [],
      "name": "FailedCall",
      "type": "error"
    },
    {
      "inputs": [],
      "name": "FailedDeployment",
      "type": "error"
    },
    {
      "inputs": [
        {
          "internalType": "uint256",
          "name": "balance",
          "type": "uint256"
        },
        {
          "internalType": "uint256",
          "name": "needed",
          "type": "uint256"
        }
      ],
      "name": "InsufficientBalance",
      "type": "error"
    },
    {
      "inputs": [],
      "name": "InvalidInitialization",
      "type": "error"
    },
    {
      "inputs": [],
      "name": "NotInitializing",
      "type": "error"
    },
    {
      "inputs": [
        {
          "internalType": "address",
          "name": "owner",
          "type": "address"
        }
      ],
      "name": "OwnableInvalidOwner",
      "type": "error"
    },
    {
      "inputs": [
        {
          "internalType": "address",
          "name": "account",
          "type": "address"
        }
      ],
      "name": "OwnableUnauthorizedAccount",
      "type": "error"
    },
    {
      "inputs": [],
      "name": "UUPSUnauthorizedCallContext",
      "type": "error"
    },
    {
      "inputs": [
        {
          "internalType": "bytes32",
          "name": "slot",
          "type": "bytes32"
        }
      ],
      "name": "UUPSUnsupportedProxiableUUID",
      "type": "error"
    },
    {
      "anonymous": false,
      "inputs": [
        {
          "indexed": false,
          "internalType": "uint64",
          "name": "version",
          "type": "uint64"
        }
      ],
      "name": "Initialized",
      "type": "event"
    },
    {
      "anonymous": false,
      "inputs": [
        {
          "indexed": true,
          "internalType": "address",
          "name": "previousOwner",
          "type": "address"
        },
        {
          "indexed": true,
          "internalType": "address",
          "name": "newOwner",
          "type": "address"
        }
      ],
      "name": "OwnershipTransferred",
      "type": "event"
    },
    {
      "anonymous": false,
      "inputs": [
        {
          "indexed": true,
          "internalType": "address",
          "name": "tokenAddress",
          "type": "address"
        },
        {
          "indexed": false,
          "internalType": "string",
          "name": "name",
          "type": "string"
        },
        {
          "indexed": false,
          "internalType": "string",
          "name": "symbol",
          "type": "string"
        }
      ],
      "name": "TokenDeployed",
      "type": "event"
    },
    {
      "anonymous": false,
      "inputs": [
        {
          "indexed": true,
          "internalType": "address",
          "name": "tokenAddress",
          "type": "address"
        },
        {
          "indexed": false,
          "internalType": "string",
          "name": "name",
          "type": "string"
        },
        {
          "indexed": false,
          "internalType": "string",
          "name": "symbol",
          "type": "string"
        }
      ],
      "name": "TokenDeployedV2",
      "type": "event"
    },
    {
      "anonymous": false,
      "inputs": [
        {
          "indexed": true,
          "internalType": "address",
          "name": "implementation",
          "type": "address"
        }
      ],
      "name": "Upgraded",
      "type": "event"
    },
    {
      "inputs": [],
      "name": "UPGRADE_INTERFACE_VERSION",
      "outputs": [
        {
          "internalType": "string",
          "name": "",
          "type": "string"
        }
      ],
      "stateMutability": "view",
      "type": "function"
    },
    {
      "inputs": [
        {
          "internalType": "string",
          "name": "tokenName",
          "type": "string"
        },
        {
          "internalType": "string",
          "name": "tokenSymbol",
          "type": "string"
        },
        {
          "internalType": "uint256",
          "name": "initialSupply",
          "type": "uint256"
        }
      ],
      "name": "deployNewToken",
      "outputs": [
        {
          "internalType": "address",
          "name": "instance",
          "type": "address"
        }
      ],
      "stateMutability": "nonpayable",
      "type": "function"
    },
    {
      "inputs": [
        {
          "internalType": "address",
          "name": "",
          "type": "address"
        }
      ],
      "name": "exists",
      "outputs": [
        {
          "internalType": "bool",
          "name": "",
          "type": "bool"
        }
      ],
      "stateMutability": "view",
      "type": "function"
    },
    {
      "inputs": [],
      "name": "initialize",
      "outputs": [],
      "stateMutability": "nonpayable",
      "type": "function"
    },
    {
      "inputs": [],
      "name": "owner",
      "outputs": [
        {
          "internalType": "address",
          "name": "",
          "type": "address"
        }
      ],
      "stateMutability": "view",
      "type": "function"
    },
    {
      "inputs": [],
      "name": "proxiableUUID",
      "outputs": [
        {
          "internalType": "bytes32",
          "name": "",
          "type": "bytes32"
        }
      ],
      "stateMutability": "view",
      "type": "function"
    },
    {
      "inputs": [],
      "name": "renounceOwnership",
      "outputs": [],
      "stateMutability": "nonpayable",
      "type": "function"
    },
    {
      "inputs": [
        {
          "internalType": "address",
          "name": "newOwner",
          "type": "address"
        }
      ],
      "name": "transferOwnership",
      "outputs": [],
      "stateMutability": "nonpayable",
      "type": "function"
    },
    {
      "inputs": [
        {
          "internalType": "address",
          "name": "newImplementation",
          "type": "address"
        },
        {
          "internalType": "bytes",
          "name": "data",
          "type": "bytes"
        }
      ],
      "name": "upgradeToAndCall",
      "outputs": [],
      "stateMutability": "payable",
      "type": "function"
    },
    {
      "inputs": [],
      "name": "version",
      "outputs": [
        {
          "internalType": "uint256",
          "name": "",
          "type": "uint256"
        }
      ],
      "stateMutability": "pure",
      "type": "function"
    }
  ],
  "bytecode": "0x60a060405230608052348015610013575f5ffd5b5061001c610021565b6100d3565b7ff0c57e16840df040f15088dc2f81fe391c3923bec73e23a9662efc9c229c6a00805468010000000000000000900460ff16156100715760405163f92ee8a960e01b815260040160405180910390fd5b80546001600160401b03908116146100d05780546001600160401b0319166001600160401b0390811782556040519081527fc7f505b2f371ae2175ee4913f4499e1f2633a7b5936321eed1cdaeb6115181d29060200160405180910390a15b50565b60805161214f6100f95f395f81816104cf015281816104f8015261063c015261214f5ff3fe60806040526004361061008f575f3560e01c80638da5cb5b116100575780638da5cb5b1461010a578063ad3cb1cc1461015a578063b8b9ebeb14610197578063f2fde38b146101b6578063f6a3d24e146101d5575f5ffd5b80634f1ef2861461009357806352d1902d146100a857806354fd4d50146100cf578063715018a6146100e25780638129fc1c146100f6575b5f5ffd5b6100a66100a1366004610af0565b610213565b005b3480156100b3575f5ffd5b506100bc610232565b6040519081526020015b60405180910390f35b3480156100da575f5ffd5b5060026100bc565b3480156100ed575f5ffd5b506100a661024d565b348015610101575f5ffd5b506100a6610260565b348015610115575f5ffd5b507f9016d09d72d40fdae2fd8ceac6b6234c7706214fd39c1cd1e609a0528c199300546001600160a01b03165b6040516001600160a01b0390911681526020016100c6565b348015610165575f5ffd5b5061018a604051806040016040528060058152602001640352e302e360dc1b81525081565b6040516100c69190610b7c565b3480156101a2575f5ffd5b506101426101b1366004610bac565b6103a6565b3480156101c1575f5ffd5b506100a66101d0366004610c19565b610482565b3480156101e0575f5ffd5b506102036101ef366004610c19565b5f6020819052908152604090205460ff1681565b60405190151581526020016100c6565b61021b6104c4565b61022482610568565b61022e8282610570565b5050565b5f61023b610631565b505f5160206120fa5f395f51905f5290565b61025561067a565b61025e5f6106d5565b565b5f610269610745565b805490915060ff600160401b820416159067ffffffffffffffff165f811580156102905750825b90505f8267ffffffffffffffff1660011480156102ac5750303b155b9050811580156102ba575080155b156102d85760405163f92ee8a960e01b815260040160405180910390fd5b845467ffffffffffffffff19166001178555831561030257845460ff60401b1916600160401b1785555b61030a61076f565b61031333610777565b60405161031f90610a3d565b604051809103905ff080158015610338573d5f5f3e3d5ffd5b50600180546001600160a01b0319166001600160a01b0392909216919091179055831561039f57845460ff60401b19168555604051600181527fc7f505b2f371ae2175ee4913f4499e1f2633a7b5936321eed1cdaeb6115181d29060200160405180910390a15b5050505050565b6001545f906103bd906001600160a01b0316610788565b60405163588ca48760e11b81529091506001600160a01b0382169063b119490e906103f090879087908790600401610c32565b5f604051808303815f87803b158015610407575f5ffd5b505af1158015610419573d5f5f3e3d5ffd5b5050506001600160a01b0382165f8181526020819052604090819020805460ff19166001179055519091507fd425c56a34292f8d8e14e67677a9029cedbca3879d6d15f1f4460e5f01bb71b3906104739087908790610c67565b60405180910390a29392505050565b61048a61067a565b6001600160a01b0381166104b857604051631e4fbdf760e01b81525f60048201526024015b60405180910390fd5b6104c1816106d5565b50565b306001600160a01b037f000000000000000000000000000000000000000000000000000000000000000016148061054a57507f00000000000000000000000000000000000000000000000000000000000000006001600160a01b031661053e5f5160206120fa5f395f51905f52546001600160a01b031690565b6001600160a01b031614155b1561025e5760405163703e46dd60e11b815260040160405180910390fd5b6104c161067a565b816001600160a01b03166352d1902d6040518163ffffffff1660e01b8152600401602060405180830381865afa9250505080156105ca575060408051601f3d908101601f191682019092526105c791810190610c8b565b60015b6105f257604051634c9c8ce360e01b81526001600160a01b03831660048201526024016104af565b5f5160206120fa5f395f51905f52811461062257604051632a87526960e21b8152600481018290526024016104af565b61062c8383610793565b505050565b306001600160a01b037f0000000000000000000000000000000000000000000000000000000000000000161461025e5760405163703e46dd60e11b815260040160405180910390fd5b336106ac7f9016d09d72d40fdae2fd8ceac6b6234c7706214fd39c1cd1e609a0528c199300546001600160a01b031690565b6001600160a01b03161461025e5760405163118cdaa760e01b81523360048201526024016104af565b7f9016d09d72d40fdae2fd8ceac6b6234c7706214fd39c1cd1e609a0528c19930080546001600160a01b031981166001600160a01b03848116918217845560405192169182907f8be0079c531659141344cd1fd0a4f28419497f9722a3daafe3b4186f6b6457e0905f90a3505050565b5f807ff0c57e16840df040f15088dc2f81fe391c3923bec73e23a9662efc9c229c6a005b92915050565b61025e6107e8565b61077f6107e8565b6104c18161080d565b5f610769825f610815565b61079c826108a9565b6040516001600160a01b038316907fbc7cd75a20ee27fd9adebab32041f755214dbc6bffa90cc0225b39da2e5c2d3b905f90a28051156107e05761062c828261090c565b61022e61097e565b6107f061099d565b61025e57604051631afcd79f60e31b815260040160405180910390fd5b61048a6107e8565b5f814710156108405760405163cf47918160e01b8152476004820152602481018390526044016104af565b763d602d80600a3d3981f3363d3d373d3d3d363d730000008360601b60e81c175f526e5af43d82803e903d91602b57fd5bf38360781b176020526037600983f090506001600160a01b0381166107695760405163b06ebf3d60e01b815260040160405180910390fd5b806001600160a01b03163b5f036108de57604051634c9c8ce360e01b81526001600160a01b03821660048201526024016104af565b5f5160206120fa5f395f51905f5280546001600160a01b0319166001600160a01b0392909216919091179055565b60605f5f846001600160a01b0316846040516109289190610ca2565b5f60405180830381855af49150503d805f8114610960576040519150601f19603f3d011682016040523d82523d5f602084013e610965565b606091505b50915091506109758583836109b6565b95945050505050565b341561025e5760405163b398979f60e01b815260040160405180910390fd5b5f6109a6610745565b54600160401b900460ff16919050565b6060826109cb576109c682610a15565b610a0e565b81511580156109e257506001600160a01b0384163b155b15610a0b57604051639996b31560e01b81526001600160a01b03851660048201526024016104af565b50805b9392505050565b805115610a2457805160208201fd5b60405163d6bda27560e01b815260040160405180910390fd5b61144180610cb983390190565b80356001600160a01b0381168114610a60575f5ffd5b919050565b634e487b7160e01b5f52604160045260245ffd5b5f5f67ffffffffffffffff841115610a9357610a93610a65565b50604051601f19601f85018116603f0116810181811067ffffffffffffffff82111715610ac257610ac2610a65565b604052838152905080828401851015610ad9575f5ffd5b838360208301375f60208583010152509392505050565b5f5f60408385031215610b01575f5ffd5b610b0a83610a4a565b9150602083013567ffffffffffffffff811115610b25575f5ffd5b8301601f81018513610b35575f5ffd5b610b4485823560208401610a79565b9150509250929050565b5f81518084528060208401602086015e5f602082860101526020601f19601f83011685010191505092915050565b602081525f610a0e6020830184610b4e565b5f82601f830112610b9d575f5ffd5b610a0e83833560208501610a79565b5f5f5f60608486031215610bbe575f5ffd5b833567ffffffffffffffff811115610bd4575f5ffd5b610be086828701610b8e565b935050602084013567ffffffffffffffff811115610bfc575f5ffd5b610c0886828701610b8e565b925050604084013590509250925092565b5f60208284031215610c29575f5ffd5b610a0e82610a4a565b606081525f610c446060830186610b4e565b8281036020840152610c568186610b4e565b915050826040830152949350505050565b604081525f610c796040830185610b4e565b82810360208401526109758185610b4e565b5f60208284031215610c9b575f5ffd5b5051919050565b5f82518060208501845e5f92019182525091905056fe60a060405230608052348015610013575f5ffd5b5061001c610021565b6100d3565b7ff0c57e16840df040f15088dc2f81fe391c3923bec73e23a9662efc9c229c6a00805468010000000000000000900460ff16156100715760405163f92ee8a960e01b815260040160405180910390fd5b80546001600160401b03908116146100d05780546001600160401b0319166001600160401b0390811782556040519081527fc7f505b2f371ae2175ee4913f4499e1f2633a7b5936321eed1cdaeb6115181d29060200160405180910390a15b50565b6080516113486100f95f395f81816108160152818161083f015261097e01526113485ff3fe6080604052600436106100fa575f3560e01c806370a0823111610092578063a9059cbb11610062578063a9059cbb146102c4578063ad3cb1cc146102e3578063b119490e14610313578063dd62ed3e14610332578063f2fde38b14610351575f5ffd5b806370a0823114610216578063715018a6146102565780638da5cb5b1461026a57806395d89b41146102b0575f5ffd5b8063313ce567116100cd578063313ce567146101b357806340c10f19146101ce5780634f1ef286146101ef57806352d1902d14610202575f5ffd5b806306fdde03146100fe578063095ea7b31461012857806318160ddd1461015757806323b872dd14610194575b5f5ffd5b348015610109575f5ffd5b50610112610370565b60405161011f9190610ede565b60405180910390f35b348015610133575f5ffd5b50610147610142366004610f2e565b610430565b604051901515815260200161011f565b348015610162575f5ffd5b507f52c63247e1f47db19d5ce0460030c497f067ca4cebf71ba98eeadabe20bace02545b60405190815260200161011f565b34801561019f575f5ffd5b506101476101ae366004610f56565b610449565b3480156101be575f5ffd5b506040516012815260200161011f565b3480156101d9575f5ffd5b506101ed6101e8366004610f2e565b61046e565b005b6101ed6101fd36600461101b565b610484565b34801561020d575f5ffd5b5061018661049f565b348015610221575f5ffd5b50610186610230366004611079565b6001600160a01b03165f9081525f5160206112d35f395f51905f52602052604090205490565b348015610261575f5ffd5b506101ed6104ba565b348015610275575f5ffd5b507f9016d09d72d40fdae2fd8ceac6b6234c7706214fd39c1cd1e609a0528c199300546040516001600160a01b03909116815260200161011f565b3480156102bb575f5ffd5b506101126104cd565b3480156102cf575f5ffd5b506101476102de366004610f2e565b61050b565b3480156102ee575f5ffd5b50610112604051806040016040528060058152602001640352e302e360dc1b81525081565b34801561031e575f5ffd5b506101ed61032d3660046110b0565b610518565b34801561033d575f5ffd5b5061018661034c36600461111e565b61061e565b34801561035c575f5ffd5b506101ed61036b366004611079565b610667565b7f52c63247e1f47db19d5ce0460030c497f067ca4cebf71ba98eeadabe20bace0380546060915f5160206112d35f395f51905f52916103ae9061114f565b80601f01602080910402602001604051908101604052809291908181526020018280546103da9061114f565b80156104255780601f106103fc57610100808354040283529160200191610425565b820191905f5260205f20905b81548152906001019060200180831161040857829003601f168201915b505050505091505090565b5f3361043d8185856106a9565b60019150505b92915050565b5f336104568582856106bb565b61046185858561071f565b60019150505b9392505050565b61047661077c565b61048082826107d7565b5050565b61048c61080b565b610495826108af565b61048082826108b7565b5f6104a8610973565b505f5160206112f35f395f51905f5290565b6104c261077c565b6104cb5f6109bc565b565b7f52c63247e1f47db19d5ce0460030c497f067ca4cebf71ba98eeadabe20bace0480546060915f5160206112d35f395f51905f52916103ae9061114f565b5f3361043d81858561071f565b5f610521610a2c565b805490915060ff600160401b820416159067ffffffffffffffff165f811580156105485750825b90505f8267ffffffffffffffff1660011480156105645750303b155b905081158015610572575080155b156105905760405163f92ee8a960e01b815260040160405180910390fd5b845467ffffffffffffffff1916600117855583156105ba57845460ff60401b1916600160401b1785555b6105c48888610a54565b6105ce33876107d7565b831561061457845460ff60401b19168555604051600181527fc7f505b2f371ae2175ee4913f4499e1f2633a7b5936321eed1cdaeb6115181d29060200160405180910390a15b5050505050505050565b6001600160a01b039182165f9081527f52c63247e1f47db19d5ce0460030c497f067ca4cebf71ba98eeadabe20bace016020908152604080832093909416825291909152205490565b61066f61077c565b6001600160a01b03811661069d57604051631e4fbdf760e01b81525f60048201526024015b60405180910390fd5b6106a6816109bc565b50565b6106b68383836001610a66565b505050565b5f6106c6848461061e565b90505f19811015610719578181101561070b57604051637dc7a0d960e11b81526001600160a01b03841660048201526024810182905260448101839052606401610694565b61071984848484035f610a66565b50505050565b6001600160a01b03831661074857604051634b637e8f60e11b81525f6004820152602401610694565b6001600160a01b0382166107715760405163ec442f0560e01b81525f6004820152602401610694565b6106b6838383610b4a565b336107ae7f9016d09d72d40fdae2fd8ceac6b6234c7706214fd39c1cd1e609a0528c199300546001600160a01b031690565b6001600160a01b0316146104cb5760405163118cdaa760e01b8152336004820152602401610694565b6001600160a01b0382166108005760405163ec442f0560e01b81525f6004820152602401610694565b6104805f8383610b4a565b306001600160a01b037f000000000000000000000000000000000000000000000000000000000000000016148061089157507f00000000000000000000000000000000000000000000000000000000000000006001600160a01b03166108855f5160206112f35f395f51905f52546001600160a01b031690565b6001600160a01b031614155b156104cb5760405163703e46dd60e11b815260040160405180910390fd5b6106a661077c565b816001600160a01b03166352d1902d6040518163ffffffff1660e01b8152600401602060405180830381865afa925050508015610911575060408051601f3d908101601f1916820190925261090e91810190611187565b60015b61093957604051634c9c8ce360e01b81526001600160a01b0383166004820152602401610694565b5f5160206112f35f395f51905f52811461096957604051632a87526960e21b815260048101829052602401610694565b6106b68383610c83565b306001600160a01b037f000000000000000000000000000000000000000000000000000000000000000016146104cb5760405163703e46dd60e11b815260040160405180910390fd5b7f9016d09d72d40fdae2fd8ceac6b6234c7706214fd39c1cd1e609a0528c19930080546001600160a01b031981166001600160a01b03848116918217845560405192169182907f8be0079c531659141344cd1fd0a4f28419497f9722a3daafe3b4186f6b6457e0905f90a3505050565b5f807ff0c57e16840df040f15088dc2f81fe391c3923bec73e23a9662efc9c229c6a00610443565b610a5c610cd8565b6104808282610cfd565b5f5160206112d35f395f51905f526001600160a01b038516610a9d5760405163e602df0560e01b81525f6004820152602401610694565b6001600160a01b038416610ac657604051634a1406b160e11b81525f6004820152602401610694565b6001600160a01b038086165f90815260018301602090815260408083209388168352929052208390558115610b4357836001600160a01b0316856001600160a01b03167f8c5be1e5ebec7d5bd14f71427d1e84f3dd0314c0f7b2291e5b200ac8c7c3b92585604051610b3a91815260200190565b60405180910390a35b5050505050565b5f5160206112d35f395f51905f526001600160a01b038416610b845781816002015f828254610b79919061119e565b90915550610bf49050565b6001600160a01b0384165f9081526020829052604090205482811015610bd65760405163391434e360e21b81526001600160a01b03861660048201526024810182905260448101849052606401610694565b6001600160a01b0385165f9081526020839052604090209083900390555b6001600160a01b038316610c12576002810180548390039055610c30565b6001600160a01b0383165f9081526020829052604090208054830190555b826001600160a01b0316846001600160a01b03167fddf252ad1be2c89b69c2b068fc378daa952ba7f163c4a11628f55a4df523b3ef84604051610c7591815260200190565b60405180910390a350505050565b610c8c82610d4d565b6040516001600160a01b038316907fbc7cd75a20ee27fd9adebab32041f755214dbc6bffa90cc0225b39da2e5c2d3b905f90a2805115610cd0576106b68282610db0565b610480610e22565b610ce0610e41565b6104cb57604051631afcd79f60e31b815260040160405180910390fd5b610d05610cd8565b5f5160206112d35f395f51905f527f52c63247e1f47db19d5ce0460030c497f067ca4cebf71ba98eeadabe20bace03610d3e8482611201565b50600481016107198382611201565b806001600160a01b03163b5f03610d8257604051634c9c8ce360e01b81526001600160a01b0382166004820152602401610694565b5f5160206112f35f395f51905f5280546001600160a01b0319166001600160a01b0392909216919091179055565b60605f5f846001600160a01b031684604051610dcc91906112bc565b5f60405180830381855af49150503d805f8114610e04576040519150601f19603f3d011682016040523d82523d5f602084013e610e09565b606091505b5091509150610e19858383610e5a565b95945050505050565b34156104cb5760405163b398979f60e01b815260040160405180910390fd5b5f610e4a610a2c565b54600160401b900460ff16919050565b606082610e6f57610e6a82610eb6565b610467565b8151158015610e8657506001600160a01b0384163b155b15610eaf57604051639996b31560e01b81526001600160a01b0385166004820152602401610694565b5080610467565b805115610ec557805160208201fd5b60405163d6bda27560e01b815260040160405180910390fd5b602081525f82518060208401528060208501604085015e5f604082850101526040601f19601f83011684010191505092915050565b80356001600160a01b0381168114610f29575f5ffd5b919050565b5f5f60408385031215610f3f575f5ffd5b610f4883610f13565b946020939093013593505050565b5f5f5f60608486031215610f68575f5ffd5b610f7184610f13565b9250610f7f60208501610f13565b929592945050506040919091013590565b634e487b7160e01b5f52604160045260245ffd5b5f5f67ffffffffffffffff841115610fbe57610fbe610f90565b50604051601f19601f85018116603f0116810181811067ffffffffffffffff82111715610fed57610fed610f90565b604052838152905080828401851015611004575f5ffd5b838360208301375f60208583010152509392505050565b5f5f6040838503121561102c575f5ffd5b61103583610f13565b9150602083013567ffffffffffffffff811115611050575f5ffd5b8301601f81018513611060575f5ffd5b61106f85823560208401610fa4565b9150509250929050565b5f60208284031215611089575f5ffd5b61046782610f13565b5f82601f8301126110a1575f5ffd5b61046783833560208501610fa4565b5f5f5f606084860312156110c2575f5ffd5b833567ffffffffffffffff8111156110d8575f5ffd5b6110e486828701611092565b935050602084013567ffffffffffffffff811115611100575f5ffd5b61110c86828701611092565b93969395505050506040919091013590565b5f5f6040838503121561112f575f5ffd5b61113883610f13565b915061114660208401610f13565b90509250929050565b600181811c9082168061116357607f821691505b60208210810361118157634e487b7160e01b5f52602260045260245ffd5b50919050565b5f60208284031215611197575f5ffd5b5051919050565b8082018082111561044357634e487b7160e01b5f52601160045260245ffd5b601f8211156106b657805f5260205f20601f840160051c810160208510156111e25750805b601f840160051c820191505b81811015610b43575f81556001016111ee565b815167ffffffffffffffff81111561121b5761121b610f90565b61122f81611229845461114f565b846111bd565b6020601f821160018114611261575f831561124a5750848201515b5f19600385901b1c1916600184901b178455610b43565b5f84815260208120601f198516915b828110156112905787850151825560209485019460019092019101611270565b50848210156112ad57868401515f19600387901b60f8161c191681555b50505050600190811b01905550565b5f82518060208501845e5f92019182525091905056fe52c63247e1f47db19d5ce0460030c497f067ca4cebf71ba98eeadabe20bace00360894a13ba1a3210667c828492db98dca3e2076cc3735a920a3ca505d382bbca2646970667358221220e91c4df3bd7d0d7c978666d1b08fbd46d3da97d89d2e87074ea7124e19ff03a364736f6c634300081c0033360894a13ba1a3210667c828492db98dca3e2076cc3735a920a3ca505d382bbca26469706673582212207757bee82dba1707d41c9cbbb5213edc3f7b634c301bbe52eae92f35a564a20a64736f6c634300081c0033",
  "linkReferences": {},
  "deployedLinkReferences": {},
  "immutableReferences": {
    "482": [
      {
        "length": 32,
        "start": 1231
      },
      {
        "length": 32,
        "start": 1272
      },
      {
        "length": 32,
        "start": 1596
      }
    ]
  },
  "inputSourceName": "project/contracts/TokenFactoryV2.sol",
  "buildInfoId": "solc-0_8_28-252664f326db10b1fbc2d3be3c564eca54691bc9"
}