{
  "_format": "hh3-artifact-1",
  "contractName": "Anderson",
  "sourceName": "contracts/Anderson.sol",
  "abi": [
    {
      "inputs": [
        {
          "internalType": "address",
          "name": "initialOwner",
          "type": "address"
        }
      ],
      "stateMutability": "nonpayable",
      "type": "constructor"
    },
    {
      "inputs": [],
      "name": "CheckpointUnorderedInsertion",
      "type": "error"
    },
    {
      "inputs": [],
      "name": "ECDSAInvalidSignature",
      "type": "error"
    },
    {
      "inputs": [
        {
          "internalType": "uint256",
          "name": "length",
          "type": "uint256"
        }
      ],
      "name": "ECDSAInvalidSignatureLength",
      "type": "error"
    },
    {
      "inputs": [
        {
          "internalType": "bytes32",
          "name": "s",
          "type": "bytes32"
        }
      ],
      "name": "ECDSAInvalidSignatureS",
      "type": "error"
    },
    {
      "inputs": [
        {
          "internalType": "address",
          "name": "spender",
          "type": "address"
        },
        {
          "internalType": "uint256",
          "name": "value",
          "type": "uint256"
        }
      ],
      "name": "ERC1363ApproveFailed",
      "type": "error"
    },
    {
      "inputs": [
        {
          "internalType": "address",
          "name": "receiver",
          "type": "address"
        }
      ],
      "name": "ERC1363InvalidReceiver",
      "type": "error"
    },
    {
      "inputs": [
        {
          "internalType": "address",
          "name": "spender",
          "type": "address"
        }
      ],
      "name": "ERC1363InvalidSpender",
      "type": "error"
    },
    {
      "inputs": [
        {
          "internalType": "address",
          "name": "receiver",
          "type": "address"
        },
        {
          "internalType": "uint256",
          "name": "value",
          "type": "uint256"
        }
      ],
      "name": "ERC1363TransferFailed",
      "type": "error"
    },
    {
      "inputs": [
        {
          "internalType": "address",
          "name": "sender",
          "type": "address"
        },
        {
          "internalType": "address",
          "name": "receiver",
          "type": "address"
        },
        {
          "internalType": "uint256",
          "name": "value",
          "type": "uint256"
        }
      ],
      "name": "ERC1363TransferFromFailed",
      "type": "error"
    },
    {
      "inputs": [
        {
          "internalType": "uint256",
          "name": "increasedSupply",
          "type": "uint256"
        },
        {
          "internalType": "uint256",
          "name": "cap",
          "type": "uint256"
        }
      ],
      "name": "ERC20ExceededSafeSupply",
      "type": "error"
    },
    {
      "inputs": [
        {
          "internalType": "address",
          "name": "spender",
          "type": "address"
        },
        {
          "internalType": "uint256",
          "name": "allowance",
          "type": "uint256"
        },
        {
          "internalType": "uint256",
          "name": "needed",
          "type": "uint256"
        }
      ],
      "name": "ERC20InsufficientAllowance",
      "type": "error"
    },
    {
      "inputs": [
        {
          "internalType": "address",
          "name": "sender",
          "type": "address"
        },
        {
          "internalType": "uint256",
          "name": "balance",
          "type": "uint256"
        },
        {
          "internalType": "uint256",
          "name": "needed",
          "type": "uint256"
        }
      ],
      "name": "ERC20InsufficientBalance",
      "type": "error"
    },
    {
      "inputs": [
        {
          "internalType": "address",
          "name": "approver",
          "type": "address"
        }
      ],
      "name": "ERC20InvalidApprover",
      "type": "error"
    },
    {
      "inputs": [
        {
          "internalType": "address",
          "name": "receiver",
          "type": "address"
        }
      ],
      "name": "ERC20InvalidReceiver",
      "type": "error"
    },
    {
      "inputs": [
        {
          "internalType": "address",
          "name": "sender",
          "type": "address"
        }
      ],
      "name": "ERC20InvalidSender",
      "type": "error"
    },
    {
      "inputs": [
        {
          "internalType": "address",
          "name": "spender",
          "type": "address"
        }
      ],
      "name": "ERC20InvalidSpender",
      "type": "error"
    },
    {
      "inputs": [
        {
          "internalType": "uint256",
          "name": "deadline",
          "type": "uint256"
        }
      ],
      "name": "ERC2612ExpiredSignature",
      "type": "error"
    },
    {
      "inputs": [
        {
          "internalType": "address",
          "name": "signer",
          "type": "address"
        },
        {
          "internalType": "address",
          "name": "owner",
          "type": "address"
        }
      ],
      "name": "ERC2612InvalidSigner",
      "type": "error"
    },
    {
      "inputs": [
        {
          "internalType": "uint256",
          "name": "maxLoan",
          "type": "uint256"
        }
      ],
      "name": "ERC3156ExceededMaxLoan",
      "type": "error"
    },
    {
      "inputs": [
        {
          "internalType": "address",
          "name": "receiver",
          "type": "address"
        }
      ],
      "name": "ERC3156InvalidReceiver",
      "type": "error"
    },
    {
      "inputs": [
        {
          "internalType": "address",
          "name": "token",
          "type": "address"
        }
      ],
      "name": "ERC3156UnsupportedToken",
      "type": "error"
    },
    {
      "inputs": [
        {
          "internalType": "uint256",
          "name": "timepoint",
          "type": "uint256"
        },
        {
          "internalType": "uint48",
          "name": "clock",
          "type": "uint48"
        }
      ],
      "name": "ERC5805FutureLookup",
      "type": "error"
    },
    {
      "inputs": [],
      "name": "ERC6372InconsistentClock",
      "type": "error"
    },
    {
      "inputs": [],
      "name": "EnforcedPause",
      "type": "error"
    },
    {
      "inputs": [],
      "name": "ExpectedPause",
      "type": "error"
    },
    {
      "inputs": [
        {
          "internalType": "address",
          "name": "account",
          "type": "address"
        },
        {
          "internalType": "uint256",
          "name": "currentNonce",
          "type": "uint256"
        }
      ],
      "name": "InvalidAccountNonce",
      "type": "error"
    },
    {
      "inputs": [],
      "name": "InvalidShortString",
      "type": "error"
    },
    {
      "inputs": [
        {
          "internalType": "address",
          "name": "owner",
          "type": "address"
        }
      ],
      "name": "OwnableInvalidOwner",
      "type": "error"
    },
    {
      "inputs": [
        {
          "internalType": "address",
          "name": "account",
          "type": "address"
        }
      ],
      "name": "OwnableUnauthorizedAccount",
      "type": "error"
    },
    {
      "inputs": [
        {
          "internalType": "uint8",
          "name": "bits",
          "type": "uint8"
        },
        {
          "internalType": "uint256",
          "name": "value",
          "type": "uint256"
        }
      ],
      "name": "SafeCastOverflowedUintDowncast",
      "type": "error"
    },
    {
      "inputs": [
        {
          "internalType": "string",
          "name": "str",
          "type": "string"
        }
      ],
      "name": "StringTooLong",
      "type": "error"
    },
    {
      "inputs": [
        {
          "internalType": "uint256",
          "name": "expiry",
          "type": "uint256"
        }
      ],
      "name": "VotesExpiredSignature",
      "type": "error"
    },
    {
      "anonymous": false,
      "inputs": [
        {
          "indexed": true,
          "internalType": "address",
          "name": "owner",
          "type": "address"
        },
        {
          "indexed": true,
          "internalType": "address",
          "name": "spender",
          "type": "address"
        },
        {
          "indexed": false,
          "internalType": "uint256",
          "name": "value",
          "type": "uint256"
        }
      ],
      "name": "Approval",
      "type": "event"
    },
    {
      "anonymous": false,
      "inputs": [
        {
          "indexed": true,
          "internalType": "address",
          "name": "delegator",
          "type": "address"
        },
        {
          "indexed": true,
          "internalType": "address",
          "name": "fromDelegate",
          "type": "address"
        },
        {
          "indexed": true,
          "internalType": "address",
          "name": "toDelegate",
          "type": "address"
        }
      ],
      "name": "DelegateChanged",
      "type": "event"
    },
    {
      "anonymous": false,
      "inputs": [
        {
          "indexed": true,
          "internalType": "address",
          "name": "delegate",
          "type": "address"
        },
        {
          "indexed": false,
          "internalType": "uint256",
          "name": "previousVotes",
          "type": "uint256"
        },
        {
          "indexed": false,
          "internalType": "uint256",
          "name": "newVotes",
          "type": "uint256"
        }
      ],
      "name": "DelegateVotesChanged",
      "type": "event"
    },
    {
      "anonymous": false,
      "inputs": [],
      "name": "EIP712DomainChanged",
      "type": "event"
    },
    {
      "anonymous": false,
      "inputs": [
        {
          "indexed": true,
          "internalType": "address",
          "name": "previousOwner",
          "type": "address"
        },
        {
          "indexed": true,
          "internalType": "address",
          "name": "newOwner",
          "type": "address"
        }
      ],
      "name": "OwnershipTransferred",
      "type": "event"
    },
    {
      "anonymous": false,
      "inputs": [
        {
          "indexed": false,
          "internalType": "address",
          "name": "account",
          "type": "address"
        }
      ],
      "name": "Paused",
      "type": "event"
    },
    {
      "anonymous": false,
      "inputs": [
        {
          "indexed": true,
          "internalType": "address",
          "name": "from",
          "type": "address"
        },
        {
          "indexed": true,
          "internalType": "address",
          "name": "to",
          "type": "address"
        },
        {
          "indexed": false,
          "internalType": "uint256",
          "name": "value",
          "type": "uint256"
        }
      ],
      "name": "Transfer",
      "type": "event"
    },
    {
      "anonymous": false,
      "inputs": [
        {
          "indexed": false,
          "internalType": "address",
          "name": "account",
          "type": "address"
        }
      ],
      "name": "Unpaused",
      "type": "event"
    },
    {
      "inputs": [],
      "name": "CLOCK_MODE",
      "outputs": [
        {
          "internalType": "string",
          "name": "",
          "type": "string"
        }
      ],
      "stateMutability": "view",
      "type": "function"
    },
    {
      "inputs": [],
      "name": "DOMAIN_SEPARATOR",
      "outputs": [
        {
          "internalType": "bytes32",
          "name": "",
          "type": "bytes32"
        }
      ],
      "stateMutability": "view",
      "type": "function"
    },
    {
      "inputs": [
        {
          "internalType": "address",
          "name": "owner",
          "type": "address"
        },
        {
          "internalType": "address",
          "name": "spender",
          "type": "address"
        }
      ],
      "name": "allowance",
      "outputs": [
        {
          "internalType": "uint256",
          "name": "",
          "type": "uint256"
        }
      ],
      "stateMutability": "view",
      "type": "function"
    },
    {
      "inputs": [
        {
          "internalType": "address",
          "name": "spender",
          "type": "address"
        },
        {
          "internalType": "uint256",
          "name": "value",
          "type": "uint256"
        }
      ],
      "name": "approve",
      "outputs": [
        {
          "internalType": "bool",
          "name": "",
          "type": "bool"
        }
      ],
      "stateMutability": "nonpayable",
      "type": "function"
    },
    {
      "inputs": [
        {
          "internalType": "address",
          "name": "spender",
          "type": "address"
        },
        {
          "internalType": "uint256",
          "name": "value",
          "type": "uint256"
        }
      ],
      "name": "approveAndCall",
      "outputs": [
        {
          "internalType": "bool",
          "name": "",
          "type": "bool"
        }
      ],
      "stateMutability": "nonpayable",
      "type": "function"
    },
    {
      "inputs": [
        {
          "internalType": "address",
          "name": "spender",
          "type": "address"
        },
        {
          "internalType": "uint256",
          "name": "value",
          "type": "uint256"
        },
        {
          "internalType": "bytes",
          "name": "data",
          "type": "bytes"
        }
      ],
      "name": "approveAndCall",
      "outputs": [
        {
          "internalType": "bool",
          "name": "",
          "type": "bool"
        }
      ],
      "stateMutability": "nonpayable",
      "type": "function"
    },
    {
      "inputs": [
        {
          "internalType": "address",
          "name": "account",
          "type": "address"
        }
      ],
      "name": "balanceOf",
      "outputs": [
        {
          "internalType": "uint256",
          "name": "",
          "type": "uint256"
        }
      ],
      "stateMutability": "view",
      "type": "function"
    },
    {
      "inputs": [
        {
          "internalType": "uint256",
          "name": "value",
          "type": "uint256"
        }
      ],
      "name": "burn",
      "outputs": [],
      "stateMutability": "nonpayable",
      "type": "function"
    },
    {
      "inputs": [
        {
          "internalType": "address",
          "name": "account",
          "type": "address"
        },
        {
          "internalType": "uint256",
          "name": "value",
          "type": "uint256"
        }
      ],
      "name": "burnFrom",
      "outputs": [],
      "stateMutability": "nonpayable",
      "type": "function"
    },
    {
      "inputs": [
        {
          "internalType": "address",
          "name": "account",
          "type": "address"
        },
        {
          "internalType": "uint32",
          "name": "pos",
          "type": "uint32"
        }
      ],
      "name": "checkpoints",
      "outputs": [
        {
          "components": [
            {
              "internalType": "uint48",
              "name": "_key",
              "type": "uint48"
            },
            {
              "internalType": "uint208",
              "name": "_value",
              "type": "uint208"
            }
          ],
          "internalType": "struct Checkpoints.Checkpoint208",
          "name": "",
          "type": "tuple"
        }
      ],
      "stateMutability": "view",
      "type": "function"
    },
    {
      "inputs": [],
      "name": "clock",
      "outputs": [
        {
          "internalType": "uint48",
          "name": "",
          "type": "uint48"
        }
      ],
      "stateMutability": "view",
      "type": "function"
    },
    {
      "inputs": [],
      "name": "decimals",
      "outputs": [
        {
          "internalType": "uint8",
          "name": "",
          "type": "uint8"
        }
      ],
      "stateMutability": "view",
      "type": "function"
    },
    {
      "inputs": [
        {
          "internalType": "address",
          "name": "delegatee",
          "type": "address"
        }
      ],
      "name": "delegate",
      "outputs": [],
      "stateMutability": "nonpayable",
      "type": "function"
    },
    {
      "inputs": [
        {
          "internalType": "address",
          "name": "delegatee",
          "type": "address"
        },
        {
          "internalType": "uint256",
          "name": "nonce",
          "type": "uint256"
        },
        {
          "internalType": "uint256",
          "name": "expiry",
          "type": "uint256"
        },
        {
          "internalType": "uint8",
          "name": "v",
          "type": "uint8"
        },
        {
          "internalType": "bytes32",
          "name": "r",
          "type": "bytes32"
        },
        {
          "internalType": "bytes32",
          "name": "s",
          "type": "bytes32"
        }
      ],
      "name": "delegateBySig",
      "outputs": [],
      "stateMutability": "nonpayable",
      "type": "function"
    },
    {
      "inputs": [
        {
          "internalType": "address",
          "name": "account",
          "type": "address"
        }
      ],
      "name": "delegates",
      "outputs": [
        {
          "internalType": "address",
          "name": "",
          "type": "address"
        }
      ],
      "stateMutability": "view",
      "type": "function"
    },
    {
      "inputs": [],
      "name": "eip712Domain",
      "outputs": [
        {
          "internalType": "bytes1",
          "name": "fields",
          "type": "bytes1"
        },
        {
          "internalType": "string",
          "name": "name",
          "type": "string"
        },
        {
          "internalType": "string",
          "name": "version",
          "type": "string"
        },
        {
          "internalType": "uint256",
          "name": "chainId",
          "type": "uint256"
        },
        {
          "internalType": "address",
          "name": "verifyingContract",
          "type": "address"
        },
        {
          "internalType": "bytes32",
          "name": "salt",
          "type": "bytes32"
        },
        {
          "internalType": "uint256[]",
          "name": "extensions",
          "type": "uint256[]"
        }
      ],
      "stateMutability": "view",
      "type": "function"
    },
    {
      "inputs": [
        {
          "internalType": "address",
          "name": "token",
          "type": "address"
        },
        {
          "internalType": "uint256",
          "name": "value",
          "type": "uint256"
        }
      ],
      "name": "flashFee",
      "outputs": [
        {
          "internalType": "uint256",
          "name": "",
          "type": "uint256"
        }
      ],
      "stateMutability": "view",
      "type": "function"
    },
    {
      "inputs": [
        {
          "internalType": "contract IERC3156FlashBorrower",
          "name": "receiver",
          "type": "address"
        },
        {
          "internalType": "address",
          "name": "token",
          "type": "address"
        },
        {
          "internalType": "uint256",
          "name": "value",
          "type": "uint256"
        },
        {
          "internalType": "bytes",
          "name": "data",
          "type": "bytes"
        }
      ],
      "name": "flashLoan",
      "outputs": [
        {
          "internalType": "bool",
          "name": "",
          "type": "bool"
        }
      ],
      "stateMutability": "nonpayable",
      "type": "function"
    },
    {
      "inputs": [
        {
          "internalType": "uint256",
          "name": "timepoint",
          "type": "uint256"
        }
      ],
      "name": "getPastTotalSupply",
      "outputs": [
        {
          "internalType": "uint256",
          "name": "",
          "type": "uint256"
        }
      ],
      "stateMutability": "view",
      "type": "function"
    },
    {
      "inputs": [
        {
          "internalType": "address",
          "name": "account",
          "type": "address"
        },
        {
          "internalType": "uint256",
          "name": "timepoint",
          "type": "uint256"
        }
      ],
      "name": "getPastVotes",
      "outputs": [
        {
          "internalType": "uint256",
          "name": "",
          "type": "uint256"
        }
      ],
      "stateMutability": "view",
      "type": "function"
    },
    {
      "inputs": [
        {
          "internalType": "address",
          "name": "account",
          "type": "address"
        }
      ],
      "name": "getVotes",
      "outputs": [
        {
          "internalType": "uint256",
          "name": "",
          "type": "uint256"
        }
      ],
      "stateMutability": "view",
      "type": "function"
    },
    {
      "inputs": [
        {
          "internalType": "address",
          "name": "token",
          "type": "address"
        }
      ],
      "name": "maxFlashLoan",
      "outputs": [
        {
          "internalType": "uint256",
          "name": "",
          "type": "uint256"
        }
      ],
      "stateMutability": "view",
      "type": "function"
    },
    {
      "inputs": [
        {
          "internalType": "address",
          "name": "to",
          "type": "address"
        },
        {
          "internalType": "uint256",
          "name": "amount",
          "type": "uint256"
        }
      ],
      "name": "mint",
      "outputs": [],
      "stateMutability": "nonpayable",
      "type": "function"
    },
    {
      "inputs": [],
      "name": "name",
      "outputs": [
        {
          "internalType": "string",
          "name": "",
          "type": "string"
        }
      ],
      "stateMutability": "view",
      "type": "function"
    },
    {
      "inputs": [
        {
          "internalType": "address",
          "name": "owner",
          "type": "address"
        }
      ],
      "name": "nonces",
      "outputs": [
        {
          "internalType": "uint256",
          "name": "",
          "type": "uint256"
        }
      ],
      "stateMutability": "view",
      "type": "function"
    },
    {
      "inputs": [
        {
          "internalType": "address",
          "name": "account",
          "type": "address"
        }
      ],
      "name": "numCheckpoints",
      "outputs": [
        {
          "internalType": "uint32",
          "name": "",
          "type": "uint32"
        }
      ],
      "stateMutability": "view",
      "type": "function"
    },
    {
      "inputs": [],
      "name": "owner",
      "outputs": [
        {
          "internalType": "address",
          "name": "",
          "type": "address"
        }
      ],
      "stateMutability": "view",
      "type": "function"
    },
    {
      "inputs": [],
      "name": "pause",
      "outputs": [],
      "stateMutability": "nonpayable",
      "type": "function"
    },
    {
      "inputs": [],
      "name": "paused",
      "outputs": [
        {
          "internalType": "bool",
          "name": "",
          "type": "bool"
        }
      ],
      "stateMutability": "view",
      "type": "function"
    },
    {
      "inputs": [
        {
          "internalType": "address",
          "name": "owner",
          "type": "address"
        },
        {
          "internalType": "address",
          "name": "spender",
          "type": "address"
        },
        {
          "internalType": "uint256",
          "name": "value",
          "type": "uint256"
        },
        {
          "internalType": "uint256",
          "name": "deadline",
          "type": "uint256"
        },
        {
          "internalType": "uint8",
          "name": "v",
          "type": "uint8"
        },
        {
          "internalType": "bytes32",
          "name": "r",
          "type": "bytes32"
        },
        {
          "internalType": "bytes32",
          "name": "s",
          "type": "bytes32"
        }
      ],
      "name": "permit",
      "outputs": [],
      "stateMutability": "nonpayable",
      "type": "function"
    },
    {
      "inputs": [],
      "name": "renounceOwnership",
      "outputs": [],
      "stateMutability": "nonpayable",
      "type": "function"
    },
    {
      "inputs": [
        {
          "internalType": "bytes4",
          "name": "interfaceId",
          "type": "bytes4"
        }
      ],
      "name": "supportsInterface",
      "outputs": [
        {
          "internalType": "bool",
          "name": "",
          "type": "bool"
        }
      ],
      "stateMutability": "view",
      "type": "function"
    },
    {
      "inputs": [],
      "name": "symbol",
      "outputs": [
        {
          "internalType": "string",
          "name": "",
          "type": "string"
        }
      ],
      "stateMutability": "view",
      "type": "function"
    },
    {
      "inputs": [],
      "name": "totalSupply",
      "outputs": [
        {
          "internalType": "uint256",
          "name": "",
          "type": "uint256"
        }
      ],
      "stateMutability": "view",
      "type": "function"
    },
    {
      "inputs": [
        {
          "internalType": "address",
          "name": "to",
          "type": "address"
        },
        {
          "internalType": "uint256",
          "name": "value",
          "type": "uint256"
        }
      ],
      "name": "transfer",
      "outputs": [
        {
          "internalType": "bool",
          "name": "",
          "type": "bool"
        }
      ],
      "stateMutability": "nonpayable",
      "type": "function"
    },
    {
      "inputs": [
        {
          "internalType": "address",
          "name": "to",
          "type": "address"
        },
        {
          "internalType": "uint256",
          "name": "value",
          "type": "uint256"
        }
      ],
      "name": "transferAndCall",
      "outputs": [
        {
          "internalType": "bool",
          "name": "",
          "type": "bool"
        }
      ],
      "stateMutability": "nonpayable",
      "type": "function"
    },
    {
      "inputs": [
        {
          "internalType": "address",
          "name": "to",
          "type": "address"
        },
        {
          "internalType": "uint256",
          "name": "value",
          "type": "uint256"
        },
        {
          "internalType": "bytes",
          "name": "data",
          "type": "bytes"
        }
      ],
      "name": "transferAndCall",
      "outputs": [
        {
          "internalType": "bool",
          "name": "",
          "type": "bool"
        }
      ],
      "stateMutability": "nonpayable",
      "type": "function"
    },
    {
      "inputs": [
        {
          "internalType": "address",
          "name": "from",
          "type": "address"
        },
        {
          "internalType": "address",
          "name": "to",
          "type": "address"
        },
        {
          "internalType": "uint256",
          "name": "value",
          "type": "uint256"
        }
      ],
      "name": "transferFrom",
      "outputs": [
        {
          "internalType": "bool",
          "name": "",
          "type": "bool"
        }
      ],
      "stateMutability": "nonpayable",
      "type": "function"
    },
    {
      "inputs": [
        {
          "internalType": "address",
          "name": "from",
          "type": "address"
        },
        {
          "internalType": "address",
          "name": "to",
          "type": "address"
        },
        {
          "internalType": "uint256",
          "name": "value",
          "type": "uint256"
        },
        {
          "internalType": "bytes",
          "name": "data",
          "type": "bytes"
        }
      ],
      "name": "transferFromAndCall",
      "outputs": [
        {
          "internalType": "bool",
          "name": "",
          "type": "bool"
        }
      ],
      "stateMutability": "nonpayable",
      "type": "function"
    },
    {
      "inputs": [
        {
          "internalType": "address",
          "name": "from",
          "type": "address"
        },
        {
          "internalType": "address",
          "name": "to",
          "type": "address"
        },
        {
          "internalType": "uint256",
          "name": "value",
          "type": "uint256"
        }
      ],
      "name": "transferFromAndCall",
      "outputs": [
        {
          "internalType": "bool",
          "name": "",
          "type": "bool"
        }
      ],
      "stateMutability": "nonpayable",
      "type": "function"
    },
    {
      "inputs": [
        {
          "internalType": "address",
          "name": "newOwner",
          "type": "address"
        }
      ],
      "name": "transferOwnership",
      "outputs": [],
      "stateMutability": "nonpayable",
      "type": "function"
    },
    {
      "inputs": [],
      "name": "unpause",
      "outputs": [],
      "stateMutability": "nonpayable",
      "type": "function"
    }
  ],
  "bytecode": "0x610160604052348015610010575f5ffd5b50604051612f2a380380612f2a83398101604081905261002f9161027f565b6040518060400160405280600881526020016720b73232b939b7b760c11b81525080604051806040016040528060018152602001603160f81b815250836040518060400160405280600881526020016720b73232b939b7b760c11b8152506040518060400160405280600381526020016241445360e81b81525081600390816100b89190610344565b5060046100c58282610344565b5050506001600160a01b0381166100f657604051631e4fbdf760e01b81525f60048201526024015b60405180910390fd5b6100ff816101b7565b5061010b826006610210565b6101205261011a816007610210565b61014052815160208084019190912060e052815190820120610100524660a0526101a660e05161010051604080517f8b73c3c69bb8fe3d512ecc4cf759cc79239f7b179b0ffacaa9a75d522b39400f60208201529081019290925260608201524660808201523060a08201525f9060c00160405160208183030381529060405280519060200120905090565b60805250503060c052506104569050565b600580546001600160a01b03838116610100818102610100600160a81b031985161790945560405193909204169182907f8be0079c531659141344cd1fd0a4f28419497f9722a3daafe3b4186f6b6457e0905f90a35050565b5f60208351101561022b5761022483610242565b905061023c565b816102368482610344565b5060ff90505b92915050565b5f5f829050601f8151111561026c578260405163305a27a960e01b81526004016100ed91906103fe565b805161027782610433565b179392505050565b5f6020828403121561028f575f5ffd5b81516001600160a01b03811681146102a5575f5ffd5b9392505050565b634e487b7160e01b5f52604160045260245ffd5b600181811c908216806102d457607f821691505b6020821081036102f257634e487b7160e01b5f52602260045260245ffd5b50919050565b601f82111561033f57805f5260205f20601f840160051c8101602085101561031d5750805b601f840160051c820191505b8181101561033c575f8155600101610329565b50505b505050565b81516001600160401b0381111561035d5761035d6102ac565b6103718161036b84546102c0565b846102f8565b6020601f8211600181146103a3575f831561038c5750848201515b5f19600385901b1c1916600184901b17845561033c565b5f84815260208120601f198516915b828110156103d257878501518255602094850194600190920191016103b2565b50848210156103ef57868401515f19600387901b60f8161c191681555b50505050600190811b01905550565b602081525f82518060208401528060208501604085015e5f604082850101526040601f19601f83011684010191505092915050565b805160208083015191908110156102f2575f1960209190910360031b1b16919050565b60805160a05160c05160e051610100516101205161014051612a836104a75f395f61152201525f6114f501525f61101701525f610fef01525f610f4a01525f610f7401525f610f9e0152612a835ff3fe608060405234801561000f575f5ffd5b5060043610610255575f3560e01c806370a08231116101405780639ab24eb0116100bf578063d505accf11610084578063d505accf14610540578063d8fbe99414610553578063d9d98ce414610566578063dd62ed3e14610579578063f1127ed8146105b1578063f2fde38b146105f0575f5ffd5b80639ab24eb0146104e1578063a9059cbb146104f4578063c1d34b8914610507578063c3cda5201461051a578063cae9ca511461052d575f5ffd5b806384b0196e1161010557806384b0196e146104765780638da5cb5b146104915780638e539e8c146104a757806391ddadf4146104ba57806395d89b41146104d9575f5ffd5b806370a0823114610418578063715018a61461044057806379cc6790146104485780637ecebe001461045b5780638456cb591461046e575f5ffd5b80633f4ba83a116101d7578063587cde1e1161019c578063587cde1e146103695780635c19a95c146103ac5780635c975abb146103bf5780635cffe9de146103ca578063613255ab146103dd5780636fcfff45146103f0575f5ffd5b80633f4ba83a1461031e5780634000aea01461032857806340c10f191461033b57806342966c681461034e5780634bf5d7e914610361575f5ffd5b806323b872dd1161021d57806323b872dd146102ce578063313ce567146102e15780633177029f146102f05780633644e515146103035780633a46b1a81461030b575f5ffd5b806301ffc9a71461025957806306fdde0314610281578063095ea7b3146102965780631296ee62146102a957806318160ddd146102bc575b5f5ffd5b61026c610267366004612379565b610603565b60405190151581526020015b60405180910390f35b610289610639565b60405161027891906123c2565b61026c6102a43660046123e8565b6106c9565b61026c6102b73660046123e8565b6106e0565b6002545b604051908152602001610278565b61026c6102dc366004612412565b610701565b60405160128152602001610278565b61026c6102fe3660046123e8565b610724565b6102c061073e565b6102c06103193660046123e8565b61074c565b610326610786565b005b61026c6103363660046124ef565b610798565b6103266103493660046123e8565b6107e4565b61032661035c366004612544565b6107fa565b610289610807565b61039461037736600461255b565b6001600160a01b039081165f908152600960205260409020541690565b6040516001600160a01b039091168152602001610278565b6103266103ba36600461255b565b61087f565b60055460ff1661026c565b61026c6103d8366004612576565b61088a565b6102c06103eb36600461255b565b6109fc565b6104036103fe36600461255b565b610a21565b60405163ffffffff9091168152602001610278565b6102c061042636600461255b565b6001600160a01b03165f9081526020819052604090205490565b610326610a2b565b6103266104563660046123e8565b610a3c565b6102c061046936600461255b565b610a51565b610326610a5b565b61047e610a6b565b604051610278979695949392919061260f565b60055461010090046001600160a01b0316610394565b6102c06104b5366004612544565b610aad565b6104c2610ad1565b60405165ffffffffffff9091168152602001610278565b610289610ada565b6102c06104ef36600461255b565b610ae9565b61026c6105023660046123e8565b610b09565b61026c6105153660046126a5565b610b16565b610326610528366004612722565b610b66565b61026c61053b3660046124ef565b610c22565b61032661054e366004612778565b610c68565b61026c610561366004612412565b610d9e565b6102c06105743660046123e8565b610dc1565b6102c06105873660046127e2565b6001600160a01b039182165f90815260016020908152604080832093909416825291909152205490565b6105c46105bf366004612819565b610dfc565b60408051825165ffffffffffff1681526020928301516001600160d01b03169281019290925201610278565b6103266105fe36600461255b565b610e19565b5f6001600160e01b0319821663b0202a1160e01b148061063357506301ffc9a760e01b6001600160e01b03198316145b92915050565b6060600380546106489061284d565b80601f01602080910402602001604051908101604052809291908181526020018280546106749061284d565b80156106bf5780601f10610696576101008083540402835291602001916106bf565b820191905f5260205f20905b8154815290600101906020018083116106a257829003601f168201915b5050505050905090565b5f336106d6818585610e53565b5060019392505050565b5f6106fa838360405180602001604052805f815250610798565b9392505050565b5f3361070e858285610e65565b610719858585610ee1565b506001949350505050565b5f6106fa838360405180602001604052805f815250610c22565b5f610747610f3e565b905090565b5f61077661075983611067565b6001600160a01b0385165f908152600a60205260409020906110b5565b6001600160d01b03169392505050565b61078e611165565b610796611198565b565b5f6107a38484610b09565b6107d75760405163118d81d760e11b81526001600160a01b0385166004820152602481018490526044015b60405180910390fd5b6106d633338686866111ea565b6107ec611165565b6107f68282611337565b5050565b610804338261136b565b50565b606061081161139f565b65ffffffffffff16610821610ad1565b65ffffffffffff1614610847576040516301bfc1c560e61b815260040160405180910390fd5b5060408051808201909152601d81527f6d6f64653d626c6f636b6e756d6265722666726f6d3d64656661756c74000000602082015290565b336107f681836113a9565b5f5f610895866109fc565b9050808511156108bb5760405163fd9a760960e01b8152600481018290526024016107ce565b5f6108c68787610dc1565b90506108d28887611337565b6040516323e30c8b60e01b81527f439148f0bbc682ca079e46d6e2c2f0c1e3b820f1a291b069d8882abf8cf18dd9906001600160a01b038a16906323e30c8b9061092a9033908c908c9088908d908d90600401612885565b6020604051808303815f875af1158015610946573d5f5f3e3d5ffd5b505050506040513d601f19601f8201168201806040525081019061096a91906128dd565b146109925760405162678c5b60e81b81526001600160a01b03891660048201526024016107ce565b5f6109a789306109a2858b612908565b610e65565b8115806109bb57506001600160a01b038116155b156109d8576109d3896109ce848a612908565b61136b565b6109ed565b6109e2898861136b565b6109ed898284610ee1565b50600198975050505050505050565b5f6001600160a01b0382163014610a13575f610633565b600254610633905f1961291b565b5f6106338261141a565b610a33611165565b6107965f61143b565b610a47823383610e65565b6107f6828261136b565b5f61063382611494565b610a63611165565b6107966114b1565b5f6060805f5f5f6060610a7c6114ee565b610a8461151b565b604080515f80825260208201909252600f60f81b9b939a50919850469750309650945092509050565b5f610ac2610aba83611067565b600b906110b5565b6001600160d01b031692915050565b5f61074761139f565b6060600480546106489061284d565b6001600160a01b0381165f908152600a60205260408120610ac290611548565b5f336106d6818585610ee1565b5f610b22858585610701565b610b5957604051635ab42af360e11b81526001600160a01b03808716600483015285166024820152604481018490526064016107ce565b61071933868686866111ea565b83421115610b8a57604051632341d78760e11b8152600481018590526024016107ce565b604080517fe48329057bfd03d55e49b547132e39cffd9c1820ad7b9d4c5307691425d15adf60208201526001600160a01b0388169181019190915260608101869052608081018590525f90610c0390610bfb9060a0016040516020818303038152906040528051906020012061157f565b8585856115ab565b9050610c0f81876115d7565b610c1981886113a9565b50505050505050565b5f610c2d84846106c9565b610c5c57604051631439557160e21b81526001600160a01b0385166004820152602481018490526044016107ce565b6106d633858585611629565b83421115610c8c5760405163313c898160e11b8152600481018590526024016107ce565b5f7f6e71edae12b1b97f4d1f60370fef10105fa2faae0126114a169c64845d6126c9888888610cd78c6001600160a01b03165f90815260086020526040902080546001810190915590565b6040805160208101969096526001600160a01b0394851690860152929091166060840152608083015260a082015260c0810186905260e0016040516020818303038152906040528051906020012090505f610d318261157f565b90505f610d40828787876115ab565b9050896001600160a01b0316816001600160a01b031614610d87576040516325c0072360e11b81526001600160a01b0380831660048301528b1660248201526044016107ce565b610d928a8a8a610e53565b50505050505050505050565b5f610db984848460405180602001604052805f815250610b16565b949350505050565b5f6001600160a01b0383163014610df657604051635ad3edc960e11b81526001600160a01b03841660048201526024016107ce565b5f6106fa565b604080518082019091525f80825260208201526106fa8383611763565b610e21611165565b6001600160a01b038116610e4a57604051631e4fbdf760e01b81525f60048201526024016107ce565b6108048161143b565b610e608383836001611797565b505050565b6001600160a01b038381165f908152600160209081526040808320938616835292905220545f19811015610edb5781811015610ecd57604051637dc7a0d960e11b81526001600160a01b038416600482015260248101829052604481018390526064016107ce565b610edb84848484035f611797565b50505050565b6001600160a01b038316610f0a57604051634b637e8f60e11b81525f60048201526024016107ce565b6001600160a01b038216610f335760405163ec442f0560e01b81525f60048201526024016107ce565b610e60838383611869565b5f306001600160a01b037f000000000000000000000000000000000000000000000000000000000000000016148015610f9657507f000000000000000000000000000000000000000000000000000000000000000046145b15610fc057507f000000000000000000000000000000000000000000000000000000000000000090565b610747604080517f8b73c3c69bb8fe3d512ecc4cf759cc79239f7b179b0ffacaa9a75d522b39400f60208201527f0000000000000000000000000000000000000000000000000000000000000000918101919091527f000000000000000000000000000000000000000000000000000000000000000060608201524660808201523060a08201525f9060c00160405160208183030381529060405280519060200120905090565b5f5f611071610ad1565b90508065ffffffffffff1683106110ac57604051637669fc0f60e11b81526004810184905265ffffffffffff821660248201526044016107ce565b6106fa83611874565b81545f9081816005811115611111575f6110ce846118aa565b6110d8908561291b565b5f8881526020902090915081015465ffffffffffff90811690871610156111015780915061110f565b61110c816001612908565b92505b505b5f61111e87878585611a02565b90508015611158576111428761113560018461291b565b5f91825260209091200190565b54600160301b90046001600160d01b031661115a565b5f5b979650505050505050565b6005546001600160a01b036101009091041633146107965760405163118cdaa760e01b81523360048201526024016107ce565b6111a0611a61565b6005805460ff191690557f5db9ee0a495bf2e6ff9c91a7834c1ba4fdd244a5e8aa4e537bd38aeae4b073aa335b6040516001600160a01b03909116815260200160405180910390a1565b826001600160a01b03163b5f0361121f576040516322a5b36760e21b81526001600160a01b03841660048201526024016107ce565b604051632229f29760e21b81526001600160a01b038416906388a7ca5c9061125190889088908790879060040161292e565b6020604051808303815f875af192505050801561128b575060408051601f3d908101601f191682019092526112889181019061296a565b60015b6112f2573d8080156112b8576040519150601f19603f3d011682016040523d82523d5f602084013e6112bd565b606091505b5080515f036112ea576040516322a5b36760e21b81526001600160a01b03851660048201526024016107ce565b805160208201fd5b6001600160e01b03198116632229f29760e21b1461132e576040516322a5b36760e21b81526001600160a01b03851660048201526024016107ce565b505b5050505050565b6001600160a01b0382166113605760405163ec442f0560e01b81525f60048201526024016107ce565b6107f65f8383611869565b6001600160a01b03821661139457604051634b637e8f60e11b81525f60048201526024016107ce565b6107f6825f83611869565b5f61074743611874565b6001600160a01b038281165f8181526009602052604080822080548686166001600160a01b0319821681179092559151919094169392849290917f3134e8a2e6d97e929a7e54011ea5485d7d196dd5f0ba4d4ef95803e8e3fc257f9190a4610e60818361141586611a84565b611aa1565b6001600160a01b0381165f908152600a602052604081205461063390611c0a565b600580546001600160a01b03838116610100818102610100600160a81b031985161790945560405193909204169182907f8be0079c531659141344cd1fd0a4f28419497f9722a3daafe3b4186f6b6457e0905f90a35050565b6001600160a01b0381165f90815260086020526040812054610633565b6114b9611c3a565b6005805460ff191660011790557f62e78cea01bee320cd4e420270b5ea74000d11b0c9f74754ebdbfc544b05a2586111cd3390565b60606107477f00000000000000000000000000000000000000000000000000000000000000006006611c5e565b60606107477f00000000000000000000000000000000000000000000000000000000000000006007611c5e565b80545f908015611577576115618361113560018461291b565b54600160301b90046001600160d01b03166106fa565b5f9392505050565b5f61063361158b610f3e565b8360405161190160f01b8152600281019290925260228201526042902090565b5f5f5f5f6115bb88888888611d07565b9250925092506115cb8282611dcf565b50909695505050505050565b6001600160a01b0382165f908152600860205260409020805460018101909155818114610e60576040516301d4b62360e61b81526001600160a01b0384166004820152602481018290526044016107ce565b826001600160a01b03163b5f0361165e5760405163deb6d3ed60e01b81526001600160a01b03841660048201526024016107ce565b6040516307b04a2d60e41b81526001600160a01b03841690637b04a2d09061168e90879086908690600401612985565b6020604051808303815f875af19250505080156116c8575060408051601f3d908101601f191682019092526116c59181019061296a565b60015b611727573d8080156116f5576040519150601f19603f3d011682016040523d82523d5f602084013e6116fa565b606091505b5080515f036112ea5760405163deb6d3ed60e01b81526001600160a01b03851660048201526024016107ce565b6001600160e01b031981166307b04a2d60e41b146113305760405163deb6d3ed60e01b81526001600160a01b03851660048201526024016107ce565b604080518082019091525f80825260208201526001600160a01b0383165f908152600a602052604090206106fa9083611e87565b6001600160a01b0384166117c05760405163e602df0560e01b81525f60048201526024016107ce565b6001600160a01b0383166117e957604051634a1406b160e11b81525f60048201526024016107ce565b6001600160a01b038085165f9081526001602090815260408083209387168352929052208290558015610edb57826001600160a01b0316846001600160a01b03167f8c5be1e5ebec7d5bd14f71427d1e84f3dd0314c0f7b2291e5b200ac8c7c3b9258460405161185b91815260200190565b60405180910390a350505050565b610e60838383611ef4565b5f65ffffffffffff8211156118a6576040516306dfcc6560e41b815260306004820152602481018390526044016107ce565b5090565b5f600182116118b7575090565b816001600160801b82106118d05760809190911c9060401b5b6801000000000000000082106118eb5760409190911c9060201b5b64010000000082106119025760209190911c9060101b5b6201000082106119175760109190911c9060081b5b610100821061192b5760089190911c9060041b5b6010821061193e5760049190911c9060021b5b6004821061194a5760011b5b600302600190811c90818581611962576119626129b4565b048201901c9050600181858161197a5761197a6129b4565b048201901c90506001818581611992576119926129b4565b048201901c905060018185816119aa576119aa6129b4565b048201901c905060018185816119c2576119c26129b4565b048201901c905060018185816119da576119da6129b4565b048201901c90506119f98185816119f3576119f36129b4565b04821190565b90039392505050565b5f5b81831015611a59575f611a178484611f5a565b5f8781526020902090915065ffffffffffff86169082015465ffffffffffff161115611a4557809250611a53565b611a50816001612908565b93505b50611a04565b509392505050565b60055460ff1661079657604051638dfc202b60e01b815260040160405180910390fd5b6001600160a01b0381165f90815260208190526040812054610633565b816001600160a01b0316836001600160a01b031614158015611ac257505f81115b15610e60576001600160a01b03831615611b69576001600160a01b0383165f908152600a602052604081208190611b0490611f74611aff86611f7f565b611fb2565b6001600160d01b031691506001600160d01b03169150846001600160a01b03167fdec2bacdd2f05b59de34da9b523dff8be42e5e38e818c82fdb0bae774387a7248383604051611b5e929190918252602082015260400190565b60405180910390a250505b6001600160a01b03821615610e60576001600160a01b0382165f908152600a602052604081208190611ba190611fea611aff86611f7f565b6001600160d01b031691506001600160d01b03169150836001600160a01b03167fdec2bacdd2f05b59de34da9b523dff8be42e5e38e818c82fdb0bae774387a7248383604051611bfb929190918252602082015260400190565b60405180910390a25050505050565b5f63ffffffff8211156118a6576040516306dfcc6560e41b815260206004820152602481018390526044016107ce565b60055460ff16156107965760405163d93c066560e01b815260040160405180910390fd5b606060ff8314611c7857611c7183611ff5565b9050610633565b818054611c849061284d565b80601f0160208091040260200160405190810160405280929190818152602001828054611cb09061284d565b8015611cfb5780601f10611cd257610100808354040283529160200191611cfb565b820191905f5260205f20905b815481529060010190602001808311611cde57829003601f168201915b50505050509050610633565b5f80807f7fffffffffffffffffffffffffffffff5d576e7357a4501ddfe92f46681b20a0841115611d4057505f91506003905082611dc5565b604080515f808252602082018084528a905260ff891692820192909252606081018790526080810186905260019060a0016020604051602081039080840390855afa158015611d91573d5f5f3e3d5ffd5b5050604051601f1901519150506001600160a01b038116611dbc57505f925060019150829050611dc5565b92505f91508190505b9450945094915050565b5f826003811115611de257611de26129c8565b03611deb575050565b6001826003811115611dff57611dff6129c8565b03611e1d5760405163f645eedf60e01b815260040160405180910390fd5b6002826003811115611e3157611e316129c8565b03611e525760405163fce698f760e01b8152600481018290526024016107ce565b6003826003811115611e6657611e666129c8565b036107f6576040516335e2f38360e21b8152600481018290526024016107ce565b604080518082019091525f8082526020820152825f018263ffffffff1681548110611eb457611eb46129dc565b5f9182526020918290206040805180820190915291015465ffffffffffff81168252600160301b90046001600160d01b0316918101919091529392505050565b611eff838383612032565b6001600160a01b038316611f4f575f611f1760025490565b90506001600160d01b0380821115611f4c57604051630e58ae9360e11b815260048101839052602481018290526044016107ce565b50505b610e60838383612045565b5f611f6860028484186129f0565b6106fa90848416612908565b5f6106fa8284612a0f565b5f6001600160d01b038211156118a6576040516306dfcc6560e41b815260d06004820152602481018390526044016107ce565b5f5f611fdd611fbf610ad1565b611fd5611fcb88611548565b868863ffffffff16565b8791906120ba565b915091505b935093915050565b5f6106fa8284612a2e565b60605f612001836120c7565b6040805160208082528183019092529192505f91906020820181803683375050509182525060208101929092525090565b61203a611c3a565b610e608383836120ee565b6001600160a01b03831661206757612064600b611fea611aff84611f7f565b50505b6001600160a01b03821661208957612086600b611f74611aff84611f7f565b50505b6001600160a01b038381165f90815260096020526040808220548584168352912054610e6092918216911683611aa1565b5f80611fdd858585612214565b5f60ff8216601f81111561063357604051632cd44ac360e21b815260040160405180910390fd5b6001600160a01b038316612118578060025f82825461210d9190612908565b909155506121889050565b6001600160a01b0383165f908152602081905260409020548181101561216a5760405163391434e360e21b81526001600160a01b038516600482015260248101829052604481018390526064016107ce565b6001600160a01b0384165f9081526020819052604090209082900390555b6001600160a01b0382166121a4576002805482900390556121c2565b6001600160a01b0382165f9081526020819052604090208054820190555b816001600160a01b0316836001600160a01b03167fddf252ad1be2c89b69c2b068fc378daa952ba7f163c4a11628f55a4df523b3ef8360405161220791815260200190565b60405180910390a3505050565b82545f908190801561230a575f6122308761113560018561291b565b805490915065ffffffffffff80821691600160301b90046001600160d01b031690881682111561227357604051632520601d60e01b815260040160405180910390fd5b8765ffffffffffff168265ffffffffffff16036122ac57825465ffffffffffff16600160301b6001600160d01b038916021783556122fc565b6040805180820190915265ffffffffffff808a1682526001600160d01b03808a1660208085019182528d54600181018f555f8f81529190912094519151909216600160301b029216919091179101555b9450859350611fe292505050565b50506040805180820190915265ffffffffffff80851682526001600160d01b0380851660208085019182528854600181018a555f8a815291822095519251909316600160301b029190931617920191909155905081611fe2565b6001600160e01b031981168114610804575f5ffd5b5f60208284031215612389575f5ffd5b81356106fa81612364565b5f81518084528060208401602086015e5f602082860101526020601f19601f83011685010191505092915050565b602081525f6106fa6020830184612394565b6001600160a01b0381168114610804575f5ffd5b5f5f604083850312156123f9575f5ffd5b8235612404816123d4565b946020939093013593505050565b5f5f5f60608486031215612424575f5ffd5b833561242f816123d4565b9250602084013561243f816123d4565b929592945050506040919091013590565b634e487b7160e01b5f52604160045260245ffd5b5f82601f830112612473575f5ffd5b813567ffffffffffffffff81111561248d5761248d612450565b604051601f8201601f19908116603f0116810167ffffffffffffffff811182821017156124bc576124bc612450565b6040528181528382016020018510156124d3575f5ffd5b816020850160208301375f918101602001919091529392505050565b5f5f5f60608486031215612501575f5ffd5b833561250c816123d4565b925060208401359150604084013567ffffffffffffffff81111561252e575f5ffd5b61253a86828701612464565b9150509250925092565b5f60208284031215612554575f5ffd5b5035919050565b5f6020828403121561256b575f5ffd5b81356106fa816123d4565b5f5f5f5f5f6080868803121561258a575f5ffd5b8535612595816123d4565b945060208601356125a5816123d4565b935060408601359250606086013567ffffffffffffffff8111156125c7575f5ffd5b8601601f810188136125d7575f5ffd5b803567ffffffffffffffff8111156125ed575f5ffd5b8860208284010111156125fe575f5ffd5b959894975092955050506020019190565b60ff60f81b8816815260e060208201525f61262d60e0830189612394565b828103604084015261263f8189612394565b606084018890526001600160a01b038716608085015260a0840186905283810360c0850152845180825260208087019350909101905f5b81811015612694578351835260209384019390920191600101612676565b50909b9a5050505050505050505050565b5f5f5f5f608085870312156126b8575f5ffd5b84356126c3816123d4565b935060208501356126d3816123d4565b925060408501359150606085013567ffffffffffffffff8111156126f5575f5ffd5b61270187828801612464565b91505092959194509250565b803560ff8116811461271d575f5ffd5b919050565b5f5f5f5f5f5f60c08789031215612737575f5ffd5b8635612742816123d4565b9550602087013594506040870135935061275e6060880161270d565b9598949750929560808101359460a0909101359350915050565b5f5f5f5f5f5f5f60e0888a03121561278e575f5ffd5b8735612799816123d4565b965060208801356127a9816123d4565b955060408801359450606088013593506127c56080890161270d565b9699959850939692959460a0840135945060c09093013592915050565b5f5f604083850312156127f3575f5ffd5b82356127fe816123d4565b9150602083013561280e816123d4565b809150509250929050565b5f5f6040838503121561282a575f5ffd5b8235612835816123d4565b9150602083013563ffffffff8116811461280e575f5ffd5b600181811c9082168061286157607f821691505b60208210810361287f57634e487b7160e01b5f52602260045260245ffd5b50919050565b6001600160a01b03878116825286166020820152604081018590526060810184905260a0608082018190528101829052818360c08301375f81830160c090810191909152601f909201601f1916010195945050505050565b5f602082840312156128ed575f5ffd5b5051919050565b634e487b7160e01b5f52601160045260245ffd5b80820180821115610633576106336128f4565b81810381811115610633576106336128f4565b6001600160a01b03858116825284166020820152604081018390526080606082018190525f9061296090830184612394565b9695505050505050565b5f6020828403121561297a575f5ffd5b81516106fa81612364565b60018060a01b0384168152826020820152606060408201525f6129ab6060830184612394565b95945050505050565b634e487b7160e01b5f52601260045260245ffd5b634e487b7160e01b5f52602160045260245ffd5b634e487b7160e01b5f52603260045260245ffd5b5f82612a0a57634e487b7160e01b5f52601260045260245ffd5b500490565b6001600160d01b038281168282160390811115610633576106336128f4565b6001600160d01b038181168382160190811115610633576106336128f456fea2646970667358221220fd24141a9c894bff4467e43eb6789ba6f99bcb81779dfa1c976e186a09d7e0d964736f6c634300081c0033",
  "linkReferences": {},
  "deployedLinkReferences": {},
  "immutableReferences": {
    "5170": [
      {
        "length": 32,
        "start": 3998
      }
    ],
    "5172": [
      {
        "length": 32,
        "start": 3956
      }
    ],
    "5174": [
      {
        "length": 32,
        "start": 3914
      }
    ],
    "5176": [
      {
        "length": 32,
        "start": 4079
      }
    ],
    "5178": [
      {
        "length": 32,
        "start": 4119
      }
    ],
    "5181": [
      {
        "length": 32,
        "start": 5365
      }
    ],
    "5184": [
      {
        "length": 32,
        "start": 5410
      }
    ]
  },
  "inputSourceName": "project/contracts/Anderson.sol",
  "buildInfoId": "solc-0_8_28-cd4072c2cd0414541949a9239ba64f4d92193625"
}